:020000040801F1
:10000000B80F00209D0101080D140108AD1301086F
:1000100009140108650D0108ED2101080000000028
:10002000000000000000000000000000BD170108F3
:10003000110E010800000000B1140108AD180108FC
:10004000B7010108B7010108B7010108B7010108AC
:10005000B7010108B7010108B7010108B70101089C
:10006000B7010108B7010108B7010108B70101088C
:10007000B7010108B7010108B7010108B70101087C
:10008000B7010108B7010108B7010108B70101086C
:10009000B7010108B7010108B7010108B70101085C
:1000A000B7010108B7010108B7010108B70101084C
:1000B000B7010108011A0108B7010108B7010108D9
:1000C000B7010108B7010108B7010108B70101082C
:1000D000B70101089D1D0108751E0108111F0108C7
:1000E000B7010108B7010108B7010108B70101080C
:1000F000B7010108B7010108B7010108B7010108FC
:10010000B7010108B7010108B7010108B7010108EB
:10011000F11C0108B7010108B7010108B701010886
:10012000B7010108B7010108B7010108B7010108CB
:10013000B7010108B7010108B7010108B7010108BB
:10014000B7010108B7010108B7010108B7010108AB
:10015000B7010108B7010108B7010108B70101089B
:10016000B7010108B7010108B7010108B70101088B
:10017000B7010108B7010108B7010108B70101087B
:10018000B7010108B7010108DFF80CD000F0DEFA72
:100190000048004715340108B80F00200648804782
:1001A00006480047FEE7FEE7FEE7FEE7FEE7FEE75C
:1001B000FEE7FEE7FEE7FEE7611901088901010895
:1001C00038B5D0E90221491E01EB410102EBC10122
:1001D0004268C1EB011102EB81010268C1EB011120
:1001E00002EB8102D0E9043101EB410103EB810113
:1001F0003023A1F5527191FBF3F4174D6C4302EBE0
:10020000C41291FBF3F403FB141100921A2902DBD0
:10021000124B1A4400920C2291FBF2F3104C6343F0
:10022000009C04EBC313009391FBF2F302FB131148
:100230000C4A08E0491E40F2A324535C6343009C2F
:1002400004EBC31300930029F4DC0146684600F078
:100250007FF8009838BD00003F0C0F00805101006E
:1002600067C2030004420108D2B201E000F8012B8A
:10027000491EFBD270470022F6E710B513460A4626
:1002800004461946FFF7F0FF204610BD421C10F847
:10029000011B0029FBD1801A704700F0004230F0AA
:1002A00000400AD0C10D01F56071C0F3160042EAAA
:1002B0000151C208400711437047002001467047B2
:1002C00030B50B46014600202022012409E021FA26
:1002D00002F59D4205D303FA02F5491B04FA02F523
:1002E0002844151EA2F10102F1DC30BD2DE9F05FBA
:1002F0000546002092469B46884606468146402495
:100300001BE0284641464746224600F040FA534645
:100310005A46C01A914110D311461846224600F0A1
:1003200027FA2D1A67EB01084F46224601200021CB
:1003300000F01EFA17EB00094E41201EA4F1010443
:10034000DFDC484631462A464346BDE8F09F0000C0
:1003500010B500683C22B0FBF2F302FB1303B0FBC4
:10036000F2F00B60B0FBF2F302FB1303B0FBF2F010
:1003700018224B60B0FBF2F302FB1303B0FBF2F068
:10038000021D8B600723B2FBF3F403FB14228000F1
:1003900040F2B55300F66C308A61B0FBF3F2B0FB6B
:1003A000F3F403FB1400443280084A61C8613B281F
:1003B00002D3920700D0401C0022074C13460A616A
:1003C000E25C824203D8801A5B1C0B61F8E7401C98
:1003D000C860084610BD0000104201082DE9FE4F1C
:1003E000804681EA0300C00F0C46009021F00041D6
:1003F00023F00045B8EB0200A94105D24046214652
:1004000090461C460B46024623F00040104347D05E
:10041000270DC7F30A00C3F30A510290401A019056
:1004200040286BDAC3F3130040F4801B0098924617
:1004300020B10023D2EB030A63EB0B0B0198594662
:10044000C0F14002504600F093F906460D46504672
:100450005946019A00F0ABF910EB08006141002405
:1004600087EA115284EAE7731A4340D0009A62B3D4
:10047000019A012A4FEA075215DC001B61EB0201C9
:100480004FF0004202EA0752CDE90042001C41F55C
:10049000801132462B4600F0ABF903B0BDE8F08F77
:1004A00040462146F9E7001B61EB0201001C41F5C3
:1004B000801300185B412018A2F5001747EB0301D9
:1004C00040EAD570B6196D4111E06D084FEA360665
:1004D00045EAC0754FEA0752001B61EB0201001CA0
:1004E00041F5801149084FEA300000195141324668
:1004F0002B4603B0BDE8F04F00F06BB90098012225
:1005000040000023D0EB020263EBE0730098214629
:100510004FEAE074B8EB000061EB0401E9E783F017
:1005200000435BE781F0004158E72DE9FE4F81EA87
:10053000030404F0004421F0004100944FF0000B4C
:1005400023F0004350EA01045ED052EA03045BD07A
:10055000C3F30A54C1F30A552C44A4F2F3340194B2
:10056000A0FB0254C1F3130141F48011C3F3130340
:1005700043F4801301FB024400FB034E840A970AF4
:1005800044EA815447EA8357A4FB076802958D0A21
:1005900005FB07854FEA932C04FB0C542705029DAD
:1005A0004FEA065847EA1637B5EB08056EEB070C1D
:1005B000870E920E47EA811742EA8312A7FB0201D7
:1005C000B6EB0B0164EB00042B0D43EA0C335E1811
:1005D00044EB1C50DA465146E7FB0201C5F3130415
:1005E0004FEA0B3343EA14534FEA0432019C43EAC7
:1005F0000603A4F10C040294009CCDE900B400F0C1
:10060000F7F803B0BDE8F08F00200146F9E72DE9C7
:10061000F04D81EA030404F0004B21F0004514463C
:100620004FF0000A23F0004150EA050220D054EABE
:1006300001021DD0C5F30A570246C5F31303C1F3E7
:100640001300C1F30A5640F4801543F48013A7EB5E
:100650000608101BD64608F2FD3873EB050002D3DE
:1006600008F1010801E092185B41B8F1000F03DACC
:1006700000200146BDE8F08D00204FF480110646B1
:1006800084460EE0171B73EB050705D3121B63EBC3
:10069000050306434CEA010C49084FEA3000921862
:1006A0005B4150EA0107EDD152EA030012D082EA21
:1006B000040083EA0501084305D0101BAB4106D2B4
:1006C0000122002306E000224FF0004302E06FF019
:1006D000010253101AEB06004CEB085110EB0A0014
:1006E00041EB0B01BDE8F04D00F073B8C1F30A52C5
:1006F000C1F3130140F2FF3341F480119A4202DA50
:1007000000200146704740F233439A42A2F233423E
:1007100002DC524200F03BB800F02AB830B5041EAB
:1007200071F1000404DB4FF00044404264EB01012E
:10073000141E73F1000405DB1C464FF000435242C7
:1007400063EB0403994208BF904230BD064C074D4D
:1007500006E0E06840F0010394E807009847103491
:10076000AC42F6D3FFF714FD98420108B8420108E5
:10077000202A04DB203A00FA02F100207047914061
:10078000C2F1200320FA03F3194390407047202A56
:1007900004DB203A21FA02F00021704721FA02F32B
:1007A000D040C2F120029140084319467047202AE8
:1007B00006DBCB17203A41FA02F043EAE07306E089
:1007C00041FA02F3D040C2F1200291400843194699
:1007D000704710B5141E73F1000408DA401C41F193
:1007E000000192185B411A4301D120F0010010BDB5
:1007F0002DE9F04D92469B4611B1B1FA81F202E02B
:10080000B0FA80F220329046FFF7B2FF04460F465E
:1008100040EA0A0041EA0B0153465A46084313D006
:10082000114653EA010019D0C8F140025046FFF7C3
:10083000AEFF05460E46504659464246FFF798FF22
:10084000084305D0012004E020463946BDE8F08D7C
:100850000020054346EAE0762C4337430A986305B7
:10086000E40AA0EB08000022FD0A44EA47540A30DB
:1008700002D500200146E9E7010510196941DDE9CB
:10088000084500196941BDE8F04DA2E770B50026A2
:1008900014A1174801F0ACFC05460020154908607A
:1008A000002403E0002014490855641C1E2CF9DBC9
:1008B00029460F4801F0C8FA4FF4967002F0ECFB9D
:1008C0000C480068401C0D490860084601680A4849
:1008D00001F04EFA0848807D312800D101263046CB
:1008E00070BD000041542B43455245473F0D0A005F
:1008F00054030020AC00002090030020B000002032
:1009000070B505461BA11E4801F072FC064600208A
:100910001C490860002403E000201B490855641CA2
:100920001E2CF9DB3146164801F08EFA40F6B8303D
:1009300002F0B2FB13480068401C144908600846E6
:100940000168114801F014FA0F48407F4F280FD179
:100950000D48807F4B280BD1002405E004F10A00EC
:100960000949085C2855641C0F2CF7DB012070BD79
:100970000020FCE741542B4347534E0D0A00000072
:1009800054030020AC00002090030020B0000020A1
:1009900070B511A1134801F02BFC05460020124947
:1009A0000860002403E0002010490855641C1E2C38
:1009B000F9DB29460B4801F047FA4FF4FA6002F0E0
:1009C0006BFB09480068401C09490860084601683B
:1009D000064801F0CDF970BD41542B43494D490DF6
:1009E0000A00000054030020AC0000209003002007
:1009F000B000002070B521A1254801F0F9FB0546A3
:100A0000002024490860002403E000202249085502
:100A1000641C1E2CF9DB29461D4801F015FA6420E0
:100A200002F03AFB1B480068401C1C49086008465D
:100A30000168194801F09CF919A1154801F0D8FB8B
:100A40000546002013490860002403E000201249F5
:100A50000855641C1E2CF9DB29460D4801F0F4F9F9
:100A6000642002F019FB0B480068401C0B49086029
:100A700008460168084801F07BF970BD41542B51CC
:100A800049434C4F53453D302C310D0A00000000C6
:100A900054030020AC00002090030020B000002090
:100AA00041542B514944454143543D310D0A000006
:100AB00070B5632620A1234801F09AFB044600206C
:100AC00021490860002503E00020204948556D1C9D
:100AD0001E2DF9DB21461B4801F0B6F94FF4FA60F0
:100AE00002F0DAFA18480068401C19490860084604
:100AF0000168164801F03CF9052316A21248016866
:100B0000124800F082FA04461049E01D085C2C28C7
:100B10000BD1A01D085C30380A46611D515C30398C
:100B200001EB810100EB410604E00849601D085C0F
:100B3000A0F13006304670BD41542B4353510D0A8D
:100B40000000000054030020AC00002090030020AF
:100B5000B00000204353513A2000000070B511A1AD
:100B6000144801F045FB05460020134908600024A5
:100B700003E0002011490855641C1E2CF9DB2946AE
:100B80000C4801F061F94FF4FA6002F085FA0A4866
:100B90000068401C0A49086008460168074801F0DF
:100BA000E7F870BD41542B51494143543D310D0A82
:100BB0000000000054030020AC000020900300203F
:100BC000B000002070B511A1154801F011FB0546D9
:100BD000002014490860002403E000201249085551
:100BE000641C1E2CF9DB29460D4801F02DF9642008
:100BF00002F052FA0B480068401C0C490860084695
:100C00000168094801F0B4F870BD000041542B514F
:100C100049434C4F53453D302C310D0A0000000034
:100C200054030020AC00002090030020B0000020FE
:100C300070B511A1144801F0DBFA054600201349F4
:100C40000860002403E0002011490855641C1E2C94
:100C5000F9DB29460C4801F0F7F84FF4FA6002F08E
:100C60001BFA0A480068401C0A49086008460168E7
:100C7000074801F07DF870BD41542B51494353475B
:100C8000503D310D0A00000054030020AC0000204C
:100C900090030020B00000202DE9F04105460E46EB
:100CA0002B46324620A1294801F0A2FA074600202F
:100CB00027490860002403E0002026490855641CE9
:100CC0001E2CF9DB3946214801F0BEF84FF4FA60DA
:100CD00002F0E2F91E480068401C1F4908600846FF
:100CE00001681C4801F044F81A4890F830004F2879
:100CF00009D1184890F831004B2804D10020174939
:100D00000870BDE8F08115480078401C1349087050
:100D100008460078052805DD0120114908800020DB
:100D20000E49087000BFECE741542B51494F504524
:100D30004E3D312C302C22544350222C222573223C
:100D40002C25642C302C310D0A00000054030020A7
:100D5000AC00002090030020B0000020F400002030
:100D60004400002000BFFEE770B502460B4600219C
:100D7000551C1C4605E015F8016B701881B2601E09
:100D800084B2002CF7DCC9B2C843401CC0B270BDAD
:100D900070B500240D25002601F07CFF70B321E022
:100DA0001748005DFF2802D0601CC4B21AE0144945
:100DB00008190B21FFF7D8FF0646114904F10C0072
:100DC000085CB0420BD121460D4802F0B7F8002074
:100DD0000C4908700C4908806019C4B201E0601C1D
:100DE000C4B200BF09480068092804DB074800684E
:100DF0000938A042D4DA00200449086070BD000020
:100E000084050020FE0000201C000020B800002007
:100E10007047000010B50B4801F0B6F80A4801F021
:100E2000B3F80A4800F074F9094800F071F909486C
:100E300000F06EF9084800F06BF9084801F0A4F8DA
:100E400010BD000000440040004800400000024087
:100E50000004024000080240000C02400010014063
:100E600030B10749096841F48061054A116005E025
:100E70000349096821F48061014A1160704700004C
:100E8000003C024070B504460A460026092502B916
:100E900009E0012A01D1160205E0022A01D1160259
:100EA00001E04FF4407600F09FF80546092D28D167
:100EB0001548006820F4407013490860084600682F
:100EC000304308600846006820F0F80008600846D3
:100ED000006844F0020108430B49086008460068B6
:100EE00040F48030086000F07FF80546064800684E
:100EF00020F00200044908600846006820F0F8006D
:100F00000860284670BD0000103C024009201349CB
:100F1000096801F48031B1F5803F01D101201CE066
:100F20000E49096801F0100109B1062015E00B49CE
:100F3000096801F4807109B102200EE007490968CF
:100F400001F0EF0109B1072007E00449096801F049
:100F5000020109B1082000E0092070470C3C024062
:100F60000348006840F000400149086070470000F5
:100F7000103C024030B502460C46092500F034F81A
:100F80000546092D19D10E48006820F440700C491F
:100F900008600846006840F4007008600846006871
:100FA00040F001000860146000F01EF80546044897
:100FB000006820F0010002490860284630BD0000AA
:100FC000103C02400548006800F0004028B1044889
:100FD00002490C390860034808607047103C024021
:100FE00023016745AB89EFCD08B509200090FFF7D5
:100FF0008DFF009002E0FFF789FF00909DF8000050
:101000000128F8D09DF8000008BD2DE9F041044604
:101010000D4616464FF0FF3000210022002700BF8A
:1010200013E00027002109E016F801C002EB0108D7
:1010300014F80880C44500D17F1C491C9942F3DB99
:101040009F4201D1104602E0521CAA42E9DB00BFD8
:10105000BDE8F0817CB500241A48007800061A49E2
:10106000097840EA01401949097840EA0120184905
:10107000097808431749086008460068164908605F
:101080000846164D2ECD001D2EC00E2114A000F0D6
:101090006FFE1148C06810498968CDE900100E48FC
:1010A000436813A10268184801F0A2F8C4B22146AF
:1010B000154800F05DFE05220749144800F032FB98
:1010C0007CBD000008000020090000200A0000206C
:1010D0000B000020040000205002002040020020ED
:1010E0000D0A20777269746520666C6173683A0036
:1010F000253038582C253038582C253038582C2598
:101100003038580D0A000000640200200000080872
:1011100010B504464148844208D10121084600F038
:10112000D9F90021012000F0D5F976E03C4884424D
:1011300008D10121022000F0CDF90021022000F0A9
:10114000C9F96AE03748844208D10121042000F03F
:10115000C1F90021042000F0BDF95EE0324884426C
:1011600008D10121082000F0B5F90021082000F085
:10117000B1F952E02D48844208D10121102000F03D
:10118000A9F90021102000F0A5F946E02848844282
:1011900008D10121202000F09DF90021202000F03D
:1011A00099F93AE02348844208D10121402000F017
:1011B00091F90021402000F08DF92EE01E48844274
:1011C00008D10121802000F085F90021802000F065
:1011D00081F922E01948844208D10121801500F0EC
:1011E00079F90021A01500F075F916E01448844241
:1011F00008D10121401500F06DF90021601500F0C3
:1012000069F90AE00F48844207D10121001500F076
:1012100061F90021201500F05DF910BD00000240C9
:101220000004024000080240000C0240001002408E
:101230000014024000180240001C0240002002403E
:101240000024024000280240F0B50A460021002395
:10125000002400BF3DE0012505FA01F3156805EA09
:1012600003049C4234D105684F000326BE40B543B9
:10127000056015794E00B54006683543056015795F
:10128000012D02D01579022D16D185684F00032655
:10129000BE40B543856055794E00B54086683543FC
:1012A0008560456801268E40B5434560456896795E
:1012B0008E40B6B235434560C5684F000326BE4038
:1012C000B543C560D5794E00B540C6683543C560A5
:1012D000491C1029BFD3F0BDF0B5002300244D07F1
:1012E000ED0E02FA05F3CE1000F1200555F8265058
:1012F0004E07F70E0F26BE40B543CF1000F1200673
:1013000046F82750CE1000F1200555F8265045EA42
:101310000304CE1000F1200545F82640F0BD4183BE
:1013200070470183704742694A404261704700003C
:1013300010B501F099FE4FF4967001F0ADFEFFF785
:1013400027FD0F4800780F2818DB11210DA000F0B1
:101350000FFD9FED110A114880ED000A9FED0E0A66
:101360000F4880ED000A9FED0C0A0E4880ED000A40
:101370000D48008840F001000B49088010BD0000B6
:10138000FE0000200D0A23232373656E6F72206E0A
:101390006F2061636B00000000000000140000205B
:1013A000100000200C0000201C00002000BFFEE701
:1013B00010B501F09BFE10BD1FB503200021009168
:1013C00001910B460A46CDE902104FF4E1310120AC
:1013D00001F076FC04200021009101910B460A46A1
:1013E000CDE902104FF4E131002001F069FC022048
:1013F0000021009101910B460A46CDE902104FF4FD
:10140000165101F05DFC1FBD00BFFEE770470000F4
:1014100070B5002100230F22C4781CB3174C246838
:1014200004F4E064C4F5E064C4F30721C1F10404EA
:10143000E3B20A4144789C40E1B2847814402143ED
:101440000C07210E0E4C05786155047804F01F0539
:101450000124AC4005786D11AD0005F1E025C5F81B
:10146000004109E0047804F01F050124AC40054D5B
:101470000678761145F8264070BD00000CED00E0BE
:1014800000E400E080E100E010B5002807DA0A0778
:10149000140E054A00F00F031B1FD45403E00A0783
:1014A000130E024A135410BD18ED00E000E400E0F2
:1014B0007047000029B1064A12680243044B1A60C3
:1014C00004E0034A12688243014B1A60704700002F
:1014D0003038024029B1064A12680243044B1A60B0
:1014E00004E0034A12688243014B1A60704700000F
:1014F0001038024029B1064A12680243044B1A60B0
:1015000004E0034A12688243014B1A6070470000EE
:101510004038024029B1064A12680243044B1A605F
:1015200004E0034A12688243014B1A6070470000CE
:101530002038024029B1064A12680243044B1A605F
:1015400004E0034A12688243014B1A6070470000AE
:101550004438024029B1064A12680243044B1A601B
:1015600004E0034A12688243014B1A60704700008E
:1015700024380240F0B50021002200240225002674
:101580000223324F3F6807F00C0121B1042905D036
:10159000082937D105E02E4F076036E02D4F076050
:1015A00033E02A4F3F1F3F68C7F38056274F3F1F46
:1015B0003F6807F03F036EB1264FB7FBF3F7DFF844
:1015C0008CC0ACF1040CDCF800C0CCF3881C07FB29
:1015D0000CF40CE01E4FB7FBF3F7DFF870C0ACF172
:1015E000040CDCF800C0CCF3881C07FB0CF4174F8C
:1015F0003F1F3F68C7F301477F1C7D00B4FBF5F731
:10160000076002E0124F076000BF00BF0F4F3F6846
:1016100007F0F0010909104F7A5C0768D74047606E
:101620000A4F3F6807F4E051890A0B4F7A5C47681C
:10163000D7408760054F3F6807F46041490B064F6C
:101640007A5C4768D740C760F0BD000008380240A8
:101650000024F40000127A00CF00002001461C484C
:10166000814201D2002070471A48814201D20820ED
:10167000F9E71948814201D21020F4E71748814266
:1016800001D21820EFE71648814201D22020EAE774
:101690001448814201D22820E5E71348814201D253
:1016A0003020E0E71148814201D23820DBE71048C2
:1016B000814201D24020D6E70E48814201D2482023
:1016C000D1E70D48814201D25020CCE75820CAE72B
:1016D000004000080080000800C000080000010869
:1016E00000000208000004080000060800000808C6
:1016F00000000A0800000C0800000E0830B5034680
:101700000C461546002206E0184600F007F844F89B
:1017100022001B1D521CAA42F6D330BD01460868A8
:10172000704700002DE9F04704460E4617464FF07B
:1017300009080025A946B4F1006F02D304F00300A4
:1017400008B1BDE8F087FFF73DFC0020FFF788FBFC
:10175000254604EB87091848854215D211E0284632
:10176000FFF7DCFF401C58B12846FFF777FF8246A1
:101770000221FFF787FB8046B8F1090F01D002E094
:101780002D1D4D45EBD300BFB8F1090F0CD108E07A
:1017900020463168FFF7EEFB092800D003E0241D46
:1017A000361D4C45F4D300BF0120FFF759FBFFF76E
:1017B000D7FB00BFC5E700000000FF1F7047000017
:1017C0000CB50020019000903448006840F480304F
:1017D0003249086000BF3148006800F400300090D2
:1017E0000198401C0190009810B901980028F2D18E
:1017F0002A48006800F4003010B10120009001E098
:10180000002000900098012846D12448403000680C
:1018100040F080502149403108602148006840F480
:1018200040401F4908601D48083000681B490831C6
:1018300008600846006840F40040086008460068F8
:1018400040F4A05008601748091F0860081F00688E
:1018500040F08070091F086000BF1048006800F069
:1018600000700028F9D040F205700F4908600B485D
:101870000830006820F00300084908310860084675
:10188000006840F00200086000BF044808300068AB
:1018900000F00C000828F8D10CBD00000038024010
:1018A0000070004008544007003C024010B5254835
:1018B0000068401C23490860084600686421B0FBAA
:1018C000F1F201FB120050BB00201E4908601E48C7
:1018D0000088401C1C4908801C480068401C1B49AB
:1018E0000860194800883C2819DB19480088401C0A
:1018F00017490880002014490880154800883C28B2
:101900000DDB14480088401C1249088008460088F6
:10191000182801DB0020088001200F4908800948B1
:1019200000686421B0FBF1F201FB12000F2804D81B
:1019300040210A48FFF7F3FC03E040210748FFF786
:10194000F0FC10BD9C00002050000020180000207A
:1019500052000020540000205600002000080240E1
:1019600010B51548006840F470001349086013482A
:10197000006840F001001149086000200F4908315B
:1019800008600E4800680E4908400C4908600D4880
:10199000091D0860081F006820F48020091F0860E6
:1019A000002006490C310860FFF70AFF064802498B
:1019B0008039086010BD000088ED00E0003802406A
:1019C000FFFFF6FE1030002400000108012080F324
:1019D000138800BF00BFBFF34F8F0748006800F4B3
:1019E000E06006490843001D03490860BFF34F8FBC
:1019F00000BF00BFFEE700000CED00E00000FA05AC
:101A000010B501211B4800F017F970B301F030F94F
:101A100019480078322804DA17480078401C164923
:101A2000087015480078322815DB1448007805281E
:101A300004DA12480078401C1049087000200E4952
:101A400008700F480088B0F5967F04DA0C480088CB
:101A5000401C0B4908800B480088B0F57A7F04DAF7
:101A600008480088401C074908800121014800F00F
:101A70000BF810BD00040040A0000020A1000020D1
:101A800042000020A2000020CA430282704721B118
:101A9000028842F00102028004E002884FF6FE73E1
:101AA0001A4002807047000010B504465548844231
:101AB00008D101210846FFF74DFD00210120FFF765
:101AC00049FD9DE0B4F1804F08D101210846FFF7A0
:101AD00021FD00210120FFF71DFD91E04A488442CD
:101AE00008D101210220FFF715FD00210220FFF798
:101AF00011FD85E04548844208D101210420FFF70B
:101B000009FD00210420FFF705FD79E040488442EB
:101B100008D101210820FFF7FDFC00210820FFF774
:101B2000F9FC6DE03B48844208D101211020FFF709
:101B3000F1FC00211020FFF7EDFC61E03648844203
:101B400008D101212020FFF7E5FC00212020FFF72C
:101B5000E1FC55E03148844208D101210220FFF721
:101B6000F9FC00210220FFF7F5FC49E02C488442F3
:101B700009D101210804FFF7EDFC00214FF480306A
:101B8000FFF7E8FC3CE02748844209D101214804E2
:101B9000FFF7E0FC00214FF40030FFF7DBFC2FE003
:101BA0002148844209D101218804FFF7D3FC002198
:101BB0004FF48020FFF7CEFC22E01C48844208D17D
:101BC00001214020FFF7A6FC00214020FFF7A2FCE6
:101BD00016E01748844208D101218020FFF79AFCC3
:101BE00000218020FFF796FC0AE01248844207D1CA
:101BF00001218015FFF78EFC0021A015FFF78AFC5C
:101C000010BD00000000014000040040000800403A
:101C1000000C00400010004000140040000401408F
:101C200000400140004401400048014000180040CD
:101C3000001C00400020004030B502460020002378
:101C40000024158A05EA0103958905EA010413B108
:101C50000CB1012000E0002030BD1AB183890B4394
:101C6000838102E083898B4383817047002202884D
:101C7000184B98420ED0184B98420BD0B0F1804FC1
:101C800008D0164B984205D0154B984202D0154B00
:101C9000984204D14FF68F731A404B881A43124B67
:101CA000984207D0114B984204D04FF6FF431A4098
:101CB0000B891A4302804B68C3620B880385054B6E
:101CC000984202D0044B984201D18B7A03860123BB
:101CD000838270470000014000040140000400407E
:101CE00000080040000C00400010004000140040BC
:101CF0001448008800F0200018B31248001D008826
:101D00001149124A12688854084610490968405C13
:101D10000A280BD101200E4908700C480068401CAD
:101D20000C4908600020094908600AE0074800687B
:101D3000401C0649086008460068BE2801DB0020F8
:101D400008607047004C0040DC070020C400002001
:101D5000CC000020C800002000BF0449098801F021
:101D600040010029F9D001498880704700100140E6
:101D700010B503460C46002200BF985CFFF7ECFF4D
:101D8000521CA242F9D300BF0348008800F0400073
:101D90000028F9D010BD0000001001401E48008846
:101DA00000F02000002836D01B4880881B491C4AC0
:101DB0001268885408461A490968405C75280BD196
:101DC00040F22D101749088000201449144A126867
:101DD0008854134908601EE0104811490968405CA6
:101DE000672803D101201049087014E00B480C4902
:101DF0000968405C472803D102200B4908700AE0BB
:101E000007480068401C06490860084600684F28DB
:101E100001D300200860704700100140B402002088
:101E2000A4000020420000201E00002000BF054941
:101E3000098801F040010029F9D00249091D0880F4
:101E4000704700000044004010B503460C460022D5
:101E500000BF985CFFF7EAFF521CA242F9D300BF13
:101E60000348008800F040000028F9D010BD0000B1
:101E70000044004010B540F22551104800F0FCF835
:101E8000012814D10D48001D0088C1B20C48026819
:101E90000068401C0A4B18600A48815418460068C4
:101EA000B0F5957F09DD00201946086005E00022A5
:101EB00040F22551014800F009F910BD00440040EE
:101EC000AC0000209003002000BF0549098801F004
:101ED00040010029F9D00249091D0880704700001F
:101EE0000048004010B503460C46002200BF985C35
:101EF000FFF7EAFF521CA242F9D300BF0348008853
:101F000000F040000028F9D010BD0000004800405B
:101F100010B540F22551124800F0AEF8012817D153
:101F200010480068401C0F4908600D48001D0088DB
:101F3000C4B208460068C82801DD002008600948CE
:101F40000068401E08490C5400200849087005E04C
:101F5000002240F22551024800F0B8F810BD000000
:101F600000480040B800002084050020CD0000207B
:101F700021B1828942F40052828104E082894DF6C7
:101F8000FF731A408281704710B50446324884427C
:101F900008D101211020FFF7DDFA00211020FFF702
:101FA000D9FA57E02D48844209D101214804FFF7AE
:101FB000B1FA00214FF40030FFF7ACFA4AE02848AC
:101FC000844209D101218804FFF7A4FA00214FF4CB
:101FD0008020FFF79FFA3DE02248844209D1012189
:101FE000C804FFF797FA00214FF40020FFF792FA98
:101FF00030E01D48844209D101210805FFF78AFA23
:1020000000214FF48010FFF785FA23E0174884423F
:1020100008D101212020FFF79DFA00212020FFF7A1
:1020200099FA17E01248844209D101218807FFF785
:1020300071FA00214FF08040FFF76CFA0AE00D487A
:10204000844207D101214005FFF764FA00216005B1
:10205000FFF760FA10BD000000100140004400408E
:1020600000480040004C0040005000400014014077
:1020700000780040007C004070B502460024002338
:102080000025002040F66A16B14200D100BFC1F31E
:10209000421501F01F03012606FA03F3012D02D1B8
:1020A0009689334006E0022D02D1168A334001E0C2
:1020B000968A33400C12012606FA04F4168834403E
:1020C00013B10CB1012000E0002070BDF0B5034653
:1020D000002400260025002040F66A17B94200D1EE
:1020E00000BF1846C1F3421401F01F06012707FA8A
:1020F00006F5012C01D10C3004E0022C01D1103086
:1021000000E014301AB107682F43076002E0076847
:10211000AF430760F0BD00002DE9FF4705460E46BE
:102120000024A14600BFA046B08900B100BF2C8AA0
:1021300024F44054F08804432C82AC8941F20C60B2
:102140008443B08831890843718908430443AC81D2
:10215000AC8A24F44074B0890443AC826846FFF72B
:1021600009FA2048854202D01F48854202D1DDF895
:102170000C9001E0DDF80890A88900F4004040B11F
:1021800009EBC90000EB091031684900B0FBF1F719
:1021900007E009EBC90000EB091031688900B0FBCA
:1021A000F1F76420B7FBF0F004012009642101FB82
:1021B0001078A88900F4004040B1322000EBC8003C
:1021C000B0FBF1F000F00700044308E0322000EB20
:1021D00008106421B0FBF1F000F00F0004432C81E3
:1021E000BDE8FF87001001400014014000BFFEE77A
:1021F0000FB4084B10B504A902AA039800F0DEF84A
:10220000044602A9002000F070FC204610BC5DF8D6
:1022100014FB0000EB2A010802E008C8121F08C1E5
:10222000002AFAD170477047002001E001C1121F57
:10223000002AFBD1704700002DE9FF5F82B000212A
:10224000DDE90430020DDDF840B0034318D044F658
:102250001050A2F2FF3242431514119801281FD0EA
:10226000A5EB0B00401C5FEA000A4FF000064E4F42
:10227000DFF83891B046504615D5CAF1000413E096
:10228000119801244AA3012801D16FEA0B01029899
:10229000119AC0E90031C0E9024206B0BDE8F09FE2
:1022A000CBF10000DFE704460021404A491842EB29
:1022B0000450CDE9001012E0E00707D032463B465B
:1022C00040464946FEF731F98046894632463B464C
:1022D00010461946FEF729F906460F466410002CF1
:1022E000EAD1DDE90401DDE90023BAF1000F06DAE5
:1022F000FEF71BF942464B46FEF717F905E0FEF7DD
:1023000086F942464B46FEF782F904460E46002205
:10231000284BFEF703FA03D84FF0FF30014607E0E1
:102320000022254B20463146FEF758F8FEF7DEF92D
:10233000102409E0002C0ADB0A220023FDF7D6FF57
:10234000039B30321A55641E50EA0102F2D1641C1C
:10235000039AC4F111031444119A012A03D00122F3
:1023600008430DD10AE0084304D000204FF0110BC0
:10237000119072E7A3EB0B056D1E0DE05B4504DDCC
:102380004FF0000205F1010504E003DA4FF000020E
:10239000A5F10105002AECD002981199C0E902319B
:1023A000C0E9004579E70000000014400000F03F5C
:1023B000300000000000F0430000E03F2DE9FF4F37
:1023C00095B09B468946064600250FE2252877D121
:1023D00000242746F84A0121059400E0044316F83A
:1023E000013F203B01FA03F01042F7D130782A2850
:1023F00011D06FF02F033078A0F13002092A16D8DF
:10240000059A44F0020402EB820203EB42021044FC
:10241000761C0590EFE759F8042B0592002A03DAA1
:10242000504244F40054059044F00204761C307885
:102430002E2816D116F8010F44F004042A280DD0D6
:102440006FF02F023078A0F13003092B09D807EB89
:10245000870302EB4303C718761CF3E759F8047BA4
:10246000761C30786C280FD006DC4C2817D06828F2
:102470000DD06A2814D104E0742810D07A280FD126
:102480000DE044F400140AE044F4801401E044F444
:1024900040147278824202D104F58014761C761CB6
:1024A000307866280BD013DC582877D009DC002858
:1024B00075D04528F6D04628F4D047281AD19DE19A
:1024C00018E0632835D0642879D0652812D195E1C9
:1024D000702873D008DC6728F1D069286FD06E2887
:1024E0000DD06F2806D1B5E073282CD0752875D093
:1024F000782874D05A46179990476D1C75E1C4F33B
:102500000250022809D003280DD0D9F80010042861
:102510000DD00D6009F1040967E1D9F80010EA1740
:10252000C1E90052F6E7D9F800100D80F2E70D700E
:10253000F0E719F8041B8DF8001000208DF8010059
:10254000EA46012003E059F804AB4FF0FF30610781
:102550004FF0000102D40DE008F101018846B942B4
:102560000FDA8045F8DB1AF808100029F4D108E0EA
:1025700008F1010188468142FADB1AF808100029A7
:10258000F6D105985B46A0EB080721463846179A16
:1025900000F094FA284400EB080507E04DE029E13B
:1025A0000DE01AF8010B5A4617999047B8F1010847
:1025B000F7D25B4621463846179A13E142E00A22D9
:1025C0000092C4F302524FF0000A022A08D059F8D0
:1025D00004CB032A4FEAEC710AD00DE029E02AE08F
:1025E00009F1070121F00702F2E802C1914609E072
:1025F0000FFA8CFC4FEAEC71042A03D14FFA8CFCE1
:102600004FEAEC71002907DA0A460021DCF1000CE0
:1026100061EB02012D2202E0220504D52B228DF868
:102620000420012203E0E20701D02022F7E79046D0
:1026300059E00A2102E010220DE010214FF0000ABB
:1026400000910BE010224FF0000A44F00404082728
:10265000009203E008224FF0000A0092C4F30252F5
:10266000022A05D059F804CB0021032A08D009E03A
:1026700009F1070121F00702F2E802C1914605E0E5
:102680001FFA8CFC042A01D10CF0FF0C4FF000085B
:10269000220728D5702806D0009B83F0100353EA48
:1026A0000A0305D00EE040228DF80420012208E044
:1026B0005CEA010206D030228DF804208DF8050076
:1026C00002229046009B83F0080353EA0A030AD1D2
:1026D0005CEA010201D1620705D530228DF80420A1
:1026E0004FF001087F1E582804D034A003900EA894
:1026F00002900DE036A0F9E753466046009AFDF7D8
:10270000F5FD84460398825C0298401E0290027098
:102710005CEA0100F0D1029806A9081A00F1200A2B
:10272000600702D524F4803400E00127574502DD1C
:10273000A7EB0A0000E0002000EB0A0100900598DA
:102740004144401A0590E00306D45B462146179A9F
:10275000059800F0B3F90544002706E001A85A46A1
:10276000C05D179990476D1C7F1C4745F6DBE00361
:102770000CD55B462146179A059800F09FF9054451
:1027800004E030205A46179990476D1C0099481E66
:1027900000900029F5DC08E0029802995A4600787A
:1027A000491C0291179990476D1CBAF10001AAF1DA
:1027B000010AF1DC65E10000092801003031323303
:1027C000343536373839616263646566000000006D
:1027D0003031323334353637383941424344454657
:1027E0000000000000F058F90544761C30780028FD
:1027F0007FF4ECAD19B02846BDE8F08F620700D435
:10280000062709F1070222F0070CFCE80223E14643
:1028100003F000485FEA080C02D00FF2702C0DE0C4
:102820005FEA045C02D50FF2682C07E05FEAC47C23
:1028300002D00FF2602C01E0AFF2700C4FF0FF38C5
:1028400023F00043CDF850C065280CD006DC4528A5
:1028500009D046281DD047283DD13DE0662818D034
:1028600067287ED138E00021112F01DB112000E024
:10287000781CCDE9000106A90EA8FFF7DDFCDDE913
:102880000F010E9A03910021009207F1010A0491B1
:102890004DE04FF000400097CDE9011006A90EA8C9
:1028A000FFF7CAFCDDE90F0203920E9B119900228B
:1028B000DDF80CA00093049211B9791C00EB010A19
:1028C000B7EB0A0004D4C0F1FF3007F1010A04900D
:1028D000AAEB0700019044E0012F00DA0127002154
:1028E000112F01DD112000E03846CDE9000106A9D5
:1028F0000EA8FFF7A1FCDDE90F010E9A039100215C
:1029000004910092BA4621070CD40399514500DA8C
:102910008A46BAF1010F05DD009AAAF10101515C66
:10292000302908D0B84202DA10F1040F06DA01218A
:10293000CDE9011015E0AAF10101E9E7002805DC65
:10294000049901440491AAEB000102E0411C5145A5
:1029500000DD8A460499401A401C01904FF0004067
:102960000290200704D40198504501DBCDF8048083
:1029700000208DF84F0002980DF14F07B0F1004F85
:1029800025D02B200E9002984FF0020800280CDA78
:10299000404202902D200E9007E00A210298FDF798
:1029A0008FFC3031029007F8011DB8F10001A8F149
:1029B0000108F2DC02980028EFD1791E0E98087009
:1029C000307800F0200040F0450007F8020D12A812
:1029D000C01B00F107081498007800B1012000EB3B
:1029E0000A01019801EBE07105984144401A401E2C
:1029F0000590E00306D45B462146179A059800F03F
:102A00005DF805441498007818B15A461799904714
:102A10006D1CE00324D55B462146179A059800F00B
:102A20004DF805441CE00498002807DBDDE90301AC
:102A3000884203DD0098405C179901E01799302027
:102A40005A469047049805F10105401C04900198EE
:102A5000401E019004D12E205A46179990476D1CB4
:102A6000BAF10001AAF1010ADDDC05E017F8010B5B
:102A70005A46179990476D1CB8F10001A8F101085A
:102A8000F4DC5B462146179A0598ABE62D00000062
:102A90002B000000200000002DE9F0410446002535
:102AA0001E461746880404D405E039462020B04766
:102AB0006D1C641EF9D52846BDE8F0812DE9F04172
:102AC000044600251E469046C80301D5302700E085
:102AD0002027880404D505E041463846B0476D1CE0
:102AE000641EF9D52846BDE8F0810A68531C0B60C6
:102AF0001070704710B5002401222A492A48FEF7B9
:102B0000FDFD2A4800782A4908702849087800EB1A
:102B1000D0714910A0EB410111B955202549087029
:102B200020480068401C002838D01E480078224900
:102B300008701C4821A102682548FFF759FBC4B260
:102B400021462348FFF714F91B480078FF2804D1D9
:102B50000E2120A0FFF70CF920E017480078EE289E
:102B60000FD10C2120A0FFF703F9FF2012490870B4
:102B7000214908702148008840F010001F49088052
:102B80000CE00D480078552808D1FF200A4908704C
:102B90001949087010211AA0FFF7EAF8FEF75AFA4F
:102BA00010BD000004000020000008080000002004
:102BB000080000200A0000200B0000200D0A666CAF
:102BC0006173685F666C67733A30782530385800F7
:102BD000640200200D0A6E6F2075706461746520B8
:102BE000696E666F000000000D0A7570646174659F
:102BF0002065727200000000090000201C00002007
:102C00000D0A757064617465207375636365737311
:102C100000000000014600200A78302A06DB0A780E
:102C2000392A03DC0A781207100E09E00A78612AB3
:102C300006DB0A78662A03DC0A78D21F1207100E18
:102C40004A78302A07DB4A78392A04DC4A7802F0CD
:102C50000F0210430AE04A78612A07DB4A78662AA5
:102C600004DC4A78D21F02F00F02104370470000C4
:102C700006480078022807DA04480078401C034917
:102C8000087001200249087070470000CD00002044
:102C9000CE00002008480078022801DA00207047A2
:102CA00006480078012804D100200449087001205A
:102CB000F5E70020F3E70000CD000020CE00002063
:102CC0002DE9F04F85B004460D4616461F46DDE956
:102CD0000FABDDF83890DDF84480062C03DB0020D4
:102CE00005B0BDE8F08F204600F064F80CB1052C6B
:102CF0000AD104EB440101EBC4012D4A52F8210032
:102D00000121FEF717FC09E004EB440101EBC401CB
:102D1000274A52F821000121FEF7ECFB0195ADF89E
:102D20000860ADF80A70ADF80C900020ADF8100006
:102D30000C20ADF80E0004EB440101EBC4011C4A69
:102D400002EB8101486801A9FFF7E6F904EB4400B2
:102D500000EBC400164901EB8000007A8DF80000FA
:102D6000C8F303108DF8010008F00F008DF8020081
:102D700001208DF803006846FEF74AFB04EB44018E
:102D800001EBC4010A4A02EB81010122486840F2CA
:102D90002551FFF79BF904EB440101EBC401044A00
:102DA00002EB810148680121FFF7E2F8012097E773
:102DB000FC4001087CB50446062C01DB00207CBDEC
:102DC00004EB440101EBC4013E4A02EB8101C968F6
:102DD00004EB440202EBC4023A4B03EB8202D269D9
:102DE00041EA02000121FEF765FB04EB440303EB1B
:102DF000C403344D05EB83031A7E04EB440303EB59
:102E0000C40305EB8303D98A04EB440303EBC40337
:102E100005EB83031869FEF75FFA04EB440303EB49
:102E2000C40305EB830393F8282004EB440303EB6E
:102E3000C40305EB8303D98C04EB440303EBC40305
:102E400005EB8303186AFEF747FA00208DF80600A9
:102E500002208DF8040001208DF8070004EB4400E7
:102E600000EBC400294601EB8000808A009002201C
:102E70008DF8050004EB440101EBC4012A4602EB86
:102E8000810108696946FEF7DFF902208DF8040028
:102E900004EB440000EBC400294601EB8000808C69
:102EA000009002208DF8050004EB440101EBC40101
:102EB0002A4602EB8101086A6946FEF7C5F901203E
:102EC0007DE70000FC4001082DE9F04107468846F7
:102ED00015461E46002413E0601CC4B24FF47A70FD
:102EE00000F0DAF8082111A0FEF742FFA4F130014A
:102EF000C8B2FEF731FF052C02DD01200E49088023
:102F00003846FDF7FDFC0028E6D0FDF741FDFDF752
:102F1000CFFD3070FDF78CFEFDF720FE41462846C0
:102F2000FDF7BAFEFDF74EFEBDE8F0810D0A534EE7
:102F3000204552523A00000044000020CA1D835C24
:102F40008A1D825C43EA022200EE102AB8EEC00A13
:102F50003C4A3D4B1B7802EB830282ED000A01F1F3
:102F60000902835C521E825C43EA022200EE102AB0
:102F7000B8EEC00ADFED350A80EE201A344A82ED41
:102F8000001A01F10B02835C521E825C43EA0222AA
:102F900000EE102AB8EEC00ADFED2C0A80EE201AEF
:102FA0002C4A82ED001A274A274B1B7802EB83023A
:102FB00092ED000ADFED280A20EE200A214A224B7A
:102FC0001B7802EB830282ED000A1E4A1E4B1B781F
:102FD00002EB830292ED000A204AD2ED000A30EEA5
:102FE000200A184AD2ED140A30EE600A1B4A82ED1C
:102FF000000A00221A4B1A701A4B1A70124A1278E1
:10300000521C142A05DB0F4A92ED000A82ED140AC5
:103010000AE00C4B0C4A1278521C03EB820292ED30
:10302000000A1A4682ED140A074A1278132A05DAB2
:10303000054A1278521C044B1A7002E00022024B1F
:103040001A707047600B0020FF0000200000C8428B
:103050001000002014000020CDCC4C3D0C000020BE
:10306000A1000020A00000200EB507A207CA8DE82D
:10307000070009216846FEF735FF06480078401C26
:10308000044908700EBD0000FF0187000000000029
:1030900078000000FE000020002107E048F2D04147
:1030A00000BF0A1EA1F1010399B2FAD1021EA0F1DC
:1030B000010398B2F2D1704710B50A4800210160AF
:1030C00001710948006860B9E020064908700020D5
:1030D00048700221034800F049FD4FF0FF300249DB
:1030E000086010BD6C090020F80000201CB501210B
:1030F0003020FEF7DFF90420009001208DF8040055
:1031000000208DF806008DF805008DF8070069464F
:103110002148FEF799F81020009001208DF8040056
:1031200000208DF806008DF805008DF8070069462F
:103130001948FEF789F82020009001208DF804003E
:1031400000208DF806008DF805008DF8070069460F
:103150001148FEF779F81020009001208DF8040046
:1031600000208DF806008DF805008DF807006946EF
:103170000A48FEF769F804210748FEF7D0F8102145
:103180000548FEF7CEF820210348FEF7CAF81021C3
:103190000248FEF7C6F81CBD0010024000140240B1
:1031A0001CB501214020FEF785F900208DF80600AE
:1031B00001208DF804008DF80700082000900220FF
:1031C0008DF8050069462848FEF73EF80821264894
:1031D000FEF7A5F800208DF8060001208DF8040008
:1031E00000208DF807004FF48040009002208DF8F9
:1031F000050069461C48FEF727F84FF480411A483D
:10320000FEF78DF800208DF8060001208DF80400EF
:1032100000208DF807004FF48050009002208DF8B8
:10322000050069461048FEF70FF84FF480510E482C
:10323000FEF775F800208DF8060001208DF80400D7
:1032400000208DF807004FF40060009002208DF8F8
:10325000050069460548FDF7F7FF4FF40061034894
:10326000FEF75DF81CBD000000180240000C024093
:1032700010B508211E48FEF752F84FF480411C4853
:10328000FEF74DF84FF47A70FFF706FF4FF48051C8
:103290001748FEF746F84FF4FA60FFF7FDFE4FF4CB
:1032A00080511348FEF73BF84FF4FA70FFF7F4FE35
:1032B00008210F48FEF735F84FF4FA70FFF7ECFEDF
:1032C0004FF480410A48FEF72CF84FF47A70FFF76C
:1032D000E3FE4FF480410648FEF721F840F6B8308F
:1032E000FFF7DAFE40F6B830FFF7D6FE10BD00005B
:1032F000001802407FB505460C4601210220FEF76A
:10330000F9F81D208DF80C0003208DF80D00012028
:103310008DF80E008DF80F0003A8FEF779F80195DF
:10332000ADF800400020ADF80800ADF80200694695
:103330000648FEF79BFC012211460448FEF78DFC6F
:1033400001210248FEF7A3FB7FBD000000040040FE
:1033500010B510212D48FDF7E2FF20212B48FDF785
:10336000DEFF10212A48FDF7DAFF4FF47A70FFF7ED
:1033700093FE10212548FDF7D4FF20212348FDF7B7
:10338000D0FF10212248FDF7CCFF4FF47A70FFF7F1
:1033900083FE10211D48FDF7C2FF20211B48FDF7C9
:1033A000BEFF10211A48FDF7BAFF4FF47A70FFF7FD
:1033B00073FE10211548FDF7B4FF20211348FDF7D7
:1033C000B0FF10211248FDF7ACFF4FF47A70FFF701
:1033D00063FE10210D48FDF7A2FF20210B48FDF7E9
:1033E0009EFF10210A48FDF79AFF4FF47A70FFF70D
:1033F00053FE10210548FDF794FF20210348FDF7F7
:1034000090FF10210248FDF78CFF10BD0010024014
:10341000001402402DED088B92B0FEF7A1FA4FF494
:10342000407101F00702DB4B18684FF6FF031840AC
:10343000D94B034343EA0220D64B186000BF00215A
:10344000481EFEF721F8D54800686421B0FBF1F66C
:10345000701EB0F1807F00D30FE0701E4FF0E021AE
:1034600048610F214FF0FF30FEF70EF800204FF0BB
:10347000E02188610720086100BFFDF7CBFC41F621
:103480001F41F920FFF736FFFDF796FFFDF790FF8C
:10349000FFF786FEFFF7ECFEFFF72CFBFFF758FF68
:1034A0004FF47A70FFF7F8FDBD4BBE48BE49026885
:1034B0000EA8FFF709FD0A20FFF7EEFD002000F03F
:1034C000DFF9BA49088063E1B848008820BBB848F2
:1034D0000088B0F5967F1FDBB6480088E0B9012070
:1034E000B44908800020B4490880B1490880FDF73C
:1034F000DFFAAB490870B14800880090B0480388F3
:10350000B0480288B0A1B648FEF772FEC5B229469F
:10351000B348FEF72DFC0DE0A4480088012809D12E
:103520000020A2490880012000F0AAF910B1012072
:103530009E4908809F48008801287DD11021A94814
:10354000FDF7EDFEA84890ED000AB5EEC00AF1EED9
:1035500010FA03D29FEDA50A80ED000AA44890ED71
:10356000000AFBEE040AB4EEE00AF1EE10FA03D210
:10357000BBEE040A80ED000A9D4890ED000ADFEDE5
:103580009D0AB4EEE00AF1EE10FA03DD9FED990A10
:1035900080ED000A984890ED000AB5EEC00AF1EE01
:1035A00010FA03D89FED910A80ED000A924890ED41
:1035B000000ADFED900AB4EEE00AF1EE10FA03DD46
:1035C0009FED8C0A80ED000A8B480068FCF765FED1
:1035D00041EC180B86480068FCF75FFE41EC190BC4
:1035E00081480068FCF759FE41EC1A0B83480068DB
:1035F000FCF753FE41EC1B0B8DED0C8B8DED0A9B04
:103600008DED08AB7E48006865490978CDE9061064
:103610008DED04BB7B497C4A7C487D4B1B88CDE902
:103620000030CDE902217B4803780EAA7A497B4815
:10363000FEF7DEFD7A4900E073E008605A49594818
:103640000068FDF729FB0020034602460EA9009002
:10365000744800F00BFA7248008800B26F490022EB
:103660000123CDE90021029011466FA000F01AFB62
:103670000EAA71A17348FEF7BBFDC5B2674B0022CD
:103680002946704800F0AEFB00283FDD6D4800F091
:1036900077FCFFF711FD06236BA2FA215F48FDF7C7
:1036A000B4FCC5B2FF2D31D06948FEF76DFC694806
:1036B000FEF76AFC6848FEF7F7F9684800210160E8
:1036C00041608160C160002414E0204604EBD071A9
:1036D0004910A4EB410159B9504929442144881D9E
:1036E000FFF798FA264604EBD67149105B4A50540E
:1036F000A01CC4B2202CE8DB552059490870FDF706
:10370000A9FC5848FEF740FCFEF760F9FFF7D4FC2F
:10371000FDF758FA00202749088010213148FDF7AD
:1037200000FE5148007804280CDD04214F48FDF7C5
:10373000FAFD0A214EA0FEF71BFBFDF7F9FD002064
:10374000494908704D480088012821D11021474877
:10375000FDF7E5FDFDF74EF9002048490880FFF729
:1037600087FD4FF47A60FFF797FC4FF47A60FFF71C
:1037700093FC4FF47A60FFF78FFC094B09480A4924
:1037800002680EA8FFF7A0FB10213848FDF7C9FD1D
:103790009AE600000CED00E00000FA05E0000020D1
:1037A00040000020380000202900002056000020A2
:1037B0004200002048000020A2000020500000200D
:1037C000520000205400002074696D65203D2025C2
:1037D00032643A2532643A2532640D0A0000000052
:1037E00064020020001402400C00002000000000D1
:1037F00010000020CDCCC742140000203C00002067
:1038000018000020240000202301002018010020BF
:103810001C000020000000201C4201082D01002097
:1038200058000020000100206A6563696E666F2FF2
:10383000766F637300000000636F6D6D616E642FBF
:103840002573000027020020757064617465000014
:1038500000440040004800400004004040020020B6
:103860000900002000100140A100002000100240CB
:10387000676574646174610D0A00000044000020F3
:103880007CB505460024002612E0052E0ADD0F2136
:103890005DA0FEF76DFAFFF7EBFC0DB9002601E025
:1038A00001207CBD701CC6B24FF44870FFF7F4FBDA
:1038B000FCF7ECFF0128E8D157A15A48FEF798FC25
:1038C0000446002058490860002403E000205749BE
:1038D0000855641C1E2CF9DB21465248FEF7B4FA49
:1038E0004FF49660FFF7D8FB4F480068401C5049E2
:1038F00008604E4890F82C004F287DD14B4890F836
:103900002D004B287ED1494880782B287AD1474812
:10391000007D30384549C97C303901EB810100EB2D
:103920004100444908804148C07D30383F49897D85
:10393000303901EB810100EB41000C2190FBF1F2E9
:1039400001FB12003C4908803848807E30383749F6
:10395000497E303901EB810100EB41003749088095
:103960003248407F30383149097F303901EB8101DD
:1039700000EB4100182190FBF1F201FB12003049ED
:1039800008802A4890F8200030382849C97F30390B
:1039900001EB810100EB41002A490880234890F89F
:1039A00023003038214991F82210303901EB810190
:1039B00000EB410024490880084600880090214817
:1039C00003881F48028821A12648FEF711FC0446FF
:1039D0001D4800881B490988CDE900101848038854
:1039E00016480288144801881248008800F0DCF963
:1039F0001D490860214600E004E01A48FEF7B8F9C6
:103A000000204EE701204CE72372657374617274E5
:103A100020677072730D0A0041542B43434C4B3F97
:103A20000D0A000054030020AC0000209003002089
:103A3000B00000204A0000204C0000204E00002072
:103A400054000020520000205000002074696D6571
:103A5000203D202532643A2532643A2532640D0A2D
:103A60000000000064020020180000202DE9FE4F35
:103A700083468A461D460C9F052434A207CA8DE85A
:103A800007004FF4FA713448FCF7F5FB4FF00008DB
:103A90000AE01DF808202046611CCCB22E490A54C9
:103AA00008F1010000F0FF08B8F1090FF1DB022670
:103AB00025B146F080060FB146F040062046611C55
:103AC000CCB225490E5400222046611CCCB22249BA
:103AD0000A5414222046611CCCB21F490A54524693
:103AE0001EA15846FEF784FB22461B49584600F0AB
:103AF000E8FAC4B265B122461749284600F0E1FA57
:103B0000C4B22FB122461449384600F0DAFAC4B2E2
:103B1000601F82B21049102000F082FA8146B9F18C
:103B2000000F0CDD0C480078202808D10A48C07826
:103B300028B900200C4908600120BDE8FE8F4FF035
:103B4000FF30094908600020F7E7000000064D51EA
:103B500049736470030000006C0900204A656369C2
:103B60006E666F2573000000F80000202DE9F04319
:103B70009FB007468846782101A8FCF77CFB4246A7
:103B80003CA101A8FEF734FB1FFA80F9494601A8C1
:103B9000FEF75AF900203C490860002504E00020A7
:103BA0003A494855681C85B21E2DF8DB41F2883031
:103BB000FFF772FA34480068401C3549086008462F
:103BC00001683248FEF7D4F800202F49086000252C
:103BD00004E000202D494855681C85B21E2DF8DBF5
:103BE00041463846FEF730F94FF4FA60FFF754FAD1
:103BF00025480068401C264908600846016823489B
:103C0000FEF7B6F820480068002830DD072321A21F
:103C10001D4801681D48FDF7F8F904B2002C26DDA7
:103C200004231EA2184801681848FDF7EEF904B2F3
:103C3000002C1ADD601E04B2002607E0E0B20C3052
:103C400030441249085CB855701C06B20E48006832
:103C5000001B0E38B042F1DCE0B20B490988081AAB
:103C60000E3800B21FB0BDE8F0830020FAE74FF035
:103C7000FF30F7E741542B514953454E443D302C1A
:103C800025640D0A00000000AC0000209003002015
:103C9000B000002053454E44204F4B0072656376C0
:103CA000000000002DE9FF5F8A46904699464FF4D8
:103CB000FA713648FCF7DFFA10981FFA80FB1321DF
:103CC00033A0FEF755F83748006800285CD100980B
:103CD000FCF7DCFAC01D5844B0F5FA7F03D9002088
:103CE00004B0BDE8F09F052422462849009800F062
:103CF000E8F90446B8F1000F0BDD01222046611CF3
:103D00008CB222490A542046611C8CB21F4901F82A
:103D10000090002708E00F98C25D2046611C8CB21D
:103D20001A490A54781C87B25F45F4DB3025BAF192
:103D3000000F01D045F008050E9808B145F00105C7
:103D4000B8F1020F14D145F00405601F82B20F498B
:103D5000284600F065F90646002E15DD0B48007870
:103D6000502811D10948C07848450DD10120B7E746
:103D7000601F82B20549284600F052F906460EB986
:103D80000120ADE70020ABE70020A9E76C09002087
:103D90000D0A40404040205075626C697368206491
:103DA00061746100F80000202DE9F0438BB00446F7
:103DB0000D4616461F46DDE912892C216846FCF7A0
:103DC0005AFA04F164000590681E04900396029765
:103DD000CDF80480CDF800906846FCF7F1F90BB0FF
:103DE000BDE8F0832DE9FF5F81460E4692461F46EF
:103DF0004FF0000B05254FF00008002003904FF412
:103E0000FA715048FCF737FA4F48006800287CD117
:103E10004846FCF73BFA0930B0F5FA7F03D9A81FF2
:103E200004B0BDE8F09F49480088401C474908801D
:103E30000846008808B9012008804448008802121A
:103E40002846691C8DB23F490A54404802782846EA
:103E5000691C8DB23B490A542A46484600F031F9A4
:103E600005462846691C8DB2364901F800A0681F36
:103E700082B2822000F0D4F88046B8F1000F5ADDFB
:103E800030480078902856D12E48C0782F490978BC
:103E9000884250D113212EA0FDF76AFFB8F1070F19
:103EA00047DD2848807F00F0F000302841D1002411
:103EB00006E004F122002349085C0855601C04B2A6
:103EC000A8F12200A042F4DC00201E490855334628
:103ED0004A464FF4FA711B48FDF797F80FFA80FB3A
:103EE000BBF1000F25D1002405E030191549085C0D
:103EF0003855601C04B2A8F12200801BA042F4DCFB
:103F000000203855022117A000E014E0FDF730FF33
:103F100021463846FDF72CFF012003A9CDE9000119
:103F200003460022114602904846FFF7BBFE20469A
:103F300076E7002074E714210BA0FDF719FF4FF07E
:103F4000FF306DE76C090020F8000020FC00002025
:103F50000D0A404040402053756273637269626588
:103F6000206F6B000D0A00000D0A404040402053B6
:103F70007562736372696265206572720000000089
:103F800070B5064605244FF4FA712248FCF773F920
:103F90002148006800283BD13046FCF777F909300A
:103FA000B0F5FA7F01D9002070BD1C480088401C84
:103FB0001A4908800846008808B901200880174877
:103FC000008802122046611C8CB212490A54134820
:103FD00002782046611C8CB20E490A5422463046B3
:103FE00000F06FF80446601F82B20A49A22000F078
:103FF00017F80546002D0BDD06480078B02807D1DC
:104000000448C07805490978884201D10120CBE7EE
:104010000020C9E76C090020F8000020FC00002007
:104020002DE9FC5F82460F46914600260020009055
:104030004C46002500BF2046E11704EB5161C91131
:10404000A4EBC11101F0FF0BE11704EB5161C1F3C7
:10405000CF14002C01DD4BF0800B0098411CC9B23D
:10406000009101A901F800B0701CC6B2002CE2DC7E
:10407000C6F1040007F800A0002507E001A8405D94
:10408000C6F1050129447854681C85B2B542F5DBB8
:1040900009F10102324491B23A1D901BFFF766FD0F
:1040A0008046B8F1000F09DD002505E0281D801BC2
:1040B000385C7855681C85B24545F7DB4046BDE85D
:1040C000FC9FF0B505460B462C460021901C82B2A1
:1040D00007E014F8017B1046561CB2B21F54481C6E
:1040E00081B220780028F4D10E12501A801E1E547E
:1040F000501A401E19541046F0BD00001000000078
:1041000000100140250000000200000000040240F1
:10411000400006000700000002000000000402400A
:10412000800007000700000000000200004400407B
:104130002600000001000000000002400400020010
:10414000070000000100000000000240080003001A
:1041500007000000000004000048004027000000A5
:1041600008000000000C02400001080007000000E9
:1041700008000000000C02400002090007000000D7
:1041800000000800004C0040340000000400000063
:104190000008024000040A000800000004000000BB
:1041A0000008024000080B0008000000000010009A
:1041B00000500040350000000400000000080240EC
:1041C00000100C000800000008000000000C024075
:1041D000040002000800000020000000001401405C
:1041E00047000000040000000008024040000600F4
:1041F00008000000040000000008024080000700E2
:10420000080000001F1C1F1E1F1E1F1F1E1F1E1F39
:104210001F1D1F1E1F1E1F1F1E1F1E1F7B22534EF2
:10422000223A222573222C224657223A2225642242
:104230002C224543223A25642C224C4F223A222537
:1042400073222C224C41223A222573222C224454E0
:10425000223A222573222C224256223A252E3166FA
:104260002C2252535349223A222564222C225449AB
:104270004D45223A25642C2254564F43223A252E8E
:1042800032662C224154223A252E31662C22414896
:10429000223A252E31667D00B84201080000002038
:1042A0000001000018220108B843010800010020A5
:1042B000B80E00002822010800000000FFFFFFFFE9
:1042C000FFFFFFFF000000000000000000000000F2
:1042D00000000000000000000000000000000000DE
:1042E0000033392E3130342E36382E313939000032
:1042F000ADF000000000000000002C0100000000F4
:1043000000000000000000000000010000000000AC
:104310000000000036312E3136342E3231382E3145
:1043200035350000FF036A6563696E666F003171A1
:10433000617A327773782C2E002F41514D332E3015
:104340002F766F6373007570646174652E6A6563A0
:10435000000000000000000000000000000000005D
:10436000000000000000000000000000000000004D
:10437000000000000000000000000000000000003D
:104380000000000000000100000000010203040121
:104390000203040607080900007A030A000000006F
:1043A00000000000010203040607080900000000E5
:0843B000000000000000000005
:040000050801018964
:00000001FF
