:020000040801F1
:10000000A80F00209D0101086D1301085D13010870
:1000100069130108650D0108571F01080000000061
:10002000000000000000000000000000151601089C
:10003000110E010800000000111401080517010845
:10004000B7010108B7010108B7010108B7010108AC
:10005000B7010108B7010108B7010108B70101089C
:10006000B7010108B7010108B7010108B70101088C
:10007000B7010108B7010108B7010108B70101087C
:10008000B7010108B7010108B7010108B70101086C
:10009000B7010108B7010108B7010108B70101085C
:1000A000B7010108B7010108B7010108B70101084C
:1000B000B701010859180108B7010108B701010883
:1000C000B7010108B7010108B7010108B70101082C
:1000D000B7010108F51B0108CD1C0108691D0108C5
:1000E000B7010108B7010108B7010108B70101080C
:1000F000B7010108B7010108B7010108B7010108FC
:10010000B7010108B7010108B7010108B7010108EB
:10011000491B0108B7010108B7010108B70101082F
:10012000B7010108B7010108B7010108B7010108CB
:10013000B7010108B7010108B7010108B7010108BB
:10014000B7010108B7010108B7010108B7010108AB
:10015000B7010108B7010108B7010108B70101089B
:10016000B7010108B7010108B7010108B70101088B
:10017000B7010108B7010108B7010108B70101087B
:10018000B7010108B7010108DFF80CD000F0DEFA72
:1001900000480047892F0108A80F00200648804723
:1001A00006480047FEE7FEE7FEE7FEE7FEE7FEE75C
:1001B000FEE7FEE7FEE7FEE7B9170108890101083F
:1001C00038B5D0E90221491E01EB410102EBC10122
:1001D0004268C1EB011102EB81010268C1EB011120
:1001E00002EB8102D0E9043101EB410103EB810113
:1001F0003023A1F5527191FBF3F4174D6C4302EBE0
:10020000C41291FBF3F403FB141100921A2902DBD0
:10021000124B1A4400920C2291FBF2F3104C6343F0
:10022000009C04EBC313009391FBF2F302FB131148
:100230000C4A08E0491E40F2A324535C6343009C2F
:1002400004EBC31300930029F4DC0146684600F078
:100250007FF8009838BD00003F0C0F00805101006E
:1002600067C20300D63B0108D2B201E000F8012BBF
:10027000491EFBD270470022F6E710B513460A4626
:1002800004461946FFF7F0FF204610BD421C10F847
:10029000011B0029FBD1801A704700F0004230F0AA
:1002A00000400AD0C10D01F56071C0F3160042EAAA
:1002B0000151C208400711437047002001467047B2
:1002C00030B50B46014600202022012409E021FA26
:1002D00002F59D4205D303FA02F5491B04FA02F523
:1002E0002844151EA2F10102F1DC30BD2DE9F05FBA
:1002F0000546002092469B46884606468146402495
:100300001BE0284641464746224600F040FA534645
:100310005A46C01A914110D311461846224600F0A1
:1003200027FA2D1A67EB01084F46224601200021CB
:1003300000F01EFA17EB00094E41201EA4F1010443
:10034000DFDC484631462A464346BDE8F09F0000C0
:1003500010B500683C22B0FBF2F302FB1303B0FBC4
:10036000F2F00B60B0FBF2F302FB1303B0FBF2F010
:1003700018224B60B0FBF2F302FB1303B0FBF2F068
:10038000021D8B600723B2FBF3F403FB14228000F1
:1003900040F2B55300F66C308A61B0FBF3F2B0FB6B
:1003A000F3F403FB1400443280084A61C8613B281F
:1003B00002D3920700D0401C0022074C13460A616A
:1003C000E25C824203D8801A5B1C0B61F8E7401C98
:1003D000C860084610BD0000E23B01082DE9FE4F51
:1003E000804681EA0300C00F0C46009021F00041D6
:1003F00023F00045B8EB0200A94105D24046214652
:1004000090461C460B46024623F00040104347D05E
:10041000270DC7F30A00C3F30A510290401A019056
:1004200040286BDAC3F3130040F4801B0098924617
:1004300020B10023D2EB030A63EB0B0B0198594662
:10044000C0F14002504600F093F906460D46504672
:100450005946019A00F0ABF910EB08006141002405
:1004600087EA115284EAE7731A4340D0009A62B3D4
:10047000019A012A4FEA075215DC001B61EB0201C9
:100480004FF0004202EA0752CDE90042001C41F55C
:10049000801132462B4600F0ABF903B0BDE8F08F77
:1004A00040462146F9E7001B61EB0201001C41F5C3
:1004B000801300185B412018A2F5001747EB0301D9
:1004C00040EAD570B6196D4111E06D084FEA360665
:1004D00045EAC0754FEA0752001B61EB0201001CA0
:1004E00041F5801149084FEA300000195141324668
:1004F0002B4603B0BDE8F04F00F06BB90098012225
:1005000040000023D0EB020263EBE0730098214629
:100510004FEAE074B8EB000061EB0401E9E783F017
:1005200000435BE781F0004158E72DE9FE4F81EA87
:10053000030404F0004421F0004100944FF0000B4C
:1005400023F0004350EA01045ED052EA03045BD07A
:10055000C3F30A54C1F30A552C44A4F2F3340194B2
:10056000A0FB0254C1F3130141F48011C3F3130340
:1005700043F4801301FB024400FB034E840A970AF4
:1005800044EA815447EA8357A4FB076802958D0A21
:1005900005FB07854FEA932C04FB0C542705029DAD
:1005A0004FEA065847EA1637B5EB08056EEB070C1D
:1005B000870E920E47EA811742EA8312A7FB0201D7
:1005C000B6EB0B0164EB00042B0D43EA0C335E1811
:1005D00044EB1C50DA465146E7FB0201C5F3130415
:1005E0004FEA0B3343EA14534FEA0432019C43EAC7
:1005F0000603A4F10C040294009CCDE900B400F0C1
:10060000F7F803B0BDE8F08F00200146F9E72DE9C7
:10061000F04D81EA030404F0004B21F0004514463C
:100620004FF0000A23F0004150EA050220D054EABE
:1006300001021DD0C5F30A570246C5F31303C1F3E7
:100640001300C1F30A5640F4801543F48013A7EB5E
:100650000608101BD64608F2FD3873EB050002D3DE
:1006600008F1010801E092185B41B8F1000F03DACC
:1006700000200146BDE8F08D00204FF480110646B1
:1006800084460EE0171B73EB050705D3121B63EBC3
:10069000050306434CEA010C49084FEA3000921862
:1006A0005B4150EA0107EDD152EA030012D082EA21
:1006B000040083EA0501084305D0101BAB4106D2B4
:1006C0000122002306E000224FF0004302E06FF019
:1006D000010253101AEB06004CEB085110EB0A0014
:1006E00041EB0B01BDE8F04D00F073B8C1F30A52C5
:1006F000C1F3130140F2FF3341F480119A4202DA50
:1007000000200146704740F233439A42A2F233423E
:1007100002DC524200F03BB800F02AB830B5041EAB
:1007200071F1000404DB4FF00044404264EB01012E
:10073000141E73F1000405DB1C464FF000435242C7
:1007400063EB0403994208BF904230BD064C074D4D
:1007500006E0E06840F0010394E807009847103491
:10076000AC42F6D3FFF714FD6C3C01088C3C010849
:10077000202A04DB203A00FA02F100207047914061
:10078000C2F1200320FA03F3194390407047202A56
:1007900004DB203A21FA02F00021704721FA02F32B
:1007A000D040C2F120029140084319467047202AE8
:1007B00006DBCB17203A41FA02F043EAE07306E089
:1007C00041FA02F3D040C2F1200291400843194699
:1007D000704710B5141E73F1000408DA401C41F193
:1007E000000192185B411A4301D120F0010010BDB5
:1007F0002DE9F04D92469B4611B1B1FA81F202E02B
:10080000B0FA80F220329046FFF7B2FF04460F465E
:1008100040EA0A0041EA0B0153465A46084313D006
:10082000114653EA010019D0C8F140025046FFF7C3
:10083000AEFF05460E46504659464246FFF798FF22
:10084000084305D0012004E020463946BDE8F08D7C
:100850000020054346EAE0762C4337430A986305B7
:10086000E40AA0EB08000022FD0A44EA47540A30DB
:1008700002D500200146E9E7010510196941DDE9CB
:10088000084500196941BDE8F04DA2E770B50026A2
:1008900014A1174801F062FB0546002015490860C5
:1008A000002403E0002014490855641C1E2CF9DBC9
:1008B00029460F4801F0F4F94FF4967002F0A6F9BA
:1008C0000C480068401C0D490860084601680A4849
:1008D00001F07AF90848807D312800D101263046A0
:1008E00070BD000041542B43455245473F0D0A005F
:1008F00044030020AC00002080030020B000002052
:1009000070B505461BA11E4801F028FB06460020D5
:100910001C490860002403E000201B490855641CA2
:100920001E2CF9DB3146164801F0BAF940F6B83012
:1009300002F06CF913480068401C1449086008462E
:100940000168114801F040F90F48407F4F280FD14E
:100950000D48807F4B280BD1002405E004F10A00EC
:100960000949085C2855641C0F2CF7DB012070BD79
:100970000020FCE741542B4347534E0D0A00000072
:1009800044030020AC00002080030020B0000020C1
:1009900070B511A1134801F0E1FA05460020124993
:1009A0000860002403E0002010490855641C1E2C38
:1009B000F9DB29460B4801F073F94FF4FA6002F0B5
:1009C00025F909480068401C094908600846016883
:1009D000064801F0F9F870BD41542B43494D490DCB
:1009E0000A00000044030020AC0000208003002027
:1009F000B000002070B521A1254801F0AFFA0546EE
:100A0000002024490860002403E000202249085502
:100A1000641C1E2CF9DB29461D4801F041F96420B5
:100A200002F0F4F81B480068401C1C4908600846A6
:100A30000168194801F0C8F819A1154801F08EFAAB
:100A40000546002013490860002403E000201249F5
:100A50000855641C1E2CF9DB29460D4801F020F9CD
:100A6000642002F0D3F80B480068401C0B49086072
:100A700008460168084801F0A7F870BD41542B51A1
:100A800049434C4F53453D302C310D0A00000000C6
:100A900044030020AC00002080030020B0000020B0
:100AA00041542B514944454143543D310D0A000006
:100AB00070B5632620A1234801F050FA04460020B7
:100AC00021490860002503E00020204948556D1C9D
:100AD0001E2DF9DB21461B4801F0E2F84FF4FA60C5
:100AE00002F094F818480068401C1949086008464C
:100AF0000168164801F068F8052316A2124801683B
:100B0000124800F082FA04461049E01D085C2C28C7
:100B10000BD1A01D085C30380A46611D515C30398C
:100B200001EB810100EB410604E00849601D085C0F
:100B3000A0F13006304670BD41542B4353510D0A8D
:100B40000000000044030020AC00002080030020CF
:100B5000B00000204353513A2000000070B511A1AD
:100B6000144801F0FBF905460020134908600024F1
:100B700003E0002011490855641C1E2CF9DB2946AE
:100B80000C4801F08DF84FF4FA6002F03FF80A4883
:100B90000068401C0A49086008460168074801F0DF
:100BA00013F870BD41542B51494143543D310D0A56
:100BB0000000000044030020AC000020800300205F
:100BC000B000002070B511A1154801F0C7F9054625
:100BD000002014490860002403E000201249085551
:100BE000641C1E2CF9DB29460D4801F059F86420DD
:100BF00002F00CF80B480068401C0C4908600846DD
:100C00000168094800F0E0FF70BD000041542B511D
:100C100049434C4F53453D302C310D0A0000000034
:100C200044030020AC00002080030020B00000201E
:100C300070B511A1144801F091F90546002013493F
:100C40000860002403E0002011490855641C1E2C94
:100C5000F9DB29460C4801F023F84FF4FA6001F063
:100C6000D5FF0A480068401C0A4908600846016828
:100C7000074800F0A9FF70BD41542B514943534729
:100C8000503D310D0A00000044030020AC0000205C
:100C900080030020B00000202DE9F04105460E46FB
:100CA0002B46324620A1294801F058F9074600207A
:100CB00027490860002403E0002026490855641CE9
:100CC0001E2CF9DB3946214800F0EAFF4FF4FA60A8
:100CD00001F09CFF1E480068401C1F490860084640
:100CE00001681C4800F070FF1A4890F830004F2847
:100CF00009D1184890F831004B2804D10020174939
:100D00000870BDE8F08115480078401C1349087050
:100D100008460078052805DD0120114908800020DB
:100D20000E49087000BFECE741542B51494F504524
:100D30004E3D312C302C22544350222C222573223C
:100D40002C25642C302C310D0A00000044030020B7
:100D5000AC00002080030020B0000020E400002050
:100D60004400002000BFFEE770B502460B4600219C
:100D7000551C1C4605E015F8016B701881B2601E09
:100D800084B2002CF7DCC9B2C843401CC0B270BDAD
:100D900070B500240D25002601F03AFE70B321E065
:100DA0001748005DFF2802D0601CC4B21AE0144945
:100DB00008190B21FFF7D8FF0646114904F10C0072
:100DC000085CB0420BD121460D4801F071FE0020B5
:100DD0000C4908700C4908806019C4B201E0601C1D
:100DE000C4B200BF09480068092804DB074800684E
:100DF0000938A042D4DA00200449086070BD000020
:100E000074050020EE0000201C000020B800002027
:100E10007047000010B50B4800F0D6FF0A4800F0FC
:100E2000D3FF0A4800F074F9094800F071F9094845
:100E300000F06EF9084800F06BF9084800F0C4FFB4
:100E400010BD000000440040004800400000024087
:100E50000004024000080240000C02400010014063
:100E600030B10749096841F48061054A116005E025
:100E70000349096821F48061014A1160704700004C
:100E8000003C024070B504460A460026092502B916
:100E900009E0012A01D1160205E0022A01D1160259
:100EA00001E04FF4407600F09FF80546092D28D167
:100EB0001548006820F4407013490860084600682F
:100EC000304308600846006820F0F80008600846D3
:100ED000006844F0020108430B49086008460068B6
:100EE00040F48030086000F07FF80546064800684E
:100EF00020F00200044908600846006820F0F8006D
:100F00000860284670BD0000103C024009201349CB
:100F1000096801F48031B1F5803F01D101201CE066
:100F20000E49096801F0100109B1062015E00B49CE
:100F3000096801F4807109B102200EE007490968CF
:100F400001F0EF0109B1072007E00449096801F049
:100F5000020109B1082000E0092070470C3C024062
:100F60000348006840F000400149086070470000F5
:100F7000103C024030B502460C46092500F034F81A
:100F80000546092D19D10E48006820F440700C491F
:100F900008600846006840F4007008600846006871
:100FA00040F001000860146000F01EF80546044897
:100FB000006820F0010002490860284630BD0000AA
:100FC000103C02400548006800F0004028B1044889
:100FD00002490C390860034808607047103C024021
:100FE00023016745AB89EFCD08B509200090FFF7D5
:100FF0008DFF009002E0FFF789FF00909DF8000050
:101000000128F8D09DF8000008BD2DE9F041044604
:101010000D4616464FF0FF3000210022002700BF8A
:1010200013E00027002109E016F801C002EB0108D7
:1010300014F80880C44500D17F1C491C9942F3DB99
:101040009F4201D1104602E0521CAA42E9DB00BFD8
:10105000BDE8F0817CB500241A48007800061A49E2
:10106000097840EA01401949097840EA0120184905
:10107000097808431749086008460068164908605F
:101080000846164D2ECD001D2EC00E2114A000F0D6
:101090009BFD1148C06810498968CDE900100E48D1
:1010A000436813A10268184800F058FFC4B22146F3
:1010B000154800F089FD05220749144800F05EFA42
:1010C0007CBD000008000020090000200A0000206C
:1010D0000B0000200400002040020020300200200D
:1010E0000D0A20777269746520666C6173683A0036
:1010F000253038582C253038582C253038582C2598
:101100003038580D0A000000540200200000080882
:1011100010B504464148844208D10121084600F038
:1011200089F90021012000F085F976E03C488442ED
:1011300008D10121022000F07DF90021022000F0F9
:1011400079F96AE03748844208D10121042000F08F
:1011500071F90021042000F06DF95EE0324884420C
:1011600008D10121082000F065F90021082000F0D5
:1011700061F952E02D48844208D10121102000F08D
:1011800059F90021102000F055F946E02848844222
:1011900008D10121202000F04DF90021202000F08D
:1011A00049F93AE02348844208D10121402000F067
:1011B00041F90021402000F03DF92EE01E48844214
:1011C00008D10121802000F035F90021802000F0B5
:1011D00031F922E01948844208D10121801500F03C
:1011E00029F90021A01500F025F916E014488442E1
:1011F00008D10121401500F01DF90021601500F013
:1012000019F90AE00F48844207D10121001500F0C6
:1012100011F90021201500F00DF910BD0000024069
:101220000004024000080240000C0240001002408E
:101230000014024000180240001C0240002002403E
:101240000024024000280240F0B50A460021002395
:10125000002400BF3DE0012505FA01F3156805EA09
:1012600003049C4234D105684F000326BE40B543B9
:10127000056015794E00B54006683543056015795F
:10128000012D02D01579022D16D185684F00032655
:10129000BE40B543856055794E00B54086683543FC
:1012A0008560456801268E40B5434560456896795E
:1012B0008E40B6B235434560C5684F000326BE4038
:1012C000B543C560D5794E00B540C6683543C560A5
:1012D000491C1029BFD3F0BD41837047018370477B
:1012E00042694A404261704710B501F077FC4FF403
:1012F000967001F08BFCFFF74BFD0D4800780F282E
:1013000015DB11210BA000F05FFC9FED0F0A0F48C9
:1013100080ED000A9FED0C0A0D4880ED000A9FED5C
:101320000A0A0C4880ED000A01200B49088010BD14
:10133000EE0000200D0A23232373656E6F72206E6A
:101340006F2061636B0000000000000014000020AB
:10135000100000200C0000201C00002000BFFEE751
:1013600010B501F07DFC10BD00BFFEE77047000026
:1013700070B5002100230F22C4781CB3174C2468D9
:1013800004F4E064C4F5E064C4F30721C1F104048B
:10139000E3B20A4144789C40E1B28478144021438E
:1013A0000C07210E0E4C05786155047804F01F05DA
:1013B0000124AC4005786D11AD0005F1E025C5F8BC
:1013C000004109E0047804F01F050124AC40054DFC
:1013D0000678761145F8264070BD00000CED00E05F
:1013E00000E400E080E100E010B5002807DA0A0719
:1013F000140E054A00F00F031B1FD45403E00A0724
:10140000130E024A135410BD18ED00E000E400E092
:101410007047000029B1064A12680243044B1A6063
:1014200004E0034A12688243014B1A6070470000CF
:101430003038024029B1064A12680243044B1A6050
:1014400004E0034A12688243014B1A6070470000AF
:101450001038024029B1064A12680243044B1A6050
:1014600004E0034A12688243014B1A60704700008F
:101470004038024029B1064A12680243044B1A6000
:1014800004E0034A12688243014B1A60704700006F
:101490002038024029B1064A12680243044B1A6000
:1014A00004E0034A12688243014B1A60704700004F
:1014B0002438024001461C48814201D20020704776
:1014C0001A48814201D20820F9E71948814201D225
:1014D0001020F4E71748814201D21820EFE71648A0
:1014E000814201D22020EAE71448814201D228201B
:1014F000E5E71348814201D23020E0E711488142FC
:1015000001D23820DBE71048814201D24020D6E7E3
:101510000E48814201D24820D1E70D48814201D2D4
:101520005020CCE75820CAE700400008008000089F
:1015300000C00008000001080000020800000408C4
:10154000000006080000080800000A0800000C0857
:1015500000000E0830B503460C461546002206E092
:10156000184600F007F844F822001B1D521CAA423E
:10157000F6D330BD01460868704700002DE9F047FA
:1015800004460E4617464FF009080025A946B4F157
:10159000006F02D304F0030008B1BDE8F087FFF745
:1015A00011FD0020FFF75CFC254604EB8709184875
:1015B000854215D211E02846FFF7DCFF401C58B1E8
:1015C0002846FFF777FF82460221FFF75BFC804643
:1015D000B8F1090F01D002E02D1D4D45EBD300BF3E
:1015E000B8F1090F0CD108E020463168FFF7C2FCC2
:1015F000092800D003E0241D361D4C45F4D300BF5C
:101600000120FFF72DFCFFF7ABFC00BFC5E7000092
:101610000000FF1F704700000CB5002001900090F3
:101620003448006840F480303249086000BF3148D7
:10163000006800F4003000900198401C0190009870
:1016400010B901980028F2D12A48006800F400304F
:1016500010B10120009001E00020009000980128C6
:1016600046D124484030006840F080502149403144
:1016700008602148006840F440401F4908601D4848
:10168000083000681B49083108600846006840F4CB
:10169000004008600846006840F4A0500860174801
:1016A000091F0860081F006840F08070091F08606B
:1016B00000BF1048006800F000700028F9D040F228
:1016C00005700F4908600B480830006820F00300DF
:1016D0000849083108600846006840F002000860C8
:1016E00000BF04480830006800F00C000828F8D15A
:1016F0000CBD000000380240007000400854400754
:10170000003C024010B525480068401C2349086091
:10171000084600686421B0FBF1F201FB120050BBE7
:1017200000201E4908601E480088401C1C49088093
:101730001C480068401C1B490860194800883C2868
:1017400019DB19480088401C1749088000201449FB
:101750000880154800883C280DDB14480088401C90
:101760001249088008460088182801DB00200880FC
:1017700001200F490880094800686421B0FBF1F29C
:1017800001FB12000F2804D840210A48FFF7A4FDEE
:1017900003E040210748FFF7A1FD10BD9C00002099
:1017A00050000020180000205200002054000020AB
:1017B000560000200008024010B51548006840F4AB
:1017C0007000134908601348006840F00100114997
:1017D000086000200F49083108600E4800680E4973
:1017E00008400C4908600D48091D0860081F006882
:1017F00020F48020091F0860002006490C31086091
:10180000FFF70AFF064802498039086010BD000052
:1018100088ED00E000380240FFFFF6FE10300024A3
:1018200000000108012080F3138800BF00BFBFF350
:101830004F8F0748006800F4E06006490843001D28
:1018400003490860BFF34F8F00BF00BFFEE70000F1
:101850000CED00E00000FA0510B501211B4800F076
:1018600017F970B301F0C2F819480078322804DA89
:1018700017480078401C164908701548007832282F
:1018800015DB14480078052804DA12480078401C5B
:101890001049087000200E4908700F480088B0F504
:1018A000967F04DA0C480088401C0B4908800B48DE
:1018B0000088B0F57A7F04DA08480088401C0749A0
:1018C00008800121014800F00BF810BD0004004021
:1018D000A0000020A100002042000020A200002063
:1018E000CA430282704721B1028842F0010202809D
:1018F00004E002884FF6FE731A4002807047000031
:1019000010B504465548844208D101210846FFF726
:10191000C1FD00210120FFF7BDFD9DE0B4F1804F26
:1019200008D101210846FFF7A5FD00210120FFF79E
:10193000A1FD91E04A48844208D101210220FFF72D
:1019400099FD00210220FFF795FD85E0454884427E
:1019500008D101210420FFF78DFD00210420FFF7AD
:1019600089FD79E04048844208D101210820FFF731
:1019700081FD00210820FFF77DFD6DE03B4884429A
:1019800008D101211020FFF775FD00211020FFF77D
:1019900071FD61E03648844208D101212020FFF723
:1019A00069FD00212020FFF765FD55E031488442A4
:1019B00008D101210220FFF76DFD00210220FFF771
:1019C00069FD49E02C48844209D101210804FFF750
:1019D00061FD00214FF48030FFF75CFD3CE02748BB
:1019E000844209D101214804FFF754FD00214FF43E
:1019F0000030FFF74FFD2FE02148844209D101213B
:101A00008804FFF747FD00214FF48020FFF742FDD7
:101A100022E01C48844208D101214020FFF72AFD22
:101A200000214020FFF726FD16E01748844208D128
:101A300001218020FFF71EFD00218020FFF71AFD05
:101A40000AE01248844207D101218015FFF712FDF8
:101A50000021A015FFF70EFD10BD000000000140A1
:101A60000004004000080040000C0040001000404E
:101A700000140040000401400040014000440140C7
:101A80000048014000180040001C004000200040B9
:101A900030B50246002000230024158A05EA010320
:101AA000958905EA010413B10CB1012000E0002082
:101AB00030BD1AB183890B43838102E083898B4354
:101AC0008381704700220288184B98420ED0184B31
:101AD00098420BD0B0F1804F08D0164B984205D0F9
:101AE000154B984202D0154B984204D14FF68F7394
:101AF0001A404B881A43124B984207D0114B984218
:101B000004D04FF6FF431A400B891A4302804B68FA
:101B1000C3620B880385054B984202D0044B984260
:101B200001D18B7A03860123838270470000014034
:101B3000000401400004004000080040000C004088
:101B400000100040001400401448008800F02000FD
:101B500018B31248001D00881149124A12688854AF
:101B6000084610490968405C0A280BD101200E493B
:101B700008700C480068401C0C49086000200949A6
:101B800008600AE007480068401C064908600846EB
:101B90000068BE2801DB002008607047004C004050
:101BA000CC070020C4000020CC000020C80000208A
:101BB00000BF0449098801F040010029F9D001491A
:101BC000888070470010014010B503460C46002283
:101BD00000BF985CFFF7ECFF521CA242F9D300BF94
:101BE0000348008800F040000028F9D010BD000034
:101BF000001001401E48008800F02000002836D068
:101C00001B4880881B491C4A1268885408461A4998
:101C10000968405C75280BD140F22D1017490880E7
:101C200000201449144A12688854134908601EE0C1
:101C3000104811490968405C672803D10120104908
:101C4000087014E00B480C490968405C472803D130
:101C500002200B4908700AE007480068401C06494A
:101C60000860084600684F2801D3002008607047CC
:101C700000100140A4020020A40000204200002027
:101C80001E00002000BF0549098801F0400100291D
:101C9000F9D00249091D0880704700000044004047
:101CA00010B503460C46002200BF985CFFF7EAFF20
:101CB000521CA242F9D300BF0348008800F0400044
:101CC0000028F9D010BD00000044004010B540F2DB
:101CD0002551104800F0F0F8012814D10D48001DDE
:101CE0000088C1B20C4802680068401C0A4B1860AA
:101CF0000A48815418460068B0F5957F09DD002038
:101D00001946086005E0002240F22551014800F024
:101D1000FDF810BD00440040AC000020800300200E
:101D200000BF0549098801F040010029F9D00249A6
:101D3000091D0880704700000048004010B50346A8
:101D40000C46002200BF985CFFF7EAFF521CA2423B
:101D5000F9D300BF0348008800F040000028F9D004
:101D600010BD00000048004010B540F22551124857
:101D700000F0A2F8012817D110480068401C0F4954
:101D800008600D48001D0088C4B208460068C828D5
:101D900001DD0020086009480068401E08490C5415
:101DA00000200849087005E0002240F22551024851
:101DB00000F0ACF810BD000000480040B800002062
:101DC00074050020CD00002010B50446324884423E
:101DD00008D101211020FFF75DFB00211020FFF743
:101DE00059FB57E02D48844209D101214804FFF7EF
:101DF00041FB00214FF40030FFF73CFB4AE028484C
:101E0000844209D101218804FFF734FB00214FF4FB
:101E10008020FFF72FFB3DE02248844209D10121B9
:101E2000C804FFF727FB00214FF40020FFF722FB37
:101E300030E01D48844209D101210805FFF71AFB53
:101E400000214FF48010FFF715FB23E01748844270
:101E500008D101212020FFF71DFB00212020FFF7E2
:101E600019FB17E01248844209D101218807FFF7C6
:101E700001FB00214FF08040FFF7FCFA0AE00D481B
:101E8000844207D101214005FFF7F4FA00216005E3
:101E9000FFF7F0FA10BD00000010014000440040C0
:101EA00000480040004C0040005000400014014039
:101EB00000780040007C004070B5024600240023FA
:101EC0000025002040F66A16B14200D100BFC1F3E0
:101ED000421501F01F03012606FA03F3012D02D17A
:101EE0009689334006E0022D02D1168A334001E084
:101EF000968A33400C12012606FA04F41688344000
:101F000013B10CB1012000E0002070BDF0B5034614
:101F1000002400260025002040F66A17B94200D1AF
:101F200000BF1846C1F3421401F01F06012707FA4B
:101F300006F5012C01D10C3004E0022C01D1103047
:101F400000E014301AB107682F43076002E0076809
:101F5000AF430760F0BD00BFFEE700000FB4084BC1
:101F600010B504A902AA039800F0DEF8044602A9FD
:101F7000002000F070FC204610BC5DF814FB00004F
:101F80005728010802E008C8121F08C1002AFAD128
:101F900070477047002001E001C1121F002AFBD1E9
:101FA000704700002DE9FF5F82B00021DDE90430B9
:101FB000020DDDF840B0034318D044F61050A2F2F1
:101FC000FF3242431514119801281FD0A5EB0B00D6
:101FD000401C5FEA000A4FF000064E4FDFF83891D0
:101FE000B046504615D5CAF1000413E011980124FB
:101FF0004AA3012801D16FEA0B010298119AC0E9A6
:102000000031C0E9024206B0BDE8F09FCBF100000C
:10201000DFE704460021404A491842EB0450CDE96D
:10202000001012E0E00707D032463B4640464946E2
:10203000FEF77BFA8046894632463B4610461946F3
:10204000FEF773FA06460F466410002CEAD1DDE96C
:102050000401DDE90023BAF1000F06DAFEF765FAA4
:1020600042464B46FEF761FA05E0FEF7D0FA4246DB
:102070004B46FEF7CCFA04460E460022284BFEF7EC
:102080004DFB03D84FF0FF30014607E00022254BFF
:1020900020463146FEF7A2F9FEF728FB102409E09E
:1020A000002C0ADB0A220023FEF720F9039B3032C2
:1020B0001A55641E50EA0102F2D1641C039AC4F15D
:1020C00011031444119A012A03D0012208430DD1AF
:1020D0000AE0084304D000204FF0110B119072E782
:1020E000A3EB0B056D1E0DE05B4504DD4FF0000218
:1020F00005F1010504E003DA4FF00002A5F1010546
:10210000002AECD002981199C0E90231C0E90045DB
:1021100079E70000000014400000F03F30000000AC
:102120000000F0430000E03F2DE9FF4F95B09B46D3
:102130008946064600250FE2252877D10024274648
:10214000F84A0121059400E0044316F8013F203BC2
:1021500001FA03F01042F7D130782A2811D06FF03D
:102160002F033078A0F13002092A16D8059A44F0DE
:10217000020402EB820203EB42021044761C05903B
:10218000EFE759F8042B0592002A03DA504244F491
:102190000054059044F00204761C30782E2816D1A5
:1021A00016F8010F44F004042A280DD06FF02F0216
:1021B0003078A0F13003092B09D807EB870302EB35
:1021C0004303C718761CF3E759F8047B761C307874
:1021D0006C280FD006DC4C2817D068280DD06A2850
:1021E00014D104E0742810D07A280FD10DE044F403
:1021F00000140AE044F4801401E044F440147278BE
:10220000824202D104F58014761C761C3078662850
:102210000BD013DC582877D009DC002875D045286E
:10222000F6D04628F4D047281AD19DE118E063285B
:1022300035D0642879D0652812D195E1702873D003
:1022400008DC6728F1D069286FD06E280DD06F2880
:1022500006D1B5E073282CD0752875D0782874D0B5
:102260005A46179990476D1C75E1C4F30250022835
:1022700009D003280DD0D9F8001004280DD00D6026
:1022800009F1040967E1D9F80010EA17C1E9005221
:10229000F6E7D9F800100D80F2E70D70F0E719F8B5
:1022A000041B8DF8001000208DF80100EA46012083
:1022B00003E059F804AB4FF0FF3061074FF0000125
:1022C00002D40DE008F101018846B9420FDA8045D9
:1022D000F8DB1AF808100029F4D108E008F1010130
:1022E00088468142FADB1AF808100029F6D10598D1
:1022F0005B46A0EB080721463846179A00F094FA8F
:10230000284400EB080507E04DE029E10DE01AF84C
:10231000010B5A4617999047B8F10108F7D25B466E
:1023200021463846179A13E142E00A220092C4F38C
:1023300002524FF0000A022A08D059F804CB032AAF
:102340004FEAEC710AD00DE029E02AE009F107011B
:1023500021F00702F2E802C1914609E00FFA8CFC75
:102360004FEAEC71042A03D14FFA8CFC4FEAEC716E
:10237000002907DA0A460021DCF1000C61EB0201BA
:102380002D2202E0220504D52B228DF80420012203
:1023900003E0E20701D02022F7E7904659E00A2146
:1023A00002E010220DE010214FF0000A00910BE036
:1023B00010224FF0000A44F004040827009203E0C2
:1023C00008224FF0000A0092C4F30252022A05D0FC
:1023D00059F804CB0021032A08D009E009F10701CC
:1023E00021F00702F2E802C1914605E01FFA8CFCD9
:1023F000042A01D10CF0FF0C4FF00008220728D569
:10240000702806D0009B83F0100353EA0A0305D01E
:102410000EE040228DF80420012208E05CEA01026F
:1024200006D030228DF804208DF805000222904657
:10243000009B83F0080353EA0A030AD15CEA010215
:1024400001D1620705D530228DF804204FF0010834
:102450007F1E582804D034A003900EA802900DE0EF
:1024600036A0F9E753466046009AFDF73FFF8446E1
:102470000398825C0298401E029002705CEA0100A0
:10248000F0D1029806A9081A00F1200A600702D5C7
:1024900024F4803400E00127574502DDA7EB0A0051
:1024A00000E0002000EB0A01009005984144401A2A
:1024B0000590E00306D45B462146179A059800F084
:1024C000B3F90544002706E001A85A46C05D1799F4
:1024D00090476D1C7F1C4745F6DBE0030CD55B463F
:1024E0002146179A059800F09FF9054404E0302032
:1024F0005A46179990476D1C0099481E0090002974
:10250000F5DC08E0029802995A460078491C0291CD
:10251000179990476D1CBAF10001AAF1010AF1DC8C
:1025200065E1000009280100303132333435363797
:10253000383961626364656600000000303132330F
:1025400034353637383941424344454600000000AF
:1025500000F058F90544761C307800287FF4ECAD83
:1025600019B02846BDE8F08F620700D4062709F1AC
:10257000070222F0070CFCE80223E14603F00048C2
:102580005FEA080C02D00FF2702C0DE05FEA045CE9
:1025900002D50FF2682C07E05FEAC47C02D00FF28C
:1025A000602C01E0AFF2700C4FF0FF3823F00043D5
:1025B000CDF850C065280CD006DC452809D0462847
:1025C0001DD047283DD13DE0662818D067287ED130
:1025D00038E00021112F01DB112000E0781CCDE94B
:1025E000000106A90EA8FFF7DDFCDDE90F010E9A38
:1025F00003910021009207F1010A04914DE04FF090
:1026000000400097CDE9011006A90EA8FFF7CAFC0B
:10261000DDE90F0203920E9B11990022DDF80CA058
:102620000093049211B9791C00EB010AB7EB0A0080
:1026300004D4C0F1FF3007F1010A0490AAEB0700AF
:10264000019044E0012F00DA01270021112F01DD64
:10265000112000E03846CDE9000106A90EA8FFF7D9
:10266000A1FCDDE90F010E9A039100210491009273
:10267000BA4621070CD40399514500DA8A46BAF1CB
:10268000010F05DD009AAAF10101515C302908D043
:10269000B84202DA10F1040F06DA0121CDE9011087
:1026A00015E0AAF10101E9E7002805DC04990144DD
:1026B0000491AAEB000102E0411C514500DD8A466D
:1026C0000499401A401C01904FF0004002902007EE
:1026D00004D40198504501DBCDF8048000208DF82A
:1026E0004F0002980DF14F07B0F1004F25D02B207D
:1026F0000E9002984FF0020800280CDA4042029037
:102700002D200E9007E00A210298FDF7D9FD303107
:10271000029007F8011DB8F10001A8F10108F2DCF0
:1027200002980028EFD1791E0E980870307800F0DA
:10273000200040F0450007F8020D12A8C01B00F170
:1027400007081498007800B1012000EB0A010198F5
:1027500001EBE07105984144401A401E0590E003EA
:1027600006D45B462146179A059800F05DF80544AB
:102770001498007818B15A46179990476D1CE003D9
:1027800024D55B462146179A059800F04DF805447C
:102790001CE00498002807DBDDE90301884203DD23
:1027A0000098405C179901E0179930205A469047ED
:1027B000049805F10105401C04900198401E019009
:1027C00004D12E205A46179990476D1CBAF100018A
:1027D000AAF1010ADDDC05E017F8010B5A4617994A
:1027E00090476D1CB8F10001A8F10108F4DC5B46CC
:1027F0002146179A0598ABE62D0000002B0000003B
:10280000200000002DE9F041044600251E46174631
:10281000880404D405E039462020B0476D1C641EAE
:10282000F9D52846BDE8F0812DE9F04104460025A0
:102830001E469046C80301D5302700E020278804B3
:1028400004D505E041463846B0476D1C641EF9D5F5
:102850002846BDE8F0810A68531C0B601070704771
:1028600010B5002401222F492F48FEF773FE2F4890
:1028700000782F490978884203D02D4800782B49E9
:1028800008702B49087800EBD0714910A0EB41018A
:1028900011B955202749087022480068401C0028BB
:1028A0003DD020480068000E204908701D4800688F
:1028B000000C214908701B480088000A1D49087057
:1028C000184800781D49087016481DA10268214863
:1028D000FFF744FBC4B221461E48FFF775F91748BD
:1028E0000078FF2804D10E211BA0FFF76DF916E038
:1028F00012480078EE2807D10C211CA0FFF764F9DC
:10290000FF200E4908700AE00C480078552806D1CF
:10291000FF200A490870102118A0FFF755F9FEF7AB
:1029200099FB10BD040000200000080808000020EA
:10293000000000200A000020090000200B000020F9
:102940000D0A666C6173685F666C67733A30782550
:1029500030385800540200200D0A6E6F20757064E4
:1029600061746520696E666F000000000D0A757065
:102970006461746520657272000000000D0A757054
:102980006461746520737563636573730000000090
:10299000014600200A78302A06DB0A78392A03DC4F
:1029A0000A781207100E09E00A78612A06DB0A7815
:1029B000662A03DC0A78D21F1207100E4A78302AE2
:1029C00007DB4A78392A04DC4A7802F00F02104308
:1029D0000AE04A78612A07DB4A78662A04DC4A78EA
:1029E000D21F02F00F021043704700000648007823
:1029F000052807DA04480078401C034908700120C4
:102A00000249087070470000CD000020CE00002071
:102A100008480078052801DA002070470648007849
:102A2000012804D10020044908700120F5E70020A6
:102A3000F3E70000CD000020CE0000202DE9F0419A
:102A40000746884615461E46002413E0601CC4B2A3
:102A50004FF47A7000F0DAF8082111A0FFF7B4F80B
:102A6000A4F13001C8B2FFF7A3F8052C02DD012064
:102A70000E4908803846FDF743FF0028E6D0FDF7F1
:102A800087FFFEF715F83070FEF7D2F8FEF766F80C
:102A900041462846FEF700F9FEF794F8BDE8F081BC
:102AA0000D0A534E204552523A00000044000020C7
:102AB000CA1D835C8A1D825C43EA022200EE102A52
:102AC000B8EEC00A3C4A3D4B1B7802EB830282ED14
:102AD000000A01F10902835C521E825C43EA022271
:102AE00000EE102AB8EEC00ADFED350A80EE201A9B
:102AF000344A82ED001A01F10B02835C521E825CA3
:102B000043EA022200EE102AB8EEC00ADFED2C0ADA
:102B100080EE201A2C4A82ED001A274A274B1B7898
:102B200002EB830292ED000ADFED280A20EE200A74
:102B3000214A224B1B7802EB830282ED000A1E4AD7
:102B40001E4B1B7802EB830292ED000A204AD2ED65
:102B5000000A30EE200A184AD2ED140A30EE600A5C
:102B60001B4A82ED000A00221A4B1A701A4B1A7087
:102B7000124A1278521C142A05DB0F4A92ED000A01
:102B800082ED140A0AE00C4B0C4A1278521C03EB3B
:102B9000820292ED000A1A4682ED140A074A127860
:102BA000132A05DA054A1278521C044B1A7002E007
:102BB0000022024B1A707047500B0020EF000020DB
:102BC0000000C8421000002014000020CDCC4C3D75
:102BD0000C000020A1000020A00000200EB507A2DC
:102BE00007CA8DE8070009216846FFF7A7F80648DD
:102BF0000078401C044908700EBD0000FF018700EA
:102C00000000000078000000EE000020002107E036
:102C100048F2D04100BF0A1EA1F1010399B2FAD1D6
:102C2000021EA0F1010398B2F2D1704710B50A4814
:102C30000021016001710948006860B9E02006497F
:102C40000870002048700221034800F0FDFC4FF09E
:102C5000FF300249086010BD5C090020E800002038
:102C60001CB501213020FEF7D5FB04200090012087
:102C70008DF8040000208DF806008DF805008DF811
:102C8000070069462148FEF7DFFA10200090012076
:102C90008DF8040000208DF806008DF805008DF8F1
:102CA000070069461948FEF7CFFA2020009001205E
:102CB0008DF8040000208DF806008DF805008DF8D1
:102CC000070069461148FEF7BFFA10200090012066
:102CD0008DF8040000208DF806008DF805008DF8B1
:102CE000070069460A48FEF7AFFA04210748FEF7D5
:102CF000F3FA10210548FEF7F1FA20210348FEF708
:102D0000EDFA10210248FEF7E9FA1CBD001002405E
:102D1000001402401CB501214020FEF77BFB00207F
:102D20008DF8060001208DF804008DF807000820BA
:102D3000009002208DF8050069462848FEF784FAC5
:102D400008212648FEF7C8FA00208DF80600012069
:102D50008DF8040000208DF807004FF480400090AB
:102D600002208DF8050069461C48FEF76DFA4FF405
:102D700080411A48FEF7B0FA00208DF806000120C5
:102D80008DF8040000208DF807004FF4805000906B
:102D900002208DF8050069461048FEF755FA4FF4F9
:102DA00080510E48FEF798FA00208DF806000120A9
:102DB0008DF8040000208DF807004FF400600090AB
:102DC00002208DF8050069460548FEF73DFA4FF4EC
:102DD00000610348FEF780FA1CBD000000180240A5
:102DE000000C024010B508211E48FEF775FA4FF49A
:102DF00080411C48FEF770FA4FF47A70FFF706FF27
:102E00004FF480511748FEF769FA4FF4FA60FFF764
:102E1000FDFE4FF480511348FEF75EFA4FF4FA704E
:102E2000FFF7F4FE08210F48FEF758FA4FF4FA7046
:102E3000FFF7ECFE4FF480410A48FEF74FFA4FF4DB
:102E40007A70FFF7E3FE4FF480410648FEF744FA3C
:102E500040F6B830FFF7DAFE40F6B830FFF7D6FE9E
:102E600010BD0000001802407FB505460C46012148
:102E70000220FEF7EFFA1D208DF80C0003208DF8DC
:102E80000D0001208DF80E008DF80F0003A8FEF74D
:102E90006FFA0195ADF800400020ADF80800ADF8DC
:102EA000020069460648FEF70DFE0122114604485D
:102EB000FEF7FFFD01210248FEF715FD7FBD000072
:102EC0000004004010B510212D48FEF705FA20211E
:102ED0002B48FEF701FA10212A48FEF7FDF94FF4BE
:102EE0007A70FFF793FE10212548FEF7F7F92021AD
:102EF0002348FEF7F3F910212248FEF7EFF94FF4CB
:102F00007A70FFF783FE10211D48FEF7E5F92021B6
:102F10001B48FEF7E1F910211A48FEF7DDF94FF4DE
:102F20007A70FFF773FE10211548FEF7D7F92021BC
:102F30001348FEF7D3F910211248FEF7CFF94FF4EA
:102F40007A70FFF763FE10210D48FEF7C5F92021C6
:102F50000B48FEF7C1F910210A48FEF7BDF94FF4FE
:102F60007A70FFF753FE10210548FEF7B7F92021CC
:102F70000348FEF7B3F910210248FEF7AFF910BD80
:102F800000100240001402402DED088B92B0FEF7B5
:102F900013FC4FF4407101F00702B74B18684FF66D
:102FA000FF031840B54B034343EA0220B24B1860BD
:102FB00000BF0021481EFEF717FAB14800686421DF
:102FC000B0FBF1F6701EB0F1807F00D30FE0701EF1
:102FD0004FF0E02148610F214FF0FF30FEF704FA77
:102FE00000204FF0E02188610720086100BFFDF755
:102FF00011FF41F61F413120FFF736FFFEF7B0F910
:10300000FFF788FEFFF7EEFEFFF72AFCFFF75AFFF7
:103010004FF47A70FFF7FAFD9A4B9B489B49026880
:103020000EA8FFF70BFD0A20FFF7F0FD002000F0CF
:1030300095F9974908801DE19548008800BB95489F
:103040000088B0F5967F1BDB93480088C0B901204B
:10305000914908800020914908808E490880904855
:10306000008800908F4803888F4802888FA1954878
:10307000FEF774FFC5B229469248FEF7A5FD0DE0A4
:1030800083480088012809D1002081490880012057
:1030900000F064F910B101207D4908807E48008865
:1030A00001287DD110218848FEF716F9874800686D
:1030B000FDF7F3F841EC180B85480068FDF7EDF8D3
:1030C00041EC190B83480068FDF7E7F841EC1A0B57
:1030D00081480068FDF7E1F841EC1B0B8DED0C8B8E
:1030E0008DED0A9B8DED08AB7C4800686549097839
:1030F000CDE906108DED04BB79487A4A7A497B4BBD
:103100001B88CDE90031CDE90220794803780EAA69
:1031100078497948FEF722FF784908605B495A48A8
:103120000068FDF7B9FD0020034602460EA9009095
:10313000734800F009FA7148008800B26E49002215
:103140000123CDE90021029011466EA000F018FB8A
:103150000EAA70A17248FEF701FFC5B2664B0022AD
:1031600029466F4800F0ACFB002841DD6C4800F0B8
:1031700075FCFFF75BFD06236AA2FA215E48FDF7A6
:1031800044FFC5B2FF2D33D06848FEF71DFE6848E6
:10319000FEF71AFE6748FEF7B3FB6748002100E020
:1031A00031E0016041608160C160002414E020468C
:1031B00004EBD0714910A4EB410159B94E4929449F
:1031C0002144881DFFF7E4FB264604EBD671491025
:1031D000594A5054A01CC4B2202CE8DB5520574952
:1031E0000870FDF737FF5648FEF7EEFDFEF71AFBB5
:1031F000FFF71CFDFDF7E6FC0020274908801021A1
:103200003148FEF76BF84F48007804280CDD0421A4
:103210004D48FEF765F80A214CA0FEF7D5FCFEF7F5
:1032200063F80020474908704B480088012821D1E5
:1032300010214548FEF750F8FDF7DCFB0020464919
:103240000880FFF7CFFD4FF47A60FFF7DFFC4FF403
:103250007A60FFF7DBFC4FF47A60FFF7D7FC094B8D
:1032600009480A4902680EA8FFF7E8FB1021364812
:10327000FEF734F8E0E600000CED00E00000FA058F
:10328000D00000204000002038000020290000204D
:10329000560000204200002048000020A20000202C
:1032A00050000020520000205400002074696D6519
:1032B000203D202532643A2532643A2532640D0AD5
:1032C00000000000540200200014024014000020FE
:1032D000100000200C0000203C00002018000020FE
:1032E0002400002013010020080100201C00002001
:1032F00000000020F03B01081D01002058000020C4
:10330000F00000206A6563696E666F2F766F6373E5
:1033100000000000636F6D6D616E642F2573000007
:10332000170200207570646174650000004400405D
:103330000048004000040040300200200900002046
:1033400000100140A1000020001002406765746475
:103350006174610D0A000000440000207CB5054640
:103360000024002612E0052E0ADD0F215DA0FEF7E5
:103370002BFCFFF737FD0DB9002601E001207CBDD5
:10338000701CC6B24FF44870FFF740FCFDF77EFAA0
:103390000128E8D157A15A48FEF7E0FD0446002075
:1033A00058490860002403E0002057490855641C70
:1033B0001E2CF9DB21465248FEF772FC4FF4966052
:1033C000FFF724FC4F480068401C504908604E48F5
:1033D00090F82C004F287DD14B4890F82D004B28B9
:1033E0007ED1494880782B287AD14748007D3038F3
:1033F0004549C97C303901EB810100EB410044496A
:1034000008804148C07D30383F49897D303901EB23
:10341000810100EB41000C2190FBF1F201FB120055
:103420003C4908803848807E30383749497E3039F9
:1034300001EB810100EB4100374908803248407FB1
:1034400030383149097F303901EB810100EB41000F
:10345000182190FBF1F201FB1200304908802A4844
:1034600090F8200030382849C97F303901EB8101BC
:1034700000EB41002A490880234890F823003038A7
:10348000214991F82210303901EB810100EB410014
:1034900024490880084600880090214803881F4876
:1034A000028821A12648FEF759FD04461D480088E0
:1034B0001B490988CDE9001018480388164802887E
:1034C000144801881248008800F0DCF91D490860A2
:1034D000214600E004E01A48FEF776FB00204EE7A4
:1034E00001204CE7237265737461727420677072F7
:1034F000730D0A0041542B43434C4B3F0D0A00000F
:1035000044030020AC00002080030020B000002015
:103510004A0000204C0000204E00002054000020F3
:10352000520000205000002074696D65203D202568
:1035300032643A2532643A2532640D0A00000000F4
:1035400054020020180000202DE9FE4F83468A46D1
:103550001D460C9F052434A207CA8DE807004FF4CE
:10356000FA713448FCF787FE4FF000080AE01DF8B6
:1035700008202046611CCCB22E490A5408F10100F3
:1035800000F0FF08B8F1090FF1DB022625B146F083
:1035900080060FB146F040062046611CCCB225499A
:1035A0000E5400222046611CCCB222490A54142237
:1035B0002046611CCCB21F490A5452461EA15846EF
:1035C000FEF7CCFC22461B49584600F0E8FAC4B28C
:1035D00065B122461749284600F0E1FAC4B22FB17E
:1035E00022461449384600F0DAFAC4B2601F82B2AB
:1035F0001049102000F082FA8146B9F1000F0CDD6D
:103600000C480078202808D10A48C07828B9002042
:103610000C4908600120BDE8FE8F4FF0FF300949DA
:1036200008600020F7E7000000064D514973647000
:10363000030000005C0900204A6563696E666F251F
:1036400073000000E80000202DE9F0439FB007461A
:103650008846782101A8FCF70EFE42463CA101A84D
:10366000FEF77CFC1FFA80F9494601A8FEF718FB1B
:1036700000203C490860002504E000203A494855F4
:10368000681C85B21E2DF8DB41F28830FFF7BEFAC8
:1036900034480068401C35490860084601683248D3
:1036A000FEF792FA00202F490860002504E0002070
:1036B0002D494855681C85B21E2DF8DB4146384619
:1036C000FEF7EEFA4FF4FA60FFF7A0FA254800681B
:1036D000401C26490860084601682348FEF774FA32
:1036E00020480068002830DD072321A21D4801681A
:1036F0001D48FDF78AFC04B2002C26DD04231EA21F
:10370000184801681848FDF780FC04B2002C1ADD47
:10371000601E04B2002607E0E0B20C3030441249CB
:10372000085CB855701C06B20E480068001B0E38C5
:10373000B042F1DCE0B20B490988081A0E3800B239
:103740001FB0BDE8F0830020FAE74FF0FF30F7E745
:1037500041542B514953454E443D302C25640D0AAC
:1037600000000000AC00002080030020B00000201A
:1037700053454E44204F4B007265637600000000B5
:103780002DE9FF5F8A46904699464FF4FA71364814
:10379000FCF771FD10981FFA80FB132133A0FEF790
:1037A00013FA3748006800285CD10098FCF76EFDDA
:1037B000C01D5844B0F5FA7F03D9002004B0BDE81D
:1037C000F09F052422462849009800F0E8F90446B5
:1037D000B8F1000F0BDD01222046611C8CB222499A
:1037E0000A542046611C8CB21F4901F80090002742
:1037F00008E00F98C25D2046611C8CB21A490A5439
:10380000781C87B25F45F4DB3025BAF1000F01D098
:1038100045F008050E9808B145F00105B8F1020F12
:1038200014D145F00405601F82B20F49284600F00C
:1038300065F90646002E15DD0B480078502811D199
:103840000948C07848450DD10120B7E7601F82B212
:103850000549284600F052F906460EB90120ADE7A9
:103860000020ABE70020A9E75C0900200D0A4040DA
:103870004040205075626C69736820646174610017
:10388000E80000202DE9F0438BB004460D461646B3
:103890001F46DDE912892C216846FCF7ECFC04F197
:1038A00064000590681E049003960297CDF804808A
:1038B000CDF800906846FCF783FC0BB0BDE8F083C0
:1038C0002DE9FF5F81460E4692461F464FF0000BE2
:1038D00005254FF00008002003904FF4FA7150487E
:1038E000FCF7C9FC4F48006800287CD14846FCF72B
:1038F000CDFC0930B0F5FA7F03D9A81F04B0BDE8AC
:10390000F09F49480088401C4749088008460088C5
:1039100008B9012008804448008802122846691C22
:103920008DB23F490A54404802782846691C8DB23E
:103930003B490A542A46484600F031F905462846D4
:10394000691C8DB2364901F800A0681F82B282203E
:1039500000F0D4F88046B8F1000F5ADD3048007806
:10396000902856D12E48C0782F490978884250D1E6
:1039700013212EA0FEF728F9B8F1070F47DD2848DC
:10398000807F00F0F000302841D1002406E004F1EF
:1039900022002349085C0855601C04B2A8F12200EB
:1039A000A042F4DC00201E49085533464A464FF435
:1039B000FA711B48FDF729FB0FFA80FBBBF1000FE2
:1039C00025D1002405E030191549085C3855601CE4
:1039D00004B2A8F12200801BA042F4DC002038557C
:1039E000022117A000E014E0FEF7EEF82146384669
:1039F000FEF7EAF8012003A9CDE900010346002201
:103A0000114602904846FFF7BBFE204676E70020AD
:103A100074E714210BA0FEF7D7F84FF0FF306DE7E5
:103A20005C090020E8000020EC0000200D0A404066
:103A3000404020537562736372696265206F6B004A
:103A40000D0A00000D0A4040404020537562736328
:103A500072696265206572720000000070B50646EA
:103A600005244FF4FA712248FCF705FC2148006850
:103A700000283BD13046FCF709FC0930B0F5FA7F4D
:103A800001D9002070BD1C480088401C1A490880DC
:103A90000846008808B901200880174800880212EB
:103AA0002046611C8CB212490A5413480278204601
:103AB000611C8CB20E490A542246304600F06FF861
:103AC0000446601F82B20A49A22000F017F805469A
:103AD000002D0BDD06480078B02807D10448C078D7
:103AE00005490978884201D10120CBE70020C9E7C8
:103AF0005C090020E8000020EC0000202DE9FC5FBC
:103B000082460F4691460026002000904C46002534
:103B100000BF2046E11704EB5161C911A4EBC111AC
:103B200001F0FF0BE11704EB5161C1F3CF14002C3E
:103B300001DD4BF0800B0098411CC9B2009101A936
:103B400001F800B0701CC6B2002CE2DCC6F1040023
:103B500007F800A0002507E001A8405DC6F10501B7
:103B600029447854681C85B2B542F5DB09F101029D
:103B7000324491B23A1D901BFFF766FD8046B8F1C2
:103B8000000F09DD002505E0281D801B385C7855F5
:103B9000681C85B24545F7DB4046BDE8FC9FF0B5A3
:103BA00005460B462C460021901C82B207E014F813
:103BB000017B1046561CB2B21F54481C81B22078BB
:103BC0000028F4D10E12501A801E1E54501A401EA6
:103BD00019541046F0BD1F1C1F1E1F1E1F1F1E1F45
:103BE0001E1F1F1D1F1E1F1E1F1F1E1F1E1F00002A
:103BF0007B22534E223A222573222C224657223A08
:103C0000222564222C224543223A25642C224C4F43
:103C1000223A222573222C224C41223A2225732259
:103C20002C224454223A222573222C224256223A34
:103C3000252E31662C2252535349223A22256422E2
:103C40002C2254494D45223A25642C2254564F4388
:103C5000223A252E32662C224154223A252E3166F4
:103C60002C224148223A252E31667D008C3C0108E9
:103C700000000020F0000000841F01087C3D0108C6
:103C8000F0000020B80E0000941F010800000000A2
:103C9000FFFFFFFFFFFFFFFF00000000000000002C
:103CA0000000000000000000000000000000000014
:103CB000000000000033392E3130342E36382E31DA
:103CC00039390000ADF000000000000000000000E5
:103CD00000000000000000000000000000000100E3
:103CE000000000000000000036312E3136342E3244
:103CF00031382E3135350000FF036A6563696E6621
:103D00006F003171617A327773782C2E002F415118
:103D10004D332E302F766F63730075706461746558
:103D20002E6A656300000000000000000000000033
:103D30000000000000000000000000000000000083
:103D40000000000000000000000000000000000073
:103D5000000000000000000000000100007A030ADB
:103D6000000000000000000001020304060708092B
:0C3D700000000000000000000000000047
:040000050801018964
:00000001FF
