:020000040800F2
:10000000F01300209D010008BF0D0008B70D000887
:10001000BB0D0008290C0008F516000800000000C0
:10002000000000000000000000000000AD0F00080C
:10003000C10C000800000000610E00089D100008BF
:10004000B7010008B7010008B7010008B7010008B0
:10005000B7010008B7010008B7010008B7010008A0
:10006000B7010008B7010008B7010008B701000890
:10007000B7010008B7010008B7010008B701000880
:10008000B7010008B7010008B7010008B701000870
:10009000B7010008B7010008B7010008B701000860
:1000A000B7010008B7010008B7010008B701000850
:1000B000B7010008C9110008B7010008B70100081E
:1000C000B7010008B7010008B7010008B701000830
:1000D000B7010008BD1300086D14000809150008D9
:1000E000B7010008B7010008B7010008B701000810
:1000F000B7010008B7010008B7010008B701000800
:10010000B7010008B7010008B7010008B7010008EF
:1001100011130008B7010008B7010008B701000873
:10012000B7010008B7010008B7010008B7010008CF
:10013000B7010008B7010008B7010008B7010008BF
:10014000B7010008B7010008B7010008B7010008AF
:10015000B7010008B7010008B7010008B70100089F
:10016000B7010008B7010008B7010008B70100088F
:10017000B7010008B7010008B7010008B70100087F
:10018000B7010008B7010008DFF80CD000F0DEFA74
:1001900000480047D1250008F0130020064880479A
:1001A00006480047FEE7FEE7FEE7FEE7FEE7FEE75C
:1001B000FEE7FEE7FEE7FEE761110008890100089F
:1001C00038B5D0E90221491E01EB410102EBC10122
:1001D0004268C1EB011102EB81010268C1EB011120
:1001E00002EB8102D0E9043101EB410103EB810113
:1001F0003023A1F5527191FBF3F4174D6C4302EBE0
:10020000C41291FBF3F403FB141100921A2902DBD0
:10021000124B1A4400920C2291FBF2F3104C6343F0
:10022000009C04EBC313009391FBF2F302FB131148
:100230000C4A08E0491E40F2A324535C6343009C2F
:1002400004EBC31300930029F4DC0146684600F078
:100250007FF8009838BD00003F0C0F00805101006E
:1002600067C20300642F0008D2B201E000F8012B3E
:10027000491EFBD270470022F6E710B513460A4626
:1002800004461946FFF7F0FF204610BD421C10F847
:10029000011B0029FBD1801A704700F0004230F0AA
:1002A00000400AD0C10D01F56071C0F3160042EAAA
:1002B0000151C208400711437047002001467047B2
:1002C00030B50B46014600202022012409E021FA26
:1002D00002F59D4205D303FA02F5491B04FA02F523
:1002E0002844151EA2F10102F1DC30BD2DE9F05FBA
:1002F0000546002092469B46884606468146402495
:100300001BE0284641464746224600F040FA534645
:100310005A46C01A914110D311461846224600F0A1
:1003200027FA2D1A67EB01084F46224601200021CB
:1003300000F01EFA17EB00094E41201EA4F1010443
:10034000DFDC484631462A464346BDE8F09F0000C0
:1003500010B500683C22B0FBF2F302FB1303B0FBC4
:10036000F2F00B60B0FBF2F302FB1303B0FBF2F010
:1003700018224B60B0FBF2F302FB1303B0FBF2F068
:10038000021D8B600723B2FBF3F403FB14228000F1
:1003900040F2B55300F66C308A61B0FBF3F2B0FB6B
:1003A000F3F403FB1400443280084A61C8613B281F
:1003B00002D3920700D0401C0022074C13460A616A
:1003C000E25C824203D8801A5B1C0B61F8E7401C98
:1003D000C860084610BD0000702F00082DE9FE4FD0
:1003E000804681EA0300C00F0C46009021F00041D6
:1003F00023F00045B8EB0200A94105D24046214652
:1004000090461C460B46024623F00040104347D05E
:10041000270DC7F30A00C3F30A510290401A019056
:1004200040286BDAC3F3130040F4801B0098924617
:1004300020B10023D2EB030A63EB0B0B0198594662
:10044000C0F14002504600F093F906460D46504672
:100450005946019A00F0ABF910EB08006141002405
:1004600087EA115284EAE7731A4340D0009A62B3D4
:10047000019A012A4FEA075215DC001B61EB0201C9
:100480004FF0004202EA0752CDE90042001C41F55C
:10049000801132462B4600F0ABF903B0BDE8F08F77
:1004A00040462146F9E7001B61EB0201001C41F5C3
:1004B000801300185B412018A2F5001747EB0301D9
:1004C00040EAD570B6196D4111E06D084FEA360665
:1004D00045EAC0754FEA0752001B61EB0201001CA0
:1004E00041F5801149084FEA300000195141324668
:1004F0002B4603B0BDE8F04F00F06BB90098012225
:1005000040000023D0EB020263EBE0730098214629
:100510004FEAE074B8EB000061EB0401E9E783F017
:1005200000435BE781F0004158E72DE9FE4F81EA87
:10053000030404F0004421F0004100944FF0000B4C
:1005400023F0004350EA01045ED052EA03045BD07A
:10055000C3F30A54C1F30A552C44A4F2F3340194B2
:10056000A0FB0254C1F3130141F48011C3F3130340
:1005700043F4801301FB024400FB034E840A970AF4
:1005800044EA815447EA8357A4FB076802958D0A21
:1005900005FB07854FEA932C04FB0C542705029DAD
:1005A0004FEA065847EA1637B5EB08056EEB070C1D
:1005B000870E920E47EA811742EA8312A7FB0201D7
:1005C000B6EB0B0164EB00042B0D43EA0C335E1811
:1005D00044EB1C50DA465146E7FB0201C5F3130415
:1005E0004FEA0B3343EA14534FEA0432019C43EAC7
:1005F0000603A4F10C040294009CCDE900B400F0C1
:10060000F7F803B0BDE8F08F00200146F9E72DE9C7
:10061000F04D81EA030404F0004B21F0004514463C
:100620004FF0000A23F0004150EA050220D054EABE
:1006300001021DD0C5F30A570246C5F31303C1F3E7
:100640001300C1F30A5640F4801543F48013A7EB5E
:100650000608101BD64608F2FD3873EB050002D3DE
:1006600008F1010801E092185B41B8F1000F03DACC
:1006700000200146BDE8F08D00204FF480110646B1
:1006800084460EE0171B73EB050705D3121B63EBC3
:10069000050306434CEA010C49084FEA3000921862
:1006A0005B4150EA0107EDD152EA030012D082EA21
:1006B000040083EA0501084305D0101BAB4106D2B4
:1006C0000122002306E000224FF0004302E06FF019
:1006D000010253101AEB06004CEB085110EB0A0014
:1006E00041EB0B01BDE8F04D00F073B8C1F30A52C5
:1006F000C1F3130140F2FF3341F480119A4202DA50
:1007000000200146704740F233439A42A2F233423E
:1007100002DC524200F03BB800F02AB830B5041EAB
:1007200071F1000404DB4FF00044404264EB01012E
:10073000141E73F1000405DB1C464FF000435242C7
:1007400063EB0403994208BF904230BD064C074D4D
:1007500006E0E06840F0010394E807009847103491
:10076000AC42F6D3FFF714FDFC2F00081C30000844
:10077000202A04DB203A00FA02F100207047914061
:10078000C2F1200320FA03F3194390407047202A56
:1007900004DB203A21FA02F00021704721FA02F32B
:1007A000D040C2F120029140084319467047202AE8
:1007B00006DBCB17203A41FA02F043EAE07306E089
:1007C00041FA02F3D040C2F1200291400843194699
:1007D000704710B5141E73F1000408DA401C41F193
:1007E000000192185B411A4301D120F0010010BDB5
:1007F0002DE9F04D92469B4611B1B1FA81F202E02B
:10080000B0FA80F220329046FFF7B2FF04460F465E
:1008100040EA0A0041EA0B0153465A46084313D006
:10082000114653EA010019D0C8F140025046FFF7C3
:10083000AEFF05460E46504659464246FFF798FF22
:10084000084305D0012004E020463946BDE8F08D7C
:100850000020054346EAE0762C4337430A986305B7
:10086000E40AA0EB08000022FD0A44EA47540A30DB
:1008700002D500200146E9E7010510196941DDE9CB
:10088000084500196941BDE8F04DA2E770B505467D
:100890001AA11D4800F030FF064600201B490860E1
:1008A000002403E000201A490855641C1E2CF9DBC3
:1008B0003146154800F0C4FD4FF4FA6001F08AFD9E
:1008C00012480068401C1349086008460168104837
:1008D00000F05EFD0E48407F4F280DD10C48807F10
:1008E0004B2809D1002405E004F10A000849085CFE
:1008F0002855641C0F2CF7DB70BD000041542B43BE
:1009000047534E0D0A000000BE0500206000002085
:10091000B20700206400002070B511A1134800F058
:10092000EBFE0546002012490860002403E0002089
:1009300010490855641C1E2CF9DB29460B4800F0B1
:100940007FFD4FF4FA6001F045FD09480068401C46
:100950000949086008460168064800F019FD70BDA5
:1009600041542B43494D490D0A000000BE050020AB
:1009700060000020B20700206400002070B500264F
:1009800021A1244800F0B8FE054600202249086055
:10099000002403E0002021490855641C1E2CF9DBCB
:1009A00029461C4800F04CFD4FF4FA6001F012FD9E
:1009B00019480068401C1A49086008460168174831
:1009C00000F0E6FC16480068401F1449085C4F28F8
:1009D00017D113480068001F085C4B2811D1084646
:1009E000407C2C2809D10846007C3038C97B30393E
:1009F00001EB810100EB410603E00848C07BA0F158
:100A00003006304670BD000041542B4353510D0A4F
:100A100000000000BE05002060000020B20700209A
:100A20006400002070B511A1144800F065FE054671
:100A3000002013490860002403E0002011490855F4
:100A4000641C1E2CF9DB29460C4800F0F9FC4FF41D
:100A5000FA6001F0BFFC0A480068401C0A490860BF
:100A600008460168074800F093FC70BD41542B51C3
:100A7000494143543D310D0A00000000BE050020ED
:100A800060000020B20700206400002070B511A1B2
:100A9000154800F031FE0546002014490860002486
:100AA00003E0002012490855641C1E2CF9DB29467E
:100AB0000D4800F0C5FC642001F08CFC0B48006878
:100AC000401C0C49086008460168094800F060FCB9
:100AD00070BD000041542B5149434C4F53453D30AC
:100AE0002C310D0A00000000BE050020600000202F
:100AF000B20700206400002070B511A1144800F076
:100B0000FBFD0546002013490860002403E0002097
:100B100011490855641C1E2CF9DB29460C4800F0CD
:100B20008FFC4FF4FA6001F055FC0A480068401C45
:100B30000A49086008460168074800F029FC70BDB2
:100B400041542B5149435347503D310D0A00000099
:100B5000BE05002060000020B207002064000020D5
:100B60002DE9F04105460E462B4632461FA1284886
:100B700000F0C2FD0746002026490860002403E07B
:100B8000002025490855641C1E2CF9DB39462048F5
:100B900000F056FC4FF4FA6001F01CFC1D480068A0
:100BA000401C1E490860084601681B4800F0F0FB25
:100BB000194840784F2808D1174880784B2804D12D
:100BC000002017490870BDE8F08115480078401CE6
:100BD0001349087008460078052805DD01201149F1
:100BE000088000200E49087000BFECE741542B51EB
:100BF000494F50454E3D312C302C22544350222C2D
:100C0000222573222C25642C302C310D0A00000083
:100C1000BE05002060000020B20700206400002014
:100C2000B00000203600002000BFFEE770B502468D
:100C30000B460021551C1C4605E015F8016B701889
:100C400081B2601E84B2002CF7DCC9B2C843401CDC
:100C5000C0B270BD70B500240D25002601F0E0F98A
:100C600048B31CE01448005DFF2802D0601CC4B2E9
:100C700015E0114908190B21FFF7D8FF06460E4968
:100C800004F10C00085CB04206D121460A4801F08C
:100C9000F9FA6019C4B201E0601CC4B200BF074891
:100CA0000068092804DB054800680938A042D9DA41
:100CB00000200249086070BDBA0900206C000020C5
:100CC0007047F0B50A4600210023002400BF3DE034
:100CD000012505FA01F3156805EA03049C4234D1A5
:100CE00005684F000326BE40B543056015794E00E8
:100CF000B5400668354305601579012D02D0157998
:100D0000022D16D185684F000326BE40B54385608D
:100D100055794E00B54086683543856045680126A3
:100D20008E40B5434560456896798E40B6B23543EE
:100D30004560C5684F000326BE40B543C560D57900
:100D40004E00B540C6683543C560491C1029BFD365
:100D5000F0BDF0B5002300244D07ED0E02FA05F3B7
:100D6000CE1000F1200555F826504E07F70E0F263D
:100D7000BE40B543CF1000F1200646F82750CE10F4
:100D800000F1200555F8265045EA0304CE1000F185
:100D9000200545F82640F0BD418370470183704728
:100DA00010B5002001F004FB4FF4967001F012FB27
:100DB000FFF750FF10BD00BFFEE700BFFEE7704722
:100DC00070B5002100230F22C4781CB3174C24688F
:100DD00004F4E064C4F5E064C4F30721C1F1040441
:100DE000E3B20A4144789C40E1B284781440214344
:100DF0000C07210E0E4C05786155047804F01F0590
:100E00000124AC4005786D11AD0005F1E025C5F871
:100E1000004109E0047804F01F050124AC40054DB1
:100E20000678761145F8264070BD00000CED00E014
:100E300000E400E080E100E010B5002807DA0A07CE
:100E4000140E054A00F00F031B1FD45403E00A07D9
:100E5000130E024A135410BD18ED00E000E400E048
:100E60007047000029B1064A12680243044B1A6019
:100E700004E0034A12688243014B1A607047000085
:100E80003038024029B1064A12680243044B1A6006
:100E900004E0034A12688243014B1A607047000065
:100EA0004038024029B1064A12680243044B1A60D6
:100EB00004E0034A12688243014B1A607047000045
:100EC00044380240F0B5002100220024022500260B
:100ED0000223324F3F6807F00C0121B1042905D0ED
:100EE000082937D105E02E4F076036E02D4F076007
:100EF00033E02A4F3F1F3F68C7F38056274F3F1FFD
:100F00003F6807F03F036EB1264FB7FBF3F7DFF8FA
:100F10008CC0ACF1040CDCF800C0CCF3881C07FBDF
:100F20000CF40CE01E4FB7FBF3F7DFF870C0ACF128
:100F3000040CDCF800C0CCF3881C07FB0CF4174F42
:100F40003F1F3F68C7F301477F1C7D00B4FBF5F7E7
:100F5000076002E0124F076000BF00BF0F4F3F68FD
:100F600007F0F0010909104F7A5C0768D740476025
:100F70000A4F3F6807F4E051890A0B4F7A5C4768D3
:100F8000D7408760054F3F6807F46041490B064F23
:100F90007A5C4768D740C760F0BD0000083802405F
:100FA0000024F40000127A0089000020704700003D
:100FB0000CB50020019000903448006840F4803067
:100FC0003249086000BF3148006800F400300090EA
:100FD0000198401C0190009810B901980028F2D1A6
:100FE0002A48006800F4003010B10120009001E0B0
:100FF000002000900098012846D124484030006825
:1010000040F080502149403108602148006840F498
:1010100040401F4908601D48083000681B490831DE
:1010200008600846006840F4004008600846006810
:1010300040F4A05008601748091F0860081F0068A6
:1010400040F08070091F086000BF1048006800F081
:1010500000700028F9D040F205700F4908600B4875
:101060000830006820F0030008490831086008468D
:10107000006840F00200086000BF044808300068C3
:1010800000F00C000828F8D10CBD00000038024028
:101090000070004008544007003C024010B5294849
:1010A0000068401C27490860084600686421B0FBBE
:1010B000F1F201FB120088BB00202249086022489F
:1010C0000088401C20490880084600883C2825DB11
:1010D0001E480088401C1D49088000201A490880CD
:1010E0001A4800883C2819DB19480088401C184918
:1010F000088016480088052190FBF1F201FB1200E0
:1011000010B901201349087011480088182802DB23
:1011100000200F49088001200F4908800948006815
:101120006421B0FBF1F201FB12000F2804D840212A
:101130000A48FFF731FE03E040210848FFF72EFE82
:1011400010BD0000000000204400002046000020E8
:1011500048000020350000204A000020000802401E
:1011600010B51548006840F4700013490860134832
:10117000006840F001001149086000200F49083163
:1011800008600E4800680E4908400C4908600D4888
:10119000091D0860081F006820F48020091F0860EE
:1011A000002006490C310860FFF702FF4FF0006095
:1011B00001498039086010BD88ED00E00038024028
:1011C000FFFFF6FE1030002410B50121164800F094
:1011D00042F820B300F012FF14480078322804DAF5
:1011E00012480078401C11490870104800783228D5
:1011F0000BDB0F480078052804DA0D480078401C06
:101200000B4908700020094908700A480088B0F5A9
:101210007A7F04DA07480088401C064908800121CB
:10122000014800F009F810BD0004004084000020CF
:101230008500002086000020CA430282704721B149
:10124000028842F00102028004E002884FF6FE7339
:101250001A400280704730B5024600200023002467
:10126000158A05EA0103958905EA010413B10CB159
:10127000012000E0002030BD1AB183890B43838137
:1012800002E083898B43838170470000002202883B
:10129000184B98420ED0184B98420BD0B0F1804FAB
:1012A00008D0164B984205D0154B984202D0154BEA
:1012B000984204D14FF68F731A404B881A43124B51
:1012C000984207D0114B984204D04FF6FF431A4082
:1012D0000B891A4302804B68C3620B880385054B58
:1012E000984202D0044B984201D18B7A03860123A5
:1012F0008382704700000140000401400004004068
:1013000000080040000C00400010004000140040A5
:101310001448008800F0200018B31248001D00880F
:101320001149124A12688854084610490968405CFD
:101330000A280BD101200E4908700C480068401C97
:101340000C4908600020094908600AE00748006865
:10135000401C0649086008460068BE2801DB0020E2
:1013600008607047004C0040120C002078000020FC
:10137000800000207C00002000BF0449098801F0A3
:1013800040010029F9D001498880704700100140D0
:1013900010B503460C46002200BF985CFFF7ECFF37
:1013A000521CA242F9D300BF0348008800F040005D
:1013B0000028F9D010BD000000100140144800883A
:1013C00000F0200010B3124880881249124A1268B7
:1013D0008854084610490968405C0A280BD101204E
:1013E0000E4908700C480078401C0D490870002018
:1013F000094908600AE008480068401C064908607E
:1014000008460068BE2801D300200860704700002D
:10141000001001402E040020580000205D00002034
:101420005C00002000BF0549098801F04001002947
:10143000F9D00249091D08807047000000440040AF
:1014400010B503460C46002200BF985CFFF7EAFF88
:10145000521CA242F9D300BF0348008800F04000AC
:101460000028F9D010BD00000044004010B540F243
:101470002551104800F084F8012813D10D48001DB3
:101480000088C1B20C4802680068401C0A4B186012
:101490000A48815418460068772809DB002019465D
:1014A000086005E0002240F22551024800F092F861
:1014B00010BD00000044004060000020B207002082
:1014C00000BF0549098801F040010029F9D002490F
:1014D000091D0880704700000048004010B5034611
:1014E0000C46002200BF985CFFF7EAFF521CA242A4
:1014F000F9D300BF0348008800F040000028F9D06D
:1015000010BD00000048004010B540F225511248BF
:1015100000F036F8012817D110480068401C0F4928
:1015200008600D48001D0088C4B208460068C8283D
:1015300001DD0020086009480068401E08490C547D
:1015400000200849087005E0002240F225510248B9
:1015500000F040F810BD0000004800406C00002082
:10156000BA0900208100002021B1828942F4005292
:10157000828104E082894DF6FF731A4082817047B0
:1015800070B50246002400230025002040F66A16AC
:10159000B14200D100BFC1F3421501F01F03012683
:1015A00006FA03F3012D02D19689334006E0022D9D
:1015B00002D1168A334001E0968A33400C1201268C
:1015C00006FA04F41688344013B10CB1012000E08F
:1015D000002070BDF0B50346002400260025002041
:1015E00040F66A17B94200D100BF1846C1F3421451
:1015F00001F01F06012707FA06F5012C01D10C3076
:1016000004E0022C01D1103000E014301AB1076858
:101610002F43076002E00768AF430760F0BD00009A
:101620002DE9FF4705460E460024A14600BFA0460F
:10163000B08900B100BF2C8A24F44054F0880443E0
:101640002C82AC8941F20C608443B0883189084314
:10165000718908430443AC81AC8A24F44074B08996
:101660000443AC826846FFF72DFC2048854202D037
:101670001F48854202D1DDF80C9001E0DDF80890AA
:10168000A88900F4004040B109EBC90000EB091043
:1016900031684900B0FBF1F707E009EBC90000EB46
:1016A000091031688900B0FBF1F76420B7FBF0F056
:1016B00004012009642101FB1078A88900F400408E
:1016C00040B1322000EBC800B0FBF1F000F00700A1
:1016D000044308E0322000EB08106421B0FBF1F075
:1016E00000F00F0004432C81BDE8FF87001001408B
:1016F0000014014000BFFEE70FB4084B10B504A969
:1017000002AA039800F0DEF8044602A9002000F0C7
:1017100070FC204610BC5DF814FB0000F31F0008AD
:1017200002E008C8121F08C1002AFAD170477047AA
:10173000002001E001C1121F002AFBD17047000008
:101740002DE9FF5F82B00021DDE90430020DDDF8F4
:1017500040B0034318D044F61050A2F2FF32424387
:101760001514119801281FD0A5EB0B00401C5FEA4F
:10177000000A4FF000064E4FDFF83891B046504651
:1017800015D5CAF1000413E0119801244AA30128D9
:1017900001D16FEA0B010298119AC0E90031C0E94A
:1017A000024206B0BDE8F09FCBF10000DFE704463F
:1017B0000021404A491842EB0450CDE9001012E0E4
:1017C000E00707D032463B4640464946FEF7ADFEAD
:1017D0008046894632463B4610461946FEF7A5FE2E
:1017E00006460F466410002CEAD1DDE90401DDE96C
:1017F0000023BAF1000F06DAFEF797FE42464B4689
:10180000FEF793FE05E0FEF702FF42464B46FEF769
:10181000FEFE04460E460022284BFEF77FFF03D84B
:101820004FF0FF30014607E00022254B20463146AD
:10183000FEF7D4FDFEF75AFF102409E0002C0ADB66
:101840000A220023FEF752FD039B30321A55641E14
:1018500050EA0102F2D1641C039AC4F1110314444A
:10186000119A012A03D0012208430DD10AE008434E
:1018700004D000204FF0110B119072E7A3EB0B0581
:101880006D1E0DE05B4504DD4FF0000205F1010522
:1018900004E003DA4FF00002A5F10105002AECD0C4
:1018A00002981199C0E90231C0E9004579E70000CA
:1018B000000014400000F03F300000000000F04342
:1018C0000000E03F2DE9FF4F95B09B468946064654
:1018D00000250FE2252877D100242746F84A012168
:1018E000059400E0044316F8013F203B01FA03F0A1
:1018F0001042F7D130782A2811D06FF02F033078BA
:10190000A0F13002092A16D8059A44F0020402EB2D
:10191000820203EB42021044761C0590EFE759F86F
:10192000042B0592002A03DA504244F40054059037
:1019300044F00204761C30782E2816D116F8010FD8
:1019400044F004042A280DD06FF02F023078A0F163
:101950003003092B09D807EB870302EB4303C718B1
:10196000761CF3E759F8047B761C30786C280FD08E
:1019700006DC4C2817D068280DD06A2814D104E062
:10198000742810D07A280FD10DE044F400140AE036
:1019900044F4801401E044F440147278824202D18D
:1019A00004F58014761C761C307866280BD013DC86
:1019B000582877D009DC002875D04528F6D046286D
:1019C000F4D047281AD19DE118E0632835D0642867
:1019D00079D0652812D195E1702873D008DC67288A
:1019E000F1D069286FD06E280DD06F2806D1B5E0F0
:1019F00073282CD0752875D0782874D05A4617993A
:101A000090476D1C75E1C4F30250022809D00328E9
:101A10000DD0D9F8001004280DD00D6009F104098B
:101A200067E1D9F80010EA17C1E90052F6E7D9F8E2
:101A300000100D80F2E70D70F0E719F8041B8DF827
:101A4000001000208DF80100EA46012003E059F85B
:101A500004AB4FF0FF3061074FF0000102D40DE0FE
:101A600008F101018846B9420FDA8045F8DB1AF81F
:101A700008100029F4D108E008F1010188468142EC
:101A8000FADB1AF808100029F6D105985B46A0EB9E
:101A9000080721463846179A00F094FA284400EBCC
:101AA000080507E04DE029E10DE01AF8010B5A4660
:101AB00017999047B8F10108F7D25B46214638469E
:101AC000179A13E142E00A220092C4F302524FF047
:101AD000000A022A08D059F804CB032A4FEAEC7115
:101AE0000AD00DE029E02AE009F1070121F0070200
:101AF000F2E802C1914609E00FFA8CFC4FEAEC7162
:101B0000042A03D14FFA8CFC4FEAEC71002907DA62
:101B10000A460021DCF1000C61EB02012D2202E0FB
:101B2000220504D52B228DF80420012203E0E207D0
:101B300001D02022F7E7904659E00A2102E0102266
:101B40000DE010214FF0000A00910BE010224FF041
:101B5000000A44F004040827009203E008224FF032
:101B6000000A0092C4F30252022A05D059F804CBAD
:101B70000021032A08D009E009F1070121F007023A
:101B8000F2E802C1914605E01FFA8CFC042A01D15B
:101B90000CF0FF0C4FF00008220728D5702806D063
:101BA000009B83F0100353EA0A0305D00EE04022A5
:101BB0008DF80420012208E05CEA010206D0302200
:101BC0008DF804208DF8050002229046009B83F0DA
:101BD000080353EA0A030AD15CEA010201D1620751
:101BE00005D530228DF804204FF001087F1E5828BB
:101BF00004D034A003900EA802900DE036A0F9E7BF
:101C000053466046009AFEF771FB84460398825C57
:101C10000298401E029002705CEA0100F0D1029826
:101C200006A9081A00F1200A600702D524F48034BE
:101C300000E00127574502DDA7EB0A0000E0002085
:101C400000EB0A01009005984144401A0590E0031A
:101C500006D45B462146179A059800F0B3F905446F
:101C6000002706E001A85A46C05D179990476D1CF1
:101C70007F1C4745F6DBE0030CD55B462146179AEF
:101C8000059800F09FF9054404E030205A46179962
:101C900090476D1C0099481E00900029F5DC08E073
:101CA000029802995A460078491C02911799904768
:101CB0006D1CBAF10001AAF1010AF1DC65E1000036
:101CC0000928010030313233343536373839616212
:101CD00063646566000000003031323334353637D6
:101CE00038394142434445460000000000F058F9AD
:101CF0000544761C307800287FF4ECAD19B02846F6
:101D0000BDE8F08F620700D4062709F1070222F030
:101D1000070CFCE80223E14603F000485FEA080CE8
:101D200002D00FF2702C0DE05FEA045C02D50FF2D6
:101D3000682C07E05FEAC47C02D00FF2602C01E05F
:101D4000AFF2700C4FF0FF3823F00043CDF850C0D5
:101D500065280CD006DC452809D046281DD0472828
:101D60003DD13DE0662818D067287ED138E00021BB
:101D7000112F01DB112000E0781CCDE9000106A93C
:101D80000EA8FFF7DDFCDDE90F010E9A039100219B
:101D9000009207F1010A04914DE04FF000400097D6
:101DA000CDE9011006A90EA8FFF7CAFCDDE90F0274
:101DB00003920E9B11990022DDF80CA0009304926F
:101DC00011B9791C00EB010AB7EB0A0004D4C0F189
:101DD000FF3007F1010A0490AAEB0700019044E0EC
:101DE000012F00DA01270021112F01DD112000E071
:101DF0003846CDE9000106A90EA8FFF7A1FCDDE9F0
:101E00000F010E9A0391002104910092BA46210716
:101E10000CD40399514500DA8A46BAF1010F05DD69
:101E2000009AAAF10101515C302908D0B84202DAC7
:101E300010F1040F06DA0121CDE9011015E0AAF135
:101E40000101E9E7002805DC049901440491AAEBAB
:101E5000000102E0411C514500DD8A460499401A08
:101E6000401C01904FF000400290200704D40198DC
:101E7000504501DBCDF8048000208DF84F0002981A
:101E80000DF14F07B0F1004F25D02B200E90029896
:101E90004FF0020800280CDA404202902D200E90EC
:101EA00007E00A210298FEF70BFA3031029007F89A
:101EB000011DB8F10001A8F10108F2DC0298002828
:101EC000EFD1791E0E980870307800F0200040F0B5
:101ED000450007F8020D12A8C01B00F1070814986E
:101EE000007800B1012000EB0A01019801EBE071DC
:101EF00005984144401A401E0590E00306D45B4615
:101F00002146179A059800F05DF80544149800786A
:101F100018B15A46179990476D1CE00324D55B46CB
:101F20002146179A059800F04DF805441CE00498E6
:101F3000002807DBDDE90301884203DD0098405CEF
:101F4000179901E0179930205A469047049805F1F7
:101F50000105401C04900198401E019004D12E20E0
:101F60005A46179990476D1CBAF10001AAF1010A6F
:101F7000DDDC05E017F8010B5A46179990476D1CF8
:101F8000B8F10001A8F10108F4DC5B462146179A7C
:101F90000598ABE62D0000002B000000200000009B
:101FA0002DE9F041044600251E461746880404D456
:101FB00005E039462020B0476D1C641EF9D528463F
:101FC000BDE8F0812DE9F041044600251E4690460B
:101FD000C80301D5302700E02027880404D505E098
:101FE00041463846B0476D1C641EF9D52846BDE809
:101FF000F0810A68531C0B60107070470648007827
:10200000022807DA04480078401C034908700120C0
:102010000249087070470000810000208200002003
:1020200008480078022801DA002070470648007846
:10203000012804D10020044908700120F5E70020A0
:10204000F3E7000081000020820000202DE9F04F1E
:1020500085B004460D4616461F46DDE90FABDDF898
:102060003890DDF84480062C03DB002005B0BDE885
:10207000F08F204600F064F80CB1052C0AD104EB77
:10208000440101EBC4012D4A52F821000121FEF761
:1020900009FF09E004EB440101EBC401274A52F8AF
:1020A00021000121FEF7EEFE0195ADF80860ADF8C4
:1020B0000A70ADF80C900020ADF810000C20ADF8BF
:1020C0000E0004EB440101EBC4011C4A02EB810148
:1020D000486801A9FFF7A4FA04EB440000EBC40030
:1020E000164901EB8000007A8DF80000C8F3031058
:1020F0008DF8010008F00F008DF8020001208DF826
:1021000003006846FEF75CFE04EB440101EBC401EA
:102110000A4A02EB81010122486840F22551FFF78B
:1021200059FA04EB440101EBC401044A02EB8101BA
:1021300048680121FFF718FA012097E75C2E000894
:102140007CB50446062C01DB00207CBD04EB440179
:1021500001EBC4013E4A02EB8101C96804EB440271
:1021600002EBC4023A4B03EB8202D26941EA02005D
:102170000121FEF777FE04EB440303EBC403344D67
:1021800005EB83031A7E04EB440303EBC40305EB66
:102190008303D98A04EB440303EBC40305EB8303F5
:1021A0001869FEF7D6FD04EB440303EBC40305EB0B
:1021B000830393F8282004EB440303EBC40305EBEB
:1021C0008303D98C04EB440303EBC40305EB8303C3
:1021D000186AFEF7BEFD00208DF8060002208DF87B
:1021E000040001208DF8070004EB440000EBC4005C
:1021F000294601EB8000808A009002208DF80500BE
:1022000004EB440101EBC4012A4602EB8101086999
:102210006946FEF756FD02208DF8040004EB4400E9
:1022200000EBC400294601EB8000808C0090022066
:102230008DF8050004EB440101EBC4012A4602EBD2
:102240008101086A6946FEF73CFD01207DE7000038
:102250005C2E00082DE9F04105460E4614461F4647
:102260002846FEF713FBFEF757FBFEF787FBC7B2C6
:10227000FEF742FCFEF7D6FB31462046FEF770FC27
:10228000BDE8F081CA1D835C8A1D825C43EA02229C
:1022900000EE102AB8EEC00A3C4A3D4B1B7802EB18
:1022A000830282ED000A01F10902835C521E825C06
:1022B00043EA022200EE102AB8EEC00ADFED350A2A
:1022C00080EE201A344A82ED001A01F10B02835C81
:1022D000521E825C43EA022200EE102AB8EEC00AC7
:1022E000DFED2C0A80EE201A2C4A82ED001A274AD4
:1022F000274B1B7802EB830292ED000ADFED280AE0
:1023000020EE200A214A224B1B7802EB830282ED49
:10231000000A1E4A1E4B1B7802EB830292ED000A54
:10232000204AD2ED000A30EE200A184AD2ED140AF3
:1023300030EE600A1B4A82ED000A00221A4B1A7026
:102340001A4B1A70124A1278521C142A05DB0F4AD3
:1023500092ED000A82ED140A0AE00C4B0C4A127846
:10236000521C03EB820292ED000A1A4682ED140A17
:10237000074A1278132A05DA054A1278521C044BD0
:102380001A7002E00022024B1A707047A40D002060
:10239000880000200000C842080000200C00002037
:1023A000CDCC4C3D0400002085000020840000209E
:1023B0003EB5044604A207CA8DE807000921684615
:1023C000FFF78CF83EBD0000FF0187000000000011
:1023D00078000000002107E048F2D04100BF0A1E4B
:1023E000A1F1010399B2FAD1021EA0F1010398B242
:1023F000F2D1704710B50A48002101600171094807
:10240000006860B9E0200649087000204870022189
:10241000034800F093FB4FF0FF300249086010BD05
:10242000F80D0020B40000201CB501214020FEF76B
:1024300019FD00208DF8060001208DF804008DF8AC
:1024400007000820009002208DF805006946284802
:10245000FEF737FC08212648FEF79EFC00208DF889
:10246000060001208DF8040000208DF807004FF4CD
:102470008040009002208DF8050069461C48FEF758
:1024800020FC4FF480411A48FEF786FC00208DF8AE
:10249000060001208DF8040000208DF807004FF49D
:1024A0008050009002208DF8050069461048FEF724
:1024B00008FC4FF480510E48FEF76EFC00208DF8AA
:1024C000060001208DF8040000208DF807004FF46D
:1024D0000060009002208DF8050069460548FEF76F
:1024E000F0FB4FF400610348FEF756FC1CBD0000F2
:1024F00000180240000C024010B508211C48FEF7ED
:102500004BFC4FF480411A48FEF746FC4FF47A70BA
:10251000FFF760FF4FF480511548FEF73FFC4FF482
:10252000FA60FFF757FF4FF480511148FEF734FC73
:102530004FF4FA70FFF74EFF08210D48FEF72EFC0E
:102540004FF4FA70FFF746FF4FF480410848FEF75A
:1025500025FC4FF47A70FFF73DFF4FF480410448AB
:10256000FEF71AFC40F6B830FFF734FF10BD00004C
:10257000001802407FB505460C4601210220FEF7F7
:1025800081FC1D208DF80C0003208DF80D0001202A
:102590008DF80E008DF80F0003A8FEF711FC0195D1
:1025A000ADF800400020ADF80800ADF80200694623
:1025B0000648FEF76BFE012211460448FEF75CFE5A
:1025C00001210248FEF73BFE7FBD000000040040F1
:1025D0002DED088B92B0FEF7C3FD4FF4407101F072
:1025E0000702E14B18684FF6FF031840DF4B034327
:1025F00043EA0220DC4B186000BF0021481EFEF7B2
:102600001BFCDB4800686421B0FBF1F5681EB0F1EB
:10261000807F00D30FE0681E4FF0E02148610F215A
:102620004FF0FF30FEF708FC00204FF0E0218861FA
:102630000720086100BF41F61F413120FFF79AFFD4
:1026400003200021009101910B460A46CDE90210BA
:102650004FF4E1310120FFF7F9FC04200021009143
:1026600001910B460A46CDE902104FF4E1310020FA
:10267000FFF7ECFC02200021009101910B460A4675
:10268000CDE902104FF41651FFF7E0FCFFF7CCFE46
:10269000FFF732FF4FF47A60FFF79CFE2146B54802
:1026A000FEF776FEB4480378B448B54902680EA830
:1026B000FFF7D0FD0A20FFF78DFE0120B149088009
:1026C00051E1B048008800BBAF48007801281CD118
:1026D000AE480088C8B90120AD490880AB490880E0
:1026E0000020AC490880A8490870AB4800880090D9
:1026F000AA480388AA480288AAA19E48FEF7FCFFC0
:10270000C4B221469B48FEF743FE9E48008801283C
:102710007ED100209B490880A8A1AB48FEF7ECFFC2
:10272000C4B20020A9490860002404E00020A849A0
:102730000855601CC4B21E2CF8DB2146A248FEF7E7
:102740007FFE4FF49660FFF745FEA0480068401CEE
:10275000A04908609E4890F82C004F287ED19C48E4
:1027600090F82D004B287FD1994880782B287BD179
:102770009748007D30389649C97C303901EB81019A
:1027800000EB4100944908809148C07D3038904961
:10279000897D303901EB810100EB41000C2190FB78
:1027A000F1F201FB12008D4908808948807E3038A3
:1027B0008749497E303901EB810100EB41008849AE
:1027C00008808348407F30388149097F303901EBE8
:1027D000810100EB4100182190FBF1F201FB120096
:1027E0006F4908807A4890F8200030387849C97FCE
:1027F000303901EB810100EB4100684908807448E1
:1028000090F823003038724991F82210303900E0F6
:102810002DE001EB810100EB41005F490880084693
:10282000008800905D4803885D4802885DA151489A
:10283000FEF762FFC4B25848008858490988CDE9BC
:102840000010574803886648028864480188624837
:10285000008800F077FA6349086000E004E0214650
:102860004448FEF795FD02E00120464908804748AC
:102870000088012855D15C480068FDF70EFD41EC49
:10288000180B5A480068FDF708FD41EC190B584831
:102890000068FDF702FD41EC1A0B56480068FDF791
:1028A000FCFC41EC1B0B8DED0C8B8DED0A9B8DED33
:1028B00008AB4C48006830490978CDE906108DED29
:1028C00004BB4D484D494E4ACDE9002102904D4888
:1028D00003880EAA4C494D48FEF70EFF4C4908608C
:1028E000274926480068FEF73BF9002003460246C8
:1028F0000EA90090474800F0A1F84548008800B2B2
:10290000424900220123CDE900210290114642A054
:1029100000F0A4F9FFF76EFDFEF7B8F800201B49A0
:10292000088041480078042808DD09213FA0FEF70F
:102930002FFDFEF735FA00203B4908703E4800881D
:10294000012810D100203C490880FFF7D5FD4FF445
:102950007A60FFF73FFD0848037808480849026895
:102960000EA8FFF777FCACE60CED00E00000FA05DE
:102970009C00002066030020340000202C00002072
:102980001B0000204A000020350000203C000020F1
:102990003A0000208600002044000020460000206D
:1029A0004800002074696D65203D202532643A2579
:1029B00032643A2532640D0A0000000041542B4372
:1029C000434C4B3F0D0A0000BE0500206000002074
:1029D000B2070020640000203E00002040000020DC
:1029E00042000020100000200C0000200800002001
:1029F000040000203000002016000020F501002017
:102A0000EA010020140000207C2F00086C02002046
:102A100050000020B201002041514D322E302F4A8B
:102A2000696158696E6700008500002067657464FD
:102A30006174610D0A000000360000202DE9FE4F90
:102A400083468A461D460C9F052434A207CA8DE89A
:102A500007004FF4FA713448FDF70DFC4FF0000801
:102A60000AE01DF808202046611CCCB22E490A5409
:102A700008F1010000F0FF08B8F1090FF1DB0226B0
:102A800025B146F080060FB146F040062046611C95
:102A9000CCB225490E5400222046611CCCB22249FA
:102AA0000A5414222046611CCCB21F490A545246D3
:102AB0001EA15846FEF720FE22461B49584600F04C
:102AC000B0F9C4B265B122461749284600F0A9F909
:102AD000C4B22FB122461449384600F0A2F9C4B25C
:102AE000601F82B21049102000F04AF98146B9F106
:102AF000000F0CDD0C480078202808D10A48C07867
:102B000028B900200C4908600120BDE8FE8F4FF075
:102B1000FF30094908600020F7E7000000064D512A
:102B20004973647003000000F80D00204A65636972
:102B30006E666F2573000000B40000202DE9F0439D
:102B40009FB007468846782101A8FDF794FB4246CE
:102B50003AA101A8FEF7D0FD1FFA80F9494601A865
:102B6000FEF76EFC00203A490860002604E00020D1
:102B700038498855701C86B21E2EF8DB41F2883029
:102B8000FFF728FC32480068401C334908600846BB
:102B900001683048FEF7FCFB00202D4908604146E3
:102BA0003846FEF74DFC4FF4FA60FFF713FC284857
:102BB0000068401C28490860084601682548FEF75F
:102BC000E7FB23480068002834DD224890F82900FC
:102BD000532805D11F4890F82E004F2800D101241A
:102BE000002C27DD1B4890F83D00722805D11948BC
:102BF00090F84500342800D13C24002C18DD002535
:102C000007E0E0B20C3028441249085C7855681C93
:102C100005B20F480068001B0E38A842F1DCE0B294
:102C20000B490988081A0E3800B21FB0BDE8F083BE
:102C30000020FAE74FF0FF30F7E7000041542B5136
:102C40004953454E443D302C25640D0A00000000D8
:102C500060000020B2070020640000202DE9FF5F23
:102C60008A46904699464FF4FA713448FDF703FBC3
:102C700010981FFA80FB3248006800285CD1009849
:102C8000FDF704FBC01D5844B0F5FA7F03D90020BE
:102C900004B0BDE8F09F052422462849009800F0C2
:102CA000C0F80446B8F1000F0BDD01222046611C7C
:102CB0008CB222490A542046611C8CB21F4901F88B
:102CC0000090002708E00F98C25D2046611C8CB27E
:102CD0001A490A54781C87B25F45F4DB3025BAF1F3
:102CE000000F01D045F008050E9808B145F0010528
:102CF000B8F1020F14D145F00405601F82B20F49EC
:102D0000284600F03DF80646002E15DD0B480078F9
:102D1000502811D10948C07848450DD10120B7E7A6
:102D2000601F82B20549284600F02AF806460EB90F
:102D30000120ADE70020ABE70020A9E7F80D002057
:102D4000B40000202DE9F0438BB004460D46164632
:102D50001F46DDE912892C216846FDF78CFA04F143
:102D600064000590681E049003960297CDF80480D5
:102D7000CDF800906846FDF723FA0BB0BDE8F0836C
:102D80002DE9FC5F82460F46914600260020009008
:102D90004C46002500BF2046E11704EB5161C911E4
:102DA000A4EBC11101F0FF0BE11704EB5161C1F37A
:102DB000CF14002C01DD4BF0800B0098411CC9B2F0
:102DC000009101A901F800B0701CC6B2002CE2DC31
:102DD000C6F1040007F800A0002507E001A8405D47
:102DE000C6F1050129447854681C85B2B542F5DB6B
:102DF00009F10102324491B23A1D901BFFF79EFE89
:102E00008046B8F1000F09DD002505E0281D801B74
:102E1000385C7855681C85B24545F7DB4046BDE80F
:102E2000FC9FF0B505460B462C460021901C82B253
:102E300007E014F8017B1046561CB2B21F54481C20
:102E400081B220780028F4D10E12501A801E1E5430
:102E5000501A401E19541046F0BD0000100000002A
:102E600000100140250000000200000000040240A4
:102E700040000600070000000200000000040240BD
:102E8000800007000700000000000200004400402E
:102E900026000000010000000000024004000200C3
:102EA00007000000010000000000024008000300CD
:102EB0000700000000000400004800402700000058
:102EC00008000000000C024000010800070000009C
:102ED00008000000000C024000020900070000008A
:102EE00000000800004C0040340000000400000016
:102EF0000008024000040A0008000000040000006E
:102F00000008024000080B0008000000000010004C
:102F1000005000403500000004000000000802409E
:102F200000100C000800000008000000000C024027
:102F3000040002000800000020000000001401400E
:102F400047000000040000000008024040000600A6
:102F50000800000004000000000802408000070094
:102F6000080000001F1C1F1E1F1E1F1F1E1F1E1FEC
:102F70001F1D1F1E1F1E1F1F1E1F1E1F7B22534EA5
:102F8000223A222573222C224657223A22332E300F
:102F9000222C224543223A25642C224C4F223A22ED
:102FA0002573222C224C41223A222573222C2244C2
:102FB00054223A222573222C224256223A252E31BF
:102FC000662C2252535349223A222564222C225441
:102FD000494D45223A25642C2254564F43223A2526
:102FE0002E32662C224154223A252E31662C224163
:102FF00048223A252E31667D000000001C30000872
:1030000000000020B800000020170008D43000089D
:10301000B80000203813000030170008000000003E
:1030200000000000000000000000000000000000A0
:103030000000000000000033392E3130342E3638C5
:103040002E31393900000000ADF000000000000012
:103050000000000000000000000000000000000070
:10306000000001000000000000000000000000005F
:103070000000000000000000000000000000000050
:103080000000000000000000000000000000000040
:10309000000000000000000000000000000001002F
:1030A0000000000000000000000102030401020310
:1030B0000406070809000000007A030A0000000067
:1030C00000000000010203040607080900000000D8
:0430D00000000000FC
:040000050800018965
:00000001FF
