:020000040804EE
:10000000401100209D010408AD0E0408850E04086F
:10001000A90E0408A50C0408F51704080000000048
:100020000000000000000000000000009D10040817
:100030003D0D040800000000510F04088D11040854
:10004000B7010408B7010408B7010408B7010408A0
:10005000B7010408B7010408B7010408B701040890
:10006000B7010408B7010408B7010408B701040880
:10007000B7010408B7010408B7010408B701040870
:10008000B7010408B7010408B7010408B701040860
:10009000B7010408B7010408B7010408B701040850
:1000A000B7010408B7010408B7010408B701040840
:1000B000B7010408C9120408B7010408B70104080D
:1000C000B7010408B7010408B7010408B701040820
:1000D000B7010408BD1404086D15040809160408C6
:1000E000B7010408B7010408B7010408B701040800
:1000F000B7010408B7010408B7010408B7010408F0
:10010000B7010408B7010408B7010408B7010408DF
:1001100011140408B7010408B7010408B701040862
:10012000B7010408B7010408B7010408B7010408BF
:10013000B7010408B7010408B7010408B7010408AF
:10014000B7010408B7010408B7010408B70104089F
:10015000B7010408B7010408B7010408B70104088F
:10016000B7010408B7010408B7010408B70104087F
:10017000B7010408B7010408B7010408B70104086F
:10018000B7010408B7010408DFF80CD000F0DEFA6C
:100190000048004701290408401100200648804714
:1001A00006480047FEE7FEE7FEE7FEE7FEE7FEE75C
:1001B000FEE7FEE7FEE7FEE75D120408890104089A
:1001C00038B5D0E90221491E01EB410102EBC10122
:1001D0004268C1EB011102EB81010268C1EB011120
:1001E00002EB8102D0E9043101EB410103EB810113
:1001F0003023A1F5527191FBF3F4174D6C4302EBE0
:10020000C41291FBF3F403FB141100921A2902DBD0
:10021000124B1A4400920C2291FBF2F3104C6343F0
:10022000009C04EBC313009391FBF2F302FB131148
:100230000C4A08E0491E40F2A324535C6343009C2F
:1002400004EBC31300930029F4DC0146684600F078
:100250007FF8009838BD00003F0C0F00805101006E
:1002600067C2030020360408D2B201E000F8012B77
:10027000491EFBD270470022F6E710B513460A4626
:1002800004461946FFF7F0FF204610BD421C10F847
:10029000011B0029FBD1801A704700F0004230F0AA
:1002A00000400AD0C10D01F56071C0F3160042EAAA
:1002B0000151C208400711437047002001467047B2
:1002C00030B50B46014600202022012409E021FA26
:1002D00002F59D4205D303FA02F5491B04FA02F523
:1002E0002844151EA2F10102F1DC30BD2DE9F05FBA
:1002F0000546002092469B46884606468146402495
:100300001BE0284641464746224600F040FA534645
:100310005A46C01A914110D311461846224600F0A1
:1003200027FA2D1A67EB01084F46224601200021CB
:1003300000F01EFA17EB00094E41201EA4F1010443
:10034000DFDC484631462A464346BDE8F09F0000C0
:1003500010B500683C22B0FBF2F302FB1303B0FBC4
:10036000F2F00B60B0FBF2F302FB1303B0FBF2F010
:1003700018224B60B0FBF2F302FB1303B0FBF2F068
:10038000021D8B600723B2FBF3F403FB14228000F1
:1003900040F2B55300F66C308A61B0FBF3F2B0FB6B
:1003A000F3F403FB1400443280084A61C8613B281F
:1003B00002D3920700D0401C0022074C13460A616A
:1003C000E25C824203D8801A5B1C0B61F8E7401C98
:1003D000C860084610BD00002C3604082DE9FE4F09
:1003E000804681EA0300C00F0C46009021F00041D6
:1003F00023F00045B8EB0200A94105D24046214652
:1004000090461C460B46024623F00040104347D05E
:10041000270DC7F30A00C3F30A510290401A019056
:1004200040286BDAC3F3130040F4801B0098924617
:1004300020B10023D2EB030A63EB0B0B0198594662
:10044000C0F14002504600F093F906460D46504672
:100450005946019A00F0ABF910EB08006141002405
:1004600087EA115284EAE7731A4340D0009A62B3D4
:10047000019A012A4FEA075215DC001B61EB0201C9
:100480004FF0004202EA0752CDE90042001C41F55C
:10049000801132462B4600F0ABF903B0BDE8F08F77
:1004A00040462146F9E7001B61EB0201001C41F5C3
:1004B000801300185B412018A2F5001747EB0301D9
:1004C00040EAD570B6196D4111E06D084FEA360665
:1004D00045EAC0754FEA0752001B61EB0201001CA0
:1004E00041F5801149084FEA300000195141324668
:1004F0002B4603B0BDE8F04F00F06BB90098012225
:1005000040000023D0EB020263EBE0730098214629
:100510004FEAE074B8EB000061EB0401E9E783F017
:1005200000435BE781F0004158E72DE9FE4F81EA87
:10053000030404F0004421F0004100944FF0000B4C
:1005400023F0004350EA01045ED052EA03045BD07A
:10055000C3F30A54C1F30A552C44A4F2F3340194B2
:10056000A0FB0254C1F3130141F48011C3F3130340
:1005700043F4801301FB024400FB034E840A970AF4
:1005800044EA815447EA8357A4FB076802958D0A21
:1005900005FB07854FEA932C04FB0C542705029DAD
:1005A0004FEA065847EA1637B5EB08056EEB070C1D
:1005B000870E920E47EA811742EA8312A7FB0201D7
:1005C000B6EB0B0164EB00042B0D43EA0C335E1811
:1005D00044EB1C50DA465146E7FB0201C5F3130415
:1005E0004FEA0B3343EA14534FEA0432019C43EAC7
:1005F0000603A4F10C040294009CCDE900B400F0C1
:10060000F7F803B0BDE8F08F00200146F9E72DE9C7
:10061000F04D81EA030404F0004B21F0004514463C
:100620004FF0000A23F0004150EA050220D054EABE
:1006300001021DD0C5F30A570246C5F31303C1F3E7
:100640001300C1F30A5640F4801543F48013A7EB5E
:100650000608101BD64608F2FD3873EB050002D3DE
:1006600008F1010801E092185B41B8F1000F03DACC
:1006700000200146BDE8F08D00204FF480110646B1
:1006800084460EE0171B73EB050705D3121B63EBC3
:10069000050306434CEA010C49084FEA3000921862
:1006A0005B4150EA0107EDD152EA030012D082EA21
:1006B000040083EA0501084305D0101BAB4106D2B4
:1006C0000122002306E000224FF0004302E06FF019
:1006D000010253101AEB06004CEB085110EB0A0014
:1006E00041EB0B01BDE8F04D00F073B8C1F30A52C5
:1006F000C1F3130140F2FF3341F480119A4202DA50
:1007000000200146704740F233439A42A2F233423E
:1007100002DC524200F03BB800F02AB830B5041EAB
:1007200071F1000404DB4FF00044404264EB01012E
:10073000141E73F1000405DB1C464FF000435242C7
:1007400063EB0403994208BF904230BD064C074D4D
:1007500006E0E06840F0010394E807009847103491
:10076000AC42F6D3FFF714FDB8360408D8360408B7
:10077000202A04DB203A00FA02F100207047914061
:10078000C2F1200320FA03F3194390407047202A56
:1007900004DB203A21FA02F00021704721FA02F32B
:1007A000D040C2F120029140084319467047202AE8
:1007B00006DBCB17203A41FA02F043EAE07306E089
:1007C00041FA02F3D040C2F1200291400843194699
:1007D000704710B5141E73F1000408DA401C41F193
:1007E000000192185B411A4301D120F0010010BDB5
:1007F0002DE9F04D92469B4611B1B1FA81F202E02B
:10080000B0FA80F220329046FFF7B2FF04460F465E
:1008100040EA0A0041EA0B0153465A46084313D006
:10082000114653EA010019D0C8F140025046FFF7C3
:10083000AEFF05460E46504659464246FFF798FF22
:10084000084305D0012004E020463946BDE8F08D7C
:100850000020054346EAE0762C4337430A986305B7
:10086000E40AA0EB08000022FD0A44EA47540A30DB
:1008700002D500200146E9E7010510196941DDE9CB
:10088000084500196941BDE8F04DA2E770B50026A2
:1008900014A1174800F0B0FF054600201549086074
:1008A000002403E0002014490855641C1E2CF9DBC9
:1008B00029460F4800F044FE4FF4967001F062FEA6
:1008C0000C480068401C0D490860084601680A4849
:1008D00000F0DEFD0848807D312800D10126304639
:1008E00070BD000041542B43455245473F0D0A005F
:1008F0001B050020A400002093050020A800002074
:1009000070B505461AA11D4800F076FF0646002086
:100910001B490860002403E000201A490855641CA4
:100920001E2CF9DB3146154800F00AFE40F6B830BF
:1009300001F028FE12480068401C13490860084670
:100940000168104800F0A4FD0E48407F4F280DD1EB
:100950000C48807F4B2809D1002405E004F10A00EF
:100960000849085C2855641C0F2CF7DB70BD00009B
:1009700041542B4347534E0D0A0000001B05002035
:10098000A400002093050020A800002070B511A14C
:10099000134800F031FF054600201249086000248A
:1009A00003E0002010490855641C1E2CF9DB294681
:1009B0000B4800F0C5FD4FF4FA6001F0E3FD094873
:1009C0000068401C0949086008460168064800F0B4
:1009D0005FFD70BD41542B43494D490D0A00000095
:1009E0001B050020A400002093050020A800002083
:1009F00070B5632620A1234800F0FEFE04460020C7
:100A000021490860002503E00020204948556D1C5D
:100A10001E2DF9DB21461B4800F092FD4FF4FA60D1
:100A200001F0B0FD18480068401C194908600846EC
:100A30000168164800F02CFD052316A21248016833
:100A4000124800F07CF904461049E01D085C2C288F
:100A50000BD1A01D085C30380A46611D515C30394D
:100A600001EB810100EB410604E00849601D085CD0
:100A7000A0F13006304670BD41542B4353510D0A4E
:100A8000000000001B050020A400002093050020AA
:100A9000A80000204353513A2000000070B511A176
:100AA000144800F0A9FE0546002013490860002400
:100AB00003E0002011490855641C1E2CF9DB29466F
:100AC0000C4800F03DFD4FF4FA6001F05BFD0A4870
:100AD0000068401C0A49086008460168074800F0A1
:100AE000D7FC70BD41542B51494143543D310D0A4F
:100AF000000000001B050020A4000020930500203A
:100B0000A800002070B511A1154800F075FE05463B
:100B1000002014490860002403E000201249085511
:100B2000641C1E2CF9DB29460D4800F009FD6420E9
:100B300001F028FD0B480068401C0C49086008467D
:100B40000168094800F0A4FC70BD000041542B511D
:100B500049434C4F53453D302C310D0A00000000F5
:100B60001B050020A400002093050020A800002001
:100B700070B511A1144800F03FFE0546002013494E
:100B80000860002403E0002011490855641C1E2C55
:100B9000F9DB29460C4800F0D3FC4FF4FA6001F071
:100BA000F1FC0A480068401C0A49086008460168D0
:100BB000074800F06DFC70BD41542B514943534729
:100BC000503D310D0A0000001B050020A40000204C
:100BD00093050020A80000202DE9F04105460E46AF
:100BE0002B46324620A1294800F006FE0746002089
:100BF00027490860002403E0002026490855641CAA
:100C00001E2CF9DB3946214800F09AFC4FF4FA60BB
:100C100001F0B8FC1E480068401C1F4908600846E7
:100C200001681C4800F034FC1A4890F830004F2846
:100C300009D1184890F831004B2804D100201749F9
:100C40000870BDE8F08115480078401C1349087011
:100C500008460078052805DD01201149088000209C
:100C60000E49087000BFECE741542B51494F5045E5
:100C70004E3D312C302C22544350222C22257322FD
:100C80002C25642C302C310D0A0000001B0500209F
:100C9000A400002093050020A8000020EC00002004
:100CA0003200002000BFFEE770B502460B4600216F
:100CB000551C1C4605E015F8016B701881B2601ECA
:100CC00084B2002CF7DCC9B2C843401CC0B270BD6E
:100CD00070B500240D25002601F022FA48B31CE06F
:100CE0001448005DFF2802D0601CC4B215E0114911
:100CF00008190B21FFF7D8FF06460E4904F10C0036
:100D0000085CB04206D121460A4801F081FB601917
:100D1000C4B201E0601CC4B200BF074800680928E3
:100D200004DB054800680938A042D9DA00200249EE
:100D3000086070BD0F070020B000002070472DE94B
:100D4000F04104460D4616464FF0FF3000210022C8
:100D5000002700BF13E00027002109E016F801C0BA
:100D600002EB010814F80880C44500D17F1C491C1F
:100D70009942F3DB9F4201D1104602E0521CAA4285
:100D8000E9DB00BFBDE8F081F0B50A460021002391
:100D9000002400BF3DE0012505FA01F3156805EACE
:100DA00003049C4234D105684F000326BE40B5437E
:100DB000056015794E00B540066835430560157924
:100DC000012D02D01579022D16D185684F0003261A
:100DD000BE40B543856055794E00B54086683543C1
:100DE0008560456801268E40B54345604568967923
:100DF0008E40B6B235434560C5684F000326BE40FD
:100E0000B543C560D5794E00B540C6683543C56069
:100E1000491C1029BFD3F0BDF0B5002300244D07B5
:100E2000ED0E02FA05F3CE1000F1200555F826501C
:100E30004E07F70E0F26BE40B543CF1000F1200637
:100E400046F82750CE1000F1200555F8265045EA07
:100E50000304CE1000F1200545F82640F0BD418383
:100E600070470183704742694A404261704710B53C
:100E7000002001F063FB4FF4967001F083FBFFF755
:100E800027FF10BD00BFFEE710B500F001F810BD50
:100E90004AF6AA200149086070470000003000406F
:100EA00010B501F099FB10BD00BFFEE770470000D0
:100EB00070B5002100230F22C4781CB3174C24689E
:100EC00004F4E064C4F5E064C4F30721C1F1040450
:100ED000E3B20A4144789C40E1B284781440214353
:100EE0000C07210E0E4C05786155047804F01F059F
:100EF0000124AC4005786D11AD0005F1E025C5F881
:100F0000004109E0047804F01F050124AC40054DC0
:100F10000678761145F8264070BD00000CED00E023
:100F200000E400E080E100E010B5002807DA0A07DD
:100F3000140E054A00F00F031B1FD45403E00A07E8
:100F4000130E024A135410BD18ED00E000E400E057
:100F50007047000029B1064A12680243044B1A6028
:100F600004E0034A12688243014B1A607047000094
:100F70003038024029B1064A12680243044B1A6015
:100F800004E0034A12688243014B1A607047000074
:100F90004038024029B1064A12680243044B1A60E5
:100FA00004E0034A12688243014B1A607047000054
:100FB00044380240F0B5002100220024022500261A
:100FC0000223324F3F6807F00C0121B1042905D0FC
:100FD000082937D105E02E4F076036E02D4F076016
:100FE00033E02A4F3F1F3F68C7F38056274F3F1F0C
:100FF0003F6807F03F036EB1264FB7FBF3F7DFF80A
:101000008CC0ACF1040CDCF800C0CCF3881C07FBEE
:101010000CF40CE01E4FB7FBF3F7DFF870C0ACF137
:10102000040CDCF800C0CCF3881C07FB0CF4174F51
:101030003F1F3F68C7F301477F1C7D00B4FBF5F7F6
:10104000076002E0124F076000BF00BF0F4F3F680C
:1010500007F0F0010909104F7A5C0768D740476034
:101060000A4F3F6807F4E051890A0B4F7A5C4768E2
:10107000D7408760054F3F6807F46041490B064F32
:101080007A5C4768D740C760F0BD0000083802406E
:101090000024F40000127A00C7000020704700000E
:1010A0000CB50020019000903448006840F4803076
:1010B0003249086000BF3148006800F400300090F9
:1010C0000198401C0190009810B901980028F2D1B5
:1010D0002A48006800F4003010B10120009001E0BF
:1010E000002000900098012846D124484030006834
:1010F00040F080502149403108602148006840F4A8
:1011000040401F4908601D48083000681B490831ED
:1011100008600846006840F400400860084600681F
:1011200040F4A05008601748091F0860081F0068B5
:1011300040F08070091F086000BF1048006800F090
:1011400000700028F9D040F205700F4908600B4884
:101150000830006820F0030008490831086008469C
:10116000006840F00200086000BF044808300068D2
:1011700000F00C000828F8D10CBD00000038024037
:101180000070004008544007003C024010B52B4856
:101190000068401C29490860084600686421B0FBCB
:1011A000F1F201FB1200002834D1244908602448E0
:1011B0000088401C2249088022480068401C2149C0
:1011C00008601F4800883C2824DB1F480088401C1A
:1011D0001D49088008460088052190FBF1F201FBBB
:1011E000120010B901201949087000201449088024
:1011F000154800883C280DDB15480088401C144920
:10120000088008460088182801DB0020088001209B
:1012100010490880094800686421B0FBF1F201FB25
:1012200012000F2804D840210B48FFF718FE03E0F6
:1012300040210948FFF715FE10BD00009400002072
:101240003E0000200C000020400000203100002063
:1012500042000020440000200008024010B515485C
:10126000006840F47000134908601348006840F0BB
:1012700001001149086000200F49083108600E483C
:1012800000680E4908400C4908600D48091D0860B7
:10129000081F006820F48020091F0860002006490C
:1012A0000C310860FFF7FCFE0648024980390860EF
:1012B00010BD000088ED00E000380240FFFFF6FEA0
:1012C000103000240000040810B50121164800F079
:1012D00042F820B300F012FF14480078322804DAF4
:1012E00012480078401C11490870104800783228D4
:1012F0000BDB0F480078052804DA0D480078401C05
:101300000B4908700020094908700A480088B0F5A8
:101310007A7F04DA07480088401C064908800121CA
:10132000014800F009F810BD0004004098000020BA
:10133000990000209A000020CA430282704721B120
:10134000028842F00102028004E002884FF6FE7338
:101350001A400280704730B5024600200023002466
:10136000158A05EA0103958905EA010413B10CB158
:10137000012000E0002030BD1AB183890B43838136
:1013800002E083898B43838170470000002202883A
:10139000184B98420ED0184B98420BD0B0F1804FAA
:1013A00008D0164B984205D0154B984202D0154BE9
:1013B000984204D14FF68F731A404B881A43124B50
:1013C000984207D0114B984204D04FF6FF431A4081
:1013D0000B891A4302804B68C3620B880385054B57
:1013E000984202D0044B984201D18B7A03860123A4
:1013F0008382704700000140000401400004004067
:1014000000080040000C00400010004000140040A4
:101410001448008800F0200018B31248001D00880E
:101420001149124A12688854084610490968405CFC
:101430000A280BD101200E4908700C480068401C96
:101440000C4908600020094908600AE00748006864
:10145000401C0649086008460068BE2801DB0020E1
:1014600008607047004C004067090020BC00002065
:10147000C4000020C000002000BF0449098801F01A
:1014800040010029F9D001498880704700100140CF
:1014900010B503460C46002200BF985CFFF7ECFF36
:1014A000521CA242F9D300BF0348008800F040005C
:1014B0000028F9D010BD0000001001401448008839
:1014C00000F0200010B3124880881249124A1268B6
:1014D0008854084610490968405C0A280BD101204D
:1014E0000E4908700C480078401C0D490870002017
:1014F000094908600AE008480068401C064908607D
:1015000008460068BE2801D300200860704700002C
:10151000001001408B0300209C000020A10000204F
:10152000A000002000BF0549098801F04001002902
:10153000F9D00249091D08807047000000440040AE
:1015400010B503460C46002200BF985CFFF7EAFF87
:10155000521CA242F9D300BF0348008800F04000AB
:101560000028F9D010BD00000044004010B540F242
:101570002551104800F084F8012813D10D48001DB2
:101580000088C1B20C4802680068401C0A4B186011
:101590000A48815418460068B32809DB0020194620
:1015A000086005E0002240F22551024800F092F860
:1015B00010BD000000440040A4000020930500205E
:1015C00000BF0549098801F040010029F9D002490E
:1015D000091D0880704700000048004010B5034610
:1015E0000C46002200BF985CFFF7EAFF521CA242A3
:1015F000F9D300BF0348008800F040000028F9D06C
:1016000010BD00000048004010B540F225511248BE
:1016100000F036F8012817D110480068401C0F4927
:1016200008600D48001D0088C4B208460068C8283C
:1016300001DD0020086009480068401E08490C547C
:1016400000200849087005E0002240F225510248B8
:1016500000F040F810BD000000480040B00000203D
:101660000F070020C500002021B1828942F40052FA
:10167000828104E082894DF6FF731A4082817047AF
:1016800070B50246002400230025002040F66A16AB
:10169000B14200D100BFC1F3421501F01F03012682
:1016A00006FA03F3012D02D19689334006E0022D9C
:1016B00002D1168A334001E0968A33400C1201268B
:1016C00006FA04F41688344013B10CB1012000E08E
:1016D000002070BDF0B50346002400260025002040
:1016E00040F66A17B94200D100BF1846C1F3421450
:1016F00001F01F06012707FA06F5012C01D10C3075
:1017000004E0022C01D1103000E014301AB1076857
:101710002F43076002E00768AF430760F0BD000099
:101720002DE9FF4705460E460024A14600BFA0460E
:10173000B08900B100BF2C8A24F44054F0880443DF
:101740002C82AC8941F20C608443B0883189084313
:10175000718908430443AC81AC8A24F44074B08995
:101760000443AC826846FFF725FC2048854202D03E
:101770001F48854202D1DDF80C9001E0DDF80890A9
:10178000A88900F4004040B109EBC90000EB091042
:1017900031684900B0FBF1F707E009EBC90000EB45
:1017A000091031688900B0FBF1F76420B7FBF0F055
:1017B00004012009642101FB1078A88900F400408D
:1017C00040B1322000EBC800B0FBF1F000F00700A0
:1017D000044308E0322000EB08106421B0FBF1F074
:1017E00000F00F0004432C81BDE8FF87001001408A
:1017F0000014014000BFFEE70FB4084B10B504A968
:1018000002AA039800F0DEF8044602A9002000F0C6
:1018100070FC204610BC5DF814FB0000F3200408A7
:1018200002E008C8121F08C1002AFAD170477047A9
:10183000002001E001C1121F002AFBD17047000007
:101840002DE9FF5F82B00021DDE90430020DDDF8F3
:1018500040B0034318D044F61050A2F2FF32424386
:101860001514119801281FD0A5EB0B00401C5FEA4E
:10187000000A4FF000064E4FDFF83891B046504650
:1018800015D5CAF1000413E0119801244AA30128D8
:1018900001D16FEA0B010298119AC0E90031C0E949
:1018A000024206B0BDE8F09FCBF10000DFE704463E
:1018B0000021404A491842EB0450CDE9001012E0E3
:1018C000E00707D032463B4640464946FEF72DFE2C
:1018D0008046894632463B4610461946FEF725FEAD
:1018E00006460F466410002CEAD1DDE90401DDE96B
:1018F0000023BAF1000F06DAFEF717FE42464B4608
:10190000FEF713FE05E0FEF782FE42464B46FEF769
:101910007EFE04460E460022284BFEF7FFFE03D84B
:101920004FF0FF30014607E00022254B20463146AC
:10193000FEF754FDFEF7DAFE102409E0002C0ADB66
:101940000A220023FEF7D2FC039B30321A55641E94
:1019500050EA0102F2D1641C039AC4F11103144449
:10196000119A012A03D0012208430DD10AE008434D
:1019700004D000204FF0110B119072E7A3EB0B0580
:101980006D1E0DE05B4504DD4FF0000205F1010521
:1019900004E003DA4FF00002A5F10105002AECD0C3
:1019A00002981199C0E90231C0E9004579E70000C9
:1019B000000014400000F03F300000000000F04341
:1019C0000000E03F2DE9FF4F95B09B468946064653
:1019D00000250FE2252877D100242746F84A012167
:1019E000059400E0044316F8013F203B01FA03F0A0
:1019F0001042F7D130782A2811D06FF02F033078B9
:101A0000A0F13002092A16D8059A44F0020402EB2C
:101A1000820203EB42021044761C0590EFE759F86E
:101A2000042B0592002A03DA504244F40054059036
:101A300044F00204761C30782E2816D116F8010FD7
:101A400044F004042A280DD06FF02F023078A0F162
:101A50003003092B09D807EB870302EB4303C718B0
:101A6000761CF3E759F8047B761C30786C280FD08D
:101A700006DC4C2817D068280DD06A2814D104E061
:101A8000742810D07A280FD10DE044F400140AE035
:101A900044F4801401E044F440147278824202D18C
:101AA00004F58014761C761C307866280BD013DC85
:101AB000582877D009DC002875D04528F6D046286C
:101AC000F4D047281AD19DE118E0632835D0642866
:101AD00079D0652812D195E1702873D008DC672889
:101AE000F1D069286FD06E280DD06F2806D1B5E0EF
:101AF00073282CD0752875D0782874D05A46179939
:101B000090476D1C75E1C4F30250022809D00328E8
:101B10000DD0D9F8001004280DD00D6009F104098A
:101B200067E1D9F80010EA17C1E90052F6E7D9F8E1
:101B300000100D80F2E70D70F0E719F8041B8DF826
:101B4000001000208DF80100EA46012003E059F85A
:101B500004AB4FF0FF3061074FF0000102D40DE0FD
:101B600008F101018846B9420FDA8045F8DB1AF81E
:101B700008100029F4D108E008F1010188468142EB
:101B8000FADB1AF808100029F6D105985B46A0EB9D
:101B9000080721463846179A00F094FA284400EBCB
:101BA000080507E04DE029E10DE01AF8010B5A465F
:101BB00017999047B8F10108F7D25B46214638469D
:101BC000179A13E142E00A220092C4F302524FF046
:101BD000000A022A08D059F804CB032A4FEAEC7114
:101BE0000AD00DE029E02AE009F1070121F00702FF
:101BF000F2E802C1914609E00FFA8CFC4FEAEC7161
:101C0000042A03D14FFA8CFC4FEAEC71002907DA61
:101C10000A460021DCF1000C61EB02012D2202E0FA
:101C2000220504D52B228DF80420012203E0E207CF
:101C300001D02022F7E7904659E00A2102E0102265
:101C40000DE010214FF0000A00910BE010224FF040
:101C5000000A44F004040827009203E008224FF031
:101C6000000A0092C4F30252022A05D059F804CBAC
:101C70000021032A08D009E009F1070121F0070239
:101C8000F2E802C1914605E01FFA8CFC042A01D15A
:101C90000CF0FF0C4FF00008220728D5702806D062
:101CA000009B83F0100353EA0A0305D00EE04022A4
:101CB0008DF80420012208E05CEA010206D03022FF
:101CC0008DF804208DF8050002229046009B83F0D9
:101CD000080353EA0A030AD15CEA010201D1620750
:101CE00005D530228DF804204FF001087F1E5828BA
:101CF00004D034A003900EA802900DE036A0F9E7BE
:101D000053466046009AFEF7F1FA84460398825CD7
:101D10000298401E029002705CEA0100F0D1029825
:101D200006A9081A00F1200A600702D524F48034BD
:101D300000E00127574502DDA7EB0A0000E0002084
:101D400000EB0A01009005984144401A0590E00319
:101D500006D45B462146179A059800F0B3F905446E
:101D6000002706E001A85A46C05D179990476D1CF0
:101D70007F1C4745F6DBE0030CD55B462146179AEE
:101D8000059800F09FF9054404E030205A46179961
:101D900090476D1C0099481E00900029F5DC08E072
:101DA000029802995A460078491C02911799904767
:101DB0006D1CBAF10001AAF1010AF1DC65E1000035
:101DC0000928010030313233343536373839616211
:101DD00063646566000000003031323334353637D5
:101DE00038394142434445460000000000F058F9AC
:101DF0000544761C307800287FF4ECAD19B02846F5
:101E0000BDE8F08F620700D4062709F1070222F02F
:101E1000070CFCE80223E14603F000485FEA080CE7
:101E200002D00FF2702C0DE05FEA045C02D50FF2D5
:101E3000682C07E05FEAC47C02D00FF2602C01E05E
:101E4000AFF2700C4FF0FF3823F00043CDF850C0D4
:101E500065280CD006DC452809D046281DD0472827
:101E60003DD13DE0662818D067287ED138E00021BA
:101E7000112F01DB112000E0781CCDE9000106A93B
:101E80000EA8FFF7DDFCDDE90F010E9A039100219A
:101E9000009207F1010A04914DE04FF000400097D5
:101EA000CDE9011006A90EA8FFF7CAFCDDE90F0273
:101EB00003920E9B11990022DDF80CA0009304926E
:101EC00011B9791C00EB010AB7EB0A0004D4C0F188
:101ED000FF3007F1010A0490AAEB0700019044E0EB
:101EE000012F00DA01270021112F01DD112000E070
:101EF0003846CDE9000106A90EA8FFF7A1FCDDE9EF
:101F00000F010E9A0391002104910092BA46210715
:101F10000CD40399514500DA8A46BAF1010F05DD68
:101F2000009AAAF10101515C302908D0B84202DAC6
:101F300010F1040F06DA0121CDE9011015E0AAF134
:101F40000101E9E7002805DC049901440491AAEBAA
:101F5000000102E0411C514500DD8A460499401A07
:101F6000401C01904FF000400290200704D40198DB
:101F7000504501DBCDF8048000208DF84F00029819
:101F80000DF14F07B0F1004F25D02B200E90029895
:101F90004FF0020800280CDA404202902D200E90EB
:101FA00007E00A210298FEF78BF93031029007F81A
:101FB000011DB8F10001A8F10108F2DC0298002827
:101FC000EFD1791E0E980870307800F0200040F0B4
:101FD000450007F8020D12A8C01B00F1070814986D
:101FE000007800B1012000EB0A01019801EBE071DB
:101FF00005984144401A401E0590E00306D45B4614
:102000002146179A059800F05DF805441498007869
:1020100018B15A46179990476D1CE00324D55B46CA
:102020002146179A059800F04DF805441CE00498E5
:10203000002807DBDDE90301884203DD0098405CEE
:10204000179901E0179930205A469047049805F1F6
:102050000105401C04900198401E019004D12E20DF
:102060005A46179990476D1CBAF10001AAF1010A6E
:10207000DDDC05E017F8010B5A46179990476D1CF7
:10208000B8F10001A8F10108F4DC5B462146179A7B
:102090000598ABE62D0000002B000000200000009A
:1020A0002DE9F041044600251E461746880404D455
:1020B00005E039462020B0476D1C641EF9D528463E
:1020C000BDE8F0812DE9F041044600251E4690460A
:1020D000C80301D5302700E02027880404D505E097
:1020E00041463846B0476D1C641EF9D52846BDE808
:1020F000F0810A68531C0B60107070470648007826
:10210000052807DA04480078401C034908700120BC
:102110000249087070470000C5000020C60000207A
:1021200008480078052801DA002070470648007842
:10213000012804D10020044908700120F5E700209F
:10214000F3E70000C5000020C600002010B50446DB
:10215000062C01DB002010BD54B904EB440101EB57
:10216000C4011C4A52F821000021FEF713FF09E0C8
:1021700004EB440101EBC401164A52F8210000218E
:10218000FEF7F8FE04EB440101EBC401114A02EB37
:1021900081010022486840F22551FFF79BFA04EBC9
:1021A000440101EBC4010B4A02EB810100224868A3
:1021B00040F22771FFF78EFA04EB440101EBC401F2
:1021C000044A02EB810148680021FFF74DFA012023
:1021D000C1E70000183504082DE9F04F85B004462A
:1021E0000D4616461F46DDE90FABDDF83890DDF8E9
:1021F0004480062C03DB002005B0BDE8F08F2046AC
:1022000000F064F80CB1052C0AD104EB440101EB99
:10221000C4012D4A52F821000121FEF7BBFE09E05E
:1022200004EB440101EBC401274A52F821000121CB
:10223000FEF7A0FE0195ADF80860ADF80A70ADF8A4
:102240000C900020ADF810000C20ADF80E0004EB4F
:10225000440101EBC4011C4A02EB8101486801A959
:10226000FFF75EFA04EB440000EBC400164901EBF3
:102270008000007A8DF80000C8F303108DF801008B
:1022800008F00F008DF8020001208DF80300684669
:10229000FEF70EFE04EB440101EBC4010A4A02EB17
:1022A00081010122486840F22551FFF713FA04EB3F
:1022B000440101EBC401044A02EB81014868012199
:1022C000FFF7D2F9012097E7183504087CB50446DA
:1022D000062C01DB00207CBD04EB440101EBC401B2
:1022E0003E4A02EB8101C96804EB440202EBC402DE
:1022F0003A4B03EB8202D26941EA02000121FEF768
:1023000029FE04EB440303EBC403344D05EB8303C4
:102310001A7E04EB440303EBC40305EB8303D98A61
:1023200004EB440303EBC40305EB83031869FEF7D6
:1023300073FD04EB440303EBC40305EB830393F841
:10234000282004EB440303EBC40305EB8303D98C7F
:1023500004EB440303EBC40305EB8303186AFEF7A5
:102360005BFD00208DF8060002208DF8040001209E
:102370008DF8070004EB440000EBC400294601EB94
:102380008000808A009002208DF8050004EB440153
:1023900001EBC4012A4602EB810108696946FEF798
:1023A000F3FC02208DF8040004EB440000EBC400B1
:1023B000294601EB8000808C009002208DF80500FA
:1023C00004EB440101EBC4012A4602EB8101086AD7
:1023D0006946FEF7D9FC01207DE7000018350408A6
:1023E0002DE9F04106460F4614461D463046FEF7DD
:1023F00087FAFEF7CBFAFEF7FBFA2870FEF7B8FB78
:10240000FEF74CFB39462046FEF7E6FBBDE8F081BF
:10241000CA1D835C8A1D825C43EA022200EE102AF8
:10242000B8EEC00A3C4A3D4B1B7802EB830282EDBA
:10243000000A01F10902835C521E825C43EA022217
:1024400000EE102AB8EEC00ADFED350A80EE201A41
:10245000344A82ED001A01F10B02835C521E825C49
:1024600043EA022200EE102AB8EEC00ADFED2C0A81
:1024700080EE201A2C4A82ED001A274A274B1B783F
:1024800002EB830292ED000ADFED280A20EE200A1B
:10249000214A224B1B7802EB830282ED000A1E4A7E
:1024A0001E4B1B7802EB830292ED000A204AD2ED0C
:1024B000000A30EE200A184AD2ED140A30EE600A03
:1024C0001B4A82ED000A00221A4B1A701A4B1A702E
:1024D000124A1278521C142A05DB0F4A92ED000AA8
:1024E00082ED140A0AE00C4B0C4A1278521C03EBE2
:1024F000820292ED000A1A4682ED140A074A127807
:10250000132A05DA054A1278521C044B1A7002E0AD
:102510000022024B1A707047EC0C0020F6000020DD
:102520000000C8420400002008000020CDCC4C3D33
:102530000000002099000020980000203EB50446CD
:1025400004A207CA8DE8070009216846FFF746F88C
:102550003EBD0000FF018700000000007800000081
:1025600010B500210220FEF705FD002201210448DC
:10257000FEF702FF00210248FEF7E1FE10BD000059
:1025800000040040002107E048F2D04100BF0A1ECD
:10259000A1F1010399B2FAD1021EA0F1010398B290
:1025A000F2D1704710B50A48002101600171094855
:1025B000006860B9E02006490870002048700221D8
:1025C000034800F0E7FC4FF0FF300249086010BDFF
:1025D000F70A0020F00000201CB501213020FEF792
:1025E000B9FC0420009001208DF8040000208DF833
:1025F00006008DF805008DF8070069462148FEF7B2
:10260000C3FB1020009001208DF8040000208DF8FD
:1026100006008DF805008DF8070069461948FEF799
:10262000B3FB2020009001208DF8040000208DF8DD
:1026300006008DF805008DF8070069461148FEF781
:10264000A3FB1020009001208DF8040000208DF8DD
:1026500006008DF805008DF8070069460A48FEF768
:1026600093FB04210748FEF7FAFB10210548FEF70B
:10267000F8FB20210348FEF7F4FB10210248FEF787
:10268000F0FB1CBD00100240001402401CB50121EB
:102690004020FEF75FFC00208DF8060001208DF839
:1026A00004008DF807000820009002208DF8050036
:1026B00069462848FEF768FB08212648FEF7CFFB4D
:1026C00000208DF8060001208DF8040000208DF810
:1026D00007004FF48040009002208DF80500694605
:1026E0001C48FEF751FB4FF480411A48FEF7B7FB38
:1026F00000208DF8060001208DF8040000208DF8E0
:1027000007004FF48050009002208DF805006946C4
:102710001048FEF739FB4FF480510E48FEF79FFB3F
:1027200000208DF8060001208DF8040000208DF8AF
:1027300007004FF40060009002208DF80500694604
:102740000548FEF721FB4FF400610348FEF787FBC5
:102750001CBD000000180240000C024010B508210A
:102760001E48FEF77CFB4FF480411C48FEF777FBC8
:102770004FF47A70FFF706FF4FF480511748FEF7C9
:1027800070FB4FF4FA60FFF7FDFE4FF480511348E1
:10279000FEF765FB4FF4FA70FFF7F4FE08210F48CF
:1027A000FEF75FFB4FF4FA70FFF7ECFE4FF4804149
:1027B0000A48FEF756FB4FF47A70FFF7E3FE4FF43A
:1027C00080410648FEF74BFB40F6B830FFF7DAFED3
:1027D00040F6B830FFF7D6FE10BD000000180240EA
:1027E0007FB505460C4601210220FEF7C3FB1D20E4
:1027F0008DF80C0003208DF80D0001208DF80E00DF
:102800008DF80F0003A8FEF753FB0195ADF80040CB
:102810000020ADF80800ADF8020069460648FEF752
:10282000B5FD012211460448FEF7A6FD012102482C
:10283000FEF785FD7FBD00000004004010B51021AB
:102840002D48FEF70CFB20212B48FEF708FB10213A
:102850002A48FEF704FB4FF47A70FFF793FE10212D
:102860002548FEF7FEFA20212348FEF7FAFA102148
:102870002248FEF7F6FA4FF47A70FFF783FE102134
:102880001D48FEF7ECFA20211B48FEF7E8FA10215C
:102890001A48FEF7E4FA4FF47A70FFF773FE10213E
:1028A0001548FEF7DEFA20211348FEF7DAFA102168
:1028B0001248FEF7D6FA4FF47A70FFF763FE102144
:1028C0000D48FEF7CCFA20210B48FEF7C8FA10217C
:1028D0000A48FEF7C4FA4FF47A70FFF753FE10214E
:1028E0000548FEF7BEFA20210348FEF7BAFA102188
:1028F0000248FEF7B6FA10BD001002400014024074
:102900002DED088B92B000BFFEF7A8FC4FF440718C
:1029100001F00702B24B18684FF6FF031840B14BA5
:10292000034343EA0220AE4B186000BF0021481E5B
:10293000FEF7FAFAAC4800686421B0FBF1F4601EBF
:10294000B0F1807F00D30FE0601E4FF0E0214861BE
:102950000F214FF0FF30FEF7E7FA00204FF0E021A3
:1029600088610720086100BF41F61F413120FFF751
:1029700037FFFEF795FA03200021009101910B46E5
:102980000A46CDE902104FF4E1310120FFF724FCA3
:1029900004200021009101910B460A46CDE9021066
:1029A0004FF4E1310020FFF717FC022000210091D5
:1029B00001910B460A46CDE902104FF41651FFF77C
:1029C0000BFCFFF763FEFFF7C9FEFFF737FF4FF47D
:1029D0007A70FFF7D7FD854B8548864902680EA8B7
:1029E000FFF7FEFC0A20FFF7CDFD002000F05CF9A8
:1029F00081490880F2E080480088F0B97F4800787B
:102A000001281AD17E480088B8B901207C49088085
:102A100000207C490880794908707B480088009034
:102A20007A4803887A4802887AA18048FEF7E4FE53
:102A3000C5B229467D48FEF72BFD6F480088012866
:102A400009D100206C490880012000F02DF910B157
:102A5000012069490880FEF71BFA694800880128AF
:102A60007ED110217248FEF7FAF972480068FDF72E
:102A700014FC41EC180B70480068FDF70EFC41ECAB
:102A8000190B6E480068FDF708FC41EC1A0B6C4806
:102A90000068FDF702FC41EC1B0B8DED0C8B8DEDFE
:102AA0000A9B8DED08AB6748006850490978CDE96D
:102AB00006108DED04BB64486449654ACDE90021E8
:102AC0000290644803880EAA63496448FEF794FEA6
:102AD00063490860474946480068FEF77DF80020D2
:102AE000034602460EA900905E4800F0D3F9FEF7B7
:102AF000CBF95B48008800B2584900220123CDE998
:102B000000210290114658A000F0E0FA0EAA5AA146
:102B10005C48FEF771FEC5B2504B00222946594869
:102B200000F074FB002815DD564800F037FCFFF775
:102B300039FD062354A2FA214848FEF700F9C5B230
:102B4000FF2D07D00120FFF701FB0220FFF7FEFA5F
:102B5000FFF706FDFFF726FDFDF7D4FF002000E09C
:102B600005E02749088010213148FEF77AF94848E6
:102B7000007804280CDD04214648FEF774F9092189
:102B800045A0FEF785FCFEF772F900204049087069
:102B90004448008801281FD110213E48FEF75FF904
:102BA000002040490880FFF7D9FD4FF47A60FFF715
:102BB000E9FC4FF47A60FFF7E5FC4FF47A60FFF729
:102BC000E1FC0A4B0A480B4902680EA8FFF708FC13
:102BD00010213048FEF745F9FEF756F90BE70000E3
:102BE0000CED00E00000FA05D800002030000020C5
:102BF00028000020170000204400002031000020A1
:102C0000360000209A0000203E00002040000020F6
:102C10004200002074696D65203D202532643A250C
:102C200032643A2532640D0A00000000C30200201D
:102C300000140240080000200400002000000020D2
:102C40002C0000200C000020120000203B0100207E
:102C5000300100201000002038360408B2010020A6
:102C60004C000020F80000206A6563696E666F2FD3
:102C7000766F637300000000636F6D6D616E642F8B
:102C800025730000AC02002075706461746500005B
:102C90009900002000100240676574646174610D42
:102CA0000A000000320000207CB505460024002602
:102CB00012E0052E0ADD0F215DA0FEF7E9FBFFF70C
:102CC0004DFD0DB9002601E001207CBD701CC6B28F
:102CD0004FF44870FFF756FCFDF7D8FD0128E8D106
:102CE00057A15A48FEF788FD04460020584908605D
:102CF000002403E0002057490855641C1E2CF9DB12
:102D000021465248FEF71CFC4FF49660FFF73AFC50
:102D10004F480068401C504908604E4890F82C000D
:102D20004F287DD14B4890F82D004B287ED1494843
:102D300080782B287AD14748007D30384549C97CB6
:102D4000303901EB810100EB4100444908804148E2
:102D5000C07D30383F49897D303901EB810100EB7E
:102D600041000C2190FBF1F201FB12003C4908806C
:102D70003848807E30383749497E303901EB81014F
:102D800000EB4100374908803248407F30383149F4
:102D9000097F303901EB810100EB4100182190FBE4
:102DA000F1F201FB1200304908802A4890F8200017
:102DB00030382849C97F303901EB810100EB4100EF
:102DC0002A490880234890F823003038214991F897
:102DD0002210303901EB810100EB410024490880C9
:102DE000084600880090214803881F48028821A1D6
:102DF0002648FEF701FD04461D4800881B49098846
:102E0000CDE9001018480388164802881448018844
:102E10001248008800F0DCF91D490860214600E0F6
:102E200004E01A48FEF734FB00204EE700BF4CE7F1
:102E3000237265737461727420677072730D0A0077
:102E400041542B43434C4B3F0D0A00001B0500200F
:102E5000A400002093050020A800002038000020D6
:102E60003A0000203C0000204200002040000020EA
:102E70003E00002074696D65203D202532643A25AE
:102E800032643A2532640D0A00000000C3020020BB
:102E90000C0000202DE9FE4F83468A461D460C9FFC
:102EA000052434A207CA8DE807004FF4FA713448AC
:102EB000FDF7E1F94FF000080AE01DF80820204670
:102EC000611CCCB22E490A5408F1010000F0FF0841
:102ED000B8F1090FF1DB022625B146F080060FB1EB
:102EE00046F040062046611CCCB225490E54002213
:102EF0002046611CCCB222490A5414222046611C8F
:102F0000CCB21F490A5452461EA15846FEF774FC23
:102F100022461B49584600F0E2FAC4B265B1224687
:102F20001749284600F0DBFAC4B22FB122461449F3
:102F3000384600F0D4FAC4B2601F82B210491020A3
:102F400000F07CFA8146B9F1000F0CDD0C480078E6
:102F5000202808D10A48C07828B900200C49086008
:102F60000120BDE8FE8F4FF0FF30094908600020C6
:102F7000F7E7000000064D5149736470030000003C
:102F8000F70A00204A6563696E666F2573000000CA
:102F9000F00000202DE9F0439FB0074688467821D5
:102FA00001A8FDF768F942463CA101A8FEF724FC00
:102FB0001FFA80F9494601A8FEF7C2FA00203C49F1
:102FC0000860002504E000203A494855681C85B295
:102FD0001E2DF8DB41F28830FFF7D4FA3448006840
:102FE000401C35490860084601683248FEF750FA2F
:102FF00000202F490860002504E000202D49485595
:10300000681C85B21E2DF8DB41463846FEF798FA5B
:103010004FF4FA60FFF7B6FA25480068401C2649CD
:103020000860084601682348FEF732FA2048006825
:10303000002830DD072321A21D4801681D48FDF747
:103040007EFE04B2002C26DD04231EA2184801686F
:103050001848FDF774FE04B2002C1ADD601E04B29D
:10306000002607E0E0B20C3030441249085CB85545
:10307000701C06B20E480068001B0E38B042F1DC2E
:10308000E0B20B490988081A0E3800B21FB0BDE83B
:10309000F0830020FAE74FF0FF30F7E741542B515F
:1030A0004953454E443D302C25640D0A0000000074
:1030B000A400002093050020A800002053454E44A2
:1030C000204F4B0072656376000000002DE9FF5F22
:1030D0008A46904699464FF4FA713648FDF7CBF888
:1030E00010981FFA80FB132133A0FEF7D1F937485F
:1030F000006800285CD10098FDF7C8F8C01D58444E
:10310000B0F5FA7F03D9002004B0BDE8F09F052494
:1031100022462849009800F0E2F90446B8F1000F71
:103120000BDD01222046611C8CB222490A54204644
:10313000611C8CB21F4901F80090002708E00F982D
:10314000C25D2046611C8CB21A490A54781C87B2B1
:103150005F45F4DB3025BAF1000F01D045F00805DA
:103160000E9808B145F00105B8F1020F14D145F0F1
:103170000405601F82B20F49284600F05FF9064639
:10318000002E15DD0B480078502811D10948C07871
:1031900048450DD10120B7E7601F82B20549284696
:1031A00000F04CF906460EB90120ADE70020ABE770
:1031B0000020A9E7F70A00200D0A404040402050B7
:1031C00075626C697368206461746100F0000020AE
:1031D0002DE9F0438BB004460D4616461F46DDE947
:1031E00012892C216846FDF746F804F16400059029
:1031F000681E049003960297CDF80480CDF80090E5
:103200006846FCF7DDFF0BB0BDE8F0832DE9FF5FFA
:1032100081460E4692461F464FF0000B05254FF0A3
:103220000008002003904FF4FA714E48FDF723F890
:103230004D48006800287CD14846FDF727F8093042
:10324000B0F5FA7F03D9A81F04B0BDE8F09F474846
:103250000088401C454908800846008808B90120BC
:1032600008804248008802122846691C8DB23D49F8
:103270000A543E4802782846691C8DB239490A54DE
:103280002A46484600F02BF905462846691C8DB2AF
:10329000344901F800A0681F82B2822000F0CEF805
:1032A0008046B8F1000F56DD2E480078902852D1A4
:1032B0002C48C0782D49097888424CD113212CA084
:1032C000FEF7E6F8B8F1070F43DD2648807F00F0EF
:1032D000F00030283DD1002406E004F1220021490D
:1032E000085C0855601C04B2A8F12200A042F4DC7E
:1032F00000201C49085533464A464FF4FA711948D4
:10330000FDF71DFD0FFA80FBBBF1000F21D100245A
:1033100005E030191349085C3855601C04B2A8F167
:103320002200801BA042F4DC00203855214638469C
:1033300000E010E0FEF7ACF8012003A9CDE90001A0
:1033400003460022114602904846FFF7BFFE204682
:103350007AE7002078E714210AA0FEF799F84FF0E9
:10336000FF3071E7F70A0020F0000020F400002091
:103370000D0A404040402053756273637269626574
:10338000206F6B000D0A404040402053756273630C
:1033900072696265206572720000000070B50646B1
:1033A00005244FF4FA712248FCF765FF21480068B4
:1033B00000283BD13046FCF769FF0930B0F5FA7FB1
:1033C00001D9002070BD1C480088401C1A490880A3
:1033D0000846008808B901200880174800880212B2
:1033E0002046611C8CB212490A54134802782046C8
:1033F000611C8CB20E490A542246304600F06FF828
:103400000446601F82B20A49A22000F017F8054660
:10341000002D0BDD06480078B02807D10448C0789D
:1034200005490978884201D10120CBE70020C9E78E
:10343000F70A0020F0000020F40000202DE9FC5FD6
:1034400082460F4691460026002000904C460025FB
:1034500000BF2046E11704EB5161C911A4EBC11173
:1034600001F0FF0BE11704EB5161C1F3CF14002C05
:1034700001DD4BF0800B0098411CC9B2009101A9FD
:1034800001F800B0701CC6B2002CE2DCC6F10400EA
:1034900007F800A0002507E001A8405DC6F105017E
:1034A00029447854681C85B2B542F5DB09F1010264
:1034B000324491B23A1D901BFFF76CFD8046B8F183
:1034C000000F09DD002505E0281D801B385C7855BC
:1034D000681C85B24545F7DB4046BDE8FC9FF0B56A
:1034E00005460B462C460021901C82B207E014F8DA
:1034F000017B1046561CB2B21F54481C81B2207882
:103500000028F4D10E12501A801E1E54501A401E6C
:1035100019541046F0BD00001000000000100140DA
:1035200025000000020000000004024040000600E8
:1035300007000000020000000004024080000700B5
:1035400007000000000002000044004026000000C8
:10355000010000000000024004000200070000001B
:103560000100000000000240080003000700000006
:103570000000040000480040270000000800000090
:10358000000C0240000108000700000008000000D5
:10359000000C0240000209000700000000000800C3
:1035A000004C00403400000004000000000802400D
:1035B00000040A00080000000400000000080240A7
:1035C00000080B0008000000000010000050004040
:1035D00035000000040000000008024000100C004C
:1035E0000800000008000000000C02400400020077
:1035F0000800000020000000001401404700000007
:10360000040000000008024040000600080000001E
:1036100004000000000802408000070008000000CD
:103620001F1C1F1E1F1E1F1F1E1F1E1F1F1D1F1EB4
:103630001F1E1F1F1E1F1E1F7B22534E223A2225B4
:1036400073222C224657223A22332E30222C224536
:1036500043223A25642C224C4F223A222573222CF5
:10366000224C41223A222573222C224454223A220F
:103670002573222C224256223A252E31662C2252C4
:10368000535349223A222564222C2254494D452283
:103690003A25642C2254564F43223A252E32662C6A
:1036A000224154223A252E31662C224148223A25C5
:1036B0002E31667D00000000D8360408000000208E
:1036C000F800000020180408D0370408F800002093
:1036D000481000003018040800000000000000003E
:1036E00000000000000000000000000000000033A7
:1036F000392E3130342E36382E3139390000000061
:10370000ADF000000000000000000000000000001C
:1037100000000000000000000100000000000000A8
:1037200000000000000000000000000036312E31D3
:1037300036342E3231382E3135350000FF036A65BC
:1037400063696E666F003171617A327773782C2EFF
:10375000002F41514D332E302F766F6373007570FB
:10376000646174652E6A656300000000000000005B
:103770000000000000000000000000000000000049
:103780000000000000000000000000000000000039
:103790000000000000000000000000000000010028
:1037A00000000001020304010203040607080900E7
:1037B000007A030A00000000000000000102030478
:1037C00006070809000000000000000000000000DB
:040000050804018961
:00000001FF
