:020000040800F2
:10000000B82A00205502000831260008C51D000846
:100010006B240008ED190008612F000800000000A3
:10002000000000000000000000000000212800087F
:10003000AD1A000800000000D526000811290008AC
:100040006F0200086F0200086F0200086F020008CC
:100050006F0200086F0200086F0200086F020008BC
:100060006F0200086F0200086F0200086F020008AC
:100070006F0200086F0200086F0200086F0200089C
:100080006F0200086F0200086F0200086F0200088C
:100090006F0200086F0200086F0200086F0200087C
:1000A0006F0200086F0200086F0200086F0200086C
:1000B0006F020008212A00086F0200086F02000882
:1000C0006F0200086F0200086F0200086F0200084C
:1000D0006F020008152C0008C52C0008652D0008CB
:1000E0006F0200086F0200086F0200086F0200082C
:1000F0006F0200086F0200086F0200086F0200081C
:100100006F0200086F0200086F0200086F0200080B
:10011000692B00086F0200086F0200086F020008D8
:100120006F0200086F0200086F0200086F020008EB
:100130006F0200086F0200086F0200086F020008DB
:100140006F0200086F0200086F0200086F020008CB
:100150006F0200086F0200086F0200086F020008BB
:100160006F0200086F0200086F0200086F020008AB
:100170006F0200086F0200086F0200086F0200089B
:100180006F0200086F02000800F002F800F052F859
:100190000AA090E8000C82448344AAF10107DA45E2
:1001A00001D100F047F8AFF2090EBAE80F0013F0E2
:1001B000010F18BFFB1A43F0010318474C3C000025
:1001C0006C3C0000103A24BF78C878C1FAD85207B6
:1001D00024BF30C830C144BF04680C6070470000C1
:1001E0000023002400250026103A28BF78C1FBD840
:1001F000520728BF30C148BF0B607047662903F023
:100200000D85642900F0AC80782900F0E580732921
:1002100000F0D985002070471FB503F0FAFC00F00C
:10022000D7FD04000020002103F066FCE0601FBD44
:1002300010B510BD00F0CCFE1146FFF7EDFF03F046
:1002400055F800F0EAFE03B4FFF7F2FF03BC00F03C
:100250002DFF00000948804709480047FEE7FEE7F8
:10026000FEE7FEE7FEE7FEE7FEE7FEE7FEE7FEE766
:1002700004480549054A064B70470000B9290008A3
:1002800089010008B8120020B82A0020B8220020F6
:10029000B82200200FB41CB5084B06AA7B4469465F
:1002A0000090059800F065FD04460020694600F0C6
:1002B00073FD20461CBC5DF814FB0000F90A000029
:1002C00070B5044685690068C10601D5302600E096
:1002D0002026C00707D070BDD4E9012130469047E1
:1002E000206A401C20626D1EF6D570BD70B50446B4
:1002F00085690078C00707D170BDD4E901212020AD
:100300009047206A401C20626D1EF6D570BD70B506
:100310000C460546012A05D02878800600D5EA69F2
:10032000002302E0012305E05B1C934202D2E05C63
:100330000028F9D1A869E618C01AA861286A1844EB
:1003400028622846FFF7BCFF04E0D5E9012114F834
:10035000010B9047B442F8D32846FFF7C7FF70BDA2
:100360002DE9F0410646002410687529314616A58E
:1003700010D0AFF30080002802DA404213A507E056
:1003800031688A0701D512A502E0490704D511A5F5
:10039000012401E0AFF3008000210A2206F12407C6
:1003A00009E0B0FBF2FCB0FBF2F302FB1C003030C2
:1003B00078541846491C0028F3D123462A46304673
:1003C000BDE8F04100F067BA000000002D00000019
:1003D0002B0000002000000070B504460D462146A9
:1003E0001068AFF300802188090502D50F4A7A44CE
:1003F00002E00E4A7A440E32002104F1240305E0A3
:1004000000F00F060009965D5E54491C0028F7D1E4
:1004100020780023000704D5702D02D009B10223F3
:1004200011322046BDE8704000F035BA8638000031
:100430002DE9F05F894604464FF0000ADFF824B149
:10044000FB44C0F820A02046E168884700287DD002
:10045000252806D0D4E901219047206A401C20625B
:10046000F1E700255F462046E168884720280646D8
:1004700007DB312E05D2B81910F8200C08B105435E
:10048000F1E7A80701D525F00405C4F81CA0002752
:10049000C4F818A02A2E09D0304602F07BFD38B3EC
:1004A00004EB8708303EC8F8186019E059F8041BBF
:1004B000204604EB87029161E1688847012F0646D8
:1004C00018D1E069002820DA25F020051DE0D8F8D1
:1004D000180000EB800006EB40003038C8F8180028
:1004E0002046E1688847064602F054FD0028EED118
:1004F000012F0AD02E2E08D12046E16888477F1CA4
:100500000646022F45F02005C4DBA069002803DA67
:10051000404245F00105A061E80701D025F0100533
:10052000A6B1A6F14100192802D8203645F400658D
:100530004A463146204625604D46FFF75FFE60B1D2
:10054000012807D0ED1D25F0070000E007E000F1CD
:10055000080978E705F1040975E730467AE7206A6B
:10056000BDE8F09F5C38000010B5431C02E010F8B5
:10057000011B71B18107FAD14FF0013202C88C1A08
:100580008C4314EAC211F9D0C01A0A0603D0C01E67
:1005900010BDC01A10BD0A0401D0801E10BD090292
:1005A000FCD0401E10BD032A40F2308010F0030C36
:1005B00000F0158011F8013BBCF1020F624498BFB6
:1005C00011F801CB00F8013B38BF11F8013BA2F153
:1005D000040298BF00F801CB38BF00F8013B11F0CE
:1005E000030300F02580083AC0F0088051F8043B6E
:1005F000083A51F804CBA0E80810F5E7121D5CBFDB
:1006000051F8043B40F8043BAFF30080D20724BF0D
:1006100011F8013B11F801CB48BF11F8012B24BFA1
:1006200000F8013B00F801CB48BF00F8012B7047F0
:1006300010B5203AC0F00B80B1E81850203AA0E87D
:100640001850B1E81850A0E81850BFF4F5AF5FEAB1
:10065000027C24BFB1E81850A0E8185044BF18C964
:1006600018C0BDE810405FEA827C24BF51F8043B0B
:1006700040F8043B08BF7047D20728BF31F8023B5F
:1006800048BF11F8012B28BF20F8023B48BF00F8F3
:10069000012B70474FF0000200B513469446964672
:1006A000203922BFA0E80C50A0E80C50B1F1200185
:1006B000BFF4F7AF090728BFA0E80C5048BF0CC033
:1006C0005DF804EB890028BF40F8042B08BF704791
:1006D00048BF20F8022B11F0804F18BF00F8012B03
:1006E0007047000010B503681C1404EB21449BB252
:1006F00089B2194494FBF2F302FB134394FBF2F426
:1007000001EB034393FBF2F102FB113193FBF2F394
:1007100001E05B1E11440029FBDB016003EB044098
:1007200010BDF0B504464FF0FF3585B00068049069
:1007300060680290A0680390E068019020690090D2
:10074000666906F18040B0F1004F7CD83C22002160
:1007500004A8FFF7C7FF3C22014602A8FFF7C2FF2B
:100760001822014603A8FFF7BDFF411E40F2B55213
:1007700001A8FFF7B7FF0C22074668460021FFF7E4
:10078000B1FF414B00EB8700304400267B4411E071
:10079000511A01910099491C0229009102D00C299B
:1007A00008D105E0810705D00199491C019101E0BC
:1007B000401C00960099019A595C9142E8DD00992D
:1007C000012906D11C2A04D1810702D00221CDE9DA
:1007D0000016A0F146018B293CD2DDE90061002220
:1007E00002E09F5C521C3944B242FADB012E02DD6A
:1007F000820700D0491E40F2B55340F26D16C21771
:1008000000EB927292105A4300F0030303FB06229E
:1008100083070A4400D1521E039E02EB4203049F49
:1008200006EBC303029EC3EB031306EB8303174ED1
:1008300033441E149BB2C6EB0616C3EB0313B6007B
:1008400007EB830300E005E006EB134666F31F4366
:10085000360C02D0284605B0F0BD80C4029E40C4CC
:10086000039E40C4019E761C44F80C6B009E44E934
:1008700002600720521C92FBF0F600FB162084E871
:1008800023001846E7E7000021350000A039CEFD1F
:100890007047704770472DE9F0470D4699469246DC
:1008A000044600F124080168880604D5E06921F0B7
:1008B0001001216000E00120A84201DD471B00E09B
:1008C0000027A1697A1902EB0900081AA0612078B3
:1008D000C00602D42046FFF7F3FC002608E0D4E966
:1008E00001211AF806009047206A401C761C2062FD
:1008F0004E45F4DB2078C0060AD52046FFF7E0FC21
:1009000006E0D4E9012130209047206A401C206293
:10091000381EA7F10107F4DC07E0D4E9012118F83B
:1009200005009047206A401C2062281EA5F10105A1
:10093000F3DC2046FFF7DAFC2078000602D502201F
:10094000BDE8F0870120FBE770472DE9FF4F0C461B
:100950001E464FF0FF378BB0D2E90001DDF8608012
:100960000A908A46C1F30A5505B93D46002108465A
:100970004FF00000BAF1000F00F4400005DA00EB80
:1009800080004FF4400101EA50004FEA9059B9F15C
:10099000010F00DDB9460A9850EA4A000ED044F62D
:1009A0001050A5F2FF3545432F14B8F1000F1ED0AB
:1009B0007542291E1EDDC9F100021CE0B8F1010FCD
:1009C0004FF0000001D0302103E0F24305E0215454
:1009D000401CB042FBDB30460022002121540B9921
:1009E000C1F80880C1E900200FB0BDE8F08FBD1B41
:1009F0006D1CDEE74A4600DA694206A800F072FA8A
:100A000006AB93E8070003AB83E8070050460A995A
:100A100000F053FB8DE80700A0F500501F38009050
:100A20000398002D0ADD42F21F014A4608440023C4
:100A300003A90390684600F0BCFD09E0A0F5005052
:100A40004A461F38002303A90390684600F0C6FDFC
:100A50008DE807000004000C03D04FF0FF30410880
:100A600000E01046B8F1000F03D0002200921546B6
:100A70001EE0751E05D400F0AFF9303262556D1ED0
:100A8000F9D5B3460122084302D000227F1C04E0BE
:100A90002078302801D100227F1E002A099784D0B7
:100AA0001DE0112D07DA00F097F9303262556D1C08
:100AB00050EA0102F5D1084302D00098C8B10EE017
:100AC0000021681E05E0235C625C63542254401ED2
:100AD000491C8142F7DBAB46A81B401E0990002051
:100AE00004F80B000B98099AC0F80880C0E9002BA5
:100AF0007AE711264FF0000857E72DE9F04F8846B6
:100B00000446D21D22F0070191B0D1E90001CDE9E0
:100B10000A0102F027FA02460B98C00F01D02D20DF
:100B200007E02068810701D52B2002E0202101EA9F
:100B3000C000032A099001D0072A05DB034641467D
:100B4000204600F08FF90BE12078800601D5E0699E
:100B500000E00620B8F1650F814606D0B8F1660FB7
:100B600018D0B8F1670F70D131E00020B9F1110F42
:100B7000009001DB112301E009F101030AAA01A998
:100B80000CA8FFF7E2FEDDE90C70002609F1010573
:100B9000834647E001204B4600904FF000470AAAE9
:100BA00001A90CA8FFF7D1FEDDE90DB00C995D4657
:100BB000002610B909F101000D18B9EB050003D4A6
:100BC000C0F1FF3609F10105A5EB09002BE0B9F1F1
:100BD000010F01DA4FF001090020B9F1110F009067
:100BE000484601DD112300E003460AAA01A90CA82A
:100BF000FFF7ABFEDDE90C704D46002683462078FA
:100C000000070AD4AB4500DA5D4601A8012D04DDDA
:100C1000411911F8011C302907D04F4502DA17F1AC
:100C2000040F04DA012082460FE06D1EEEE7002F6C
:100C300002DCED1B3E4403E0781CA84200DD7D1C75
:100C4000B81B00F1010A4FF000472078000703D4D9
:100C5000AA4501DB4FF0FF3A0021B7F1004F0DF13B
:100C600043088DF8431024D002202B23002F01DAF3
:100C70007F422D230A21021EA0F1010000DC5FB19A
:100C800097FBF1FC97FBF1F201FB1C7C17460CF182
:100C9000300C08F801CDEEE7A8F1010003702188BF
:100CA000090501D5452100E06521A0F1010800F802
:100CB000011C09980FA9A1EB0807FF1D00B1012035
:100CC000411901EBEA70A1693844081A401EA0617D
:100CD0002078C00602D42046FFF7F2FA099828B11E
:100CE000D4E901219047206A401C20622078C00688
:100CF00022D52046FFF7E4FA1EE0002E04DBB345C0
:100D000002DD01A8805D00E03020D4E90121904798
:100D1000206A401C2062761CAAF101005FEA000AEA
:100D20000AD100F055F8C0680168405CD4E901219F
:100D30009047206A401C2062281EA5F10105DCDCDA
:100D400007E0D4E9012118F8010B9047206A401C04
:100D50002062381EA7F10107F3DC2046FFF7C6FA30
:100D6000032011B041E6000001694A1C02610878C5
:100D7000704700B58FB0CDE90131002105910549DB
:100D80007944CDE9031011466846FFF751FB0FB0D7
:100D900000BD0000E5FFFFFF0A6802F8010B0A60D2
:100DA000704710B5436913B1AFF3008001E0FFF75E
:100DB000AEFA012010BD127800F124010A70002261
:100DC0004A700122EDE711684FF0FF32E9E70000B9
:100DD000004870477412002030B5B0F10A024FEAA3
:100DE000900E71F100034EEA817EB0EB0E0061EBD4
:100DF00091014FEA101E4EEA017E10EB0E0041EB0E
:100E000011114FEA102E4EEA016E10EB0E0041EB6D
:100E100011214FEA104E4EEA014E10EB0E0041EB4D
:100E20001141401841F100014FEAD00040EA417001
:100E30004FEAD10110EB80054FEA810444EA907437
:100E400044EB01046D1944EB0404521BA3414FF021
:100E5000000348BF0A3200D530BD401C41F10001FB
:100E600030BD00002DE9F0411F460446032601680D
:100E7000072A01F4006004DB08B116A505E016A5F9
:100E800003E008B115A500E015A521F010002060D1
:100E9000A069C01EA0610FB1401EA0612046FFF7EF
:100EA0000FFA4FB1D4E9012138469047206A401C1F
:100EB0002062C01C206206E0206AFAE7D4E9012122
:100EC00015F8010B9047761EF8D22046FFF70EFA70
:100ED000BDE8F0814E414E006E616E00494E460005
:100EE000696E66002DE9F047814616468AB035489E
:100EF00078440DC88DE80D0032487844801C03AC5E
:100F00000DC884E80D0041F69B300844372190FB62
:100F1000F1F290FBF1F5A5F1800501FB12041B3CF9
:100F200002D56442012000E00020DFF898A080464E
:100F30000027FA44AAF1BE0A0EE0E0070AD03246C2
:100F4000684607EB470101230AEB810100F046FBED
:100F50008DE8070064107F1C002CEED1194F7F44F0
:100F6000AE3F19E0E80715D007EB04100DF1180AA1
:100F700090E80E008AE80E00C068F04201D198198E
:100F800008903246012306A903A800F027FB03AB13
:100F900083E807006D10641C002DE3D14FF00103BE
:100FA00032466946B8F1000F03A802D000F001FBF9
:100FB00001E000F013FBC9E90001C9F808200AB0FC
:100FC000BDE8F087482E000000487047541200200A
:100FD0007546FFF7F9FFAE4605006946534620F017
:100FE0000700854618B020B5FFF742F9BDE820405C
:100FF0004FF000064FF000074FF000084FF0000BD5
:1010000021F00701AC46ACE8C009ACE8C009ACE887
:10101000C009ACE8C0098D46704710B50446AFF36F
:1010200000802046BDE81040FFF70DB94FF0013CAD
:1010300050F8042B51F8043B9A4221D1A2EB0C0347
:10104000934313EACC1317D150F8042B51F8043B07
:101050009A4215D1A2EB0C03934313EACC130BD1A4
:1010600050F8042B51F8043B9A4209D1A2EB0C032F
:10107000934313EACC13DBD04FF00000704700BF5E
:10108000D01A01BAB1FA81F101F0180122FA01F087
:10109000CB40C1F12001DBB2C0B2C01A2CFA01F37F
:1010A000D11A914311EAC311E6D1704701491820C2
:1010B000ABBEFEE72600020070475FEA400C08BFA7
:1010C00091F0000F4FEA8C234FEAC12243EA5151BD
:1010D0004FEA1C5018BF00F5F0404FEA300018BF2F
:1010E00041F000415FEA6C5C00F02980BCF1FF3FF9
:1010F00008BF40F080407047130C06BF12044FF049
:10110000100C4FF0000C130E04BF12020CF1080C6F
:10111000130F04BF12010CF1040C930F04BF9200D3
:101120000CF1020CD30F04BF52000CF1010C11465C
:101130004FF00002A0F11F00A0EB0C00704711F06F
:10114000004F08BF704731F000413FF4D5AF0B0CA2
:1011500006BF09044FF0100C4FF0000C0B0E04BF3B
:1011600009020CF1080C0B0F04BF09010CF1040C6F
:101170008B0F04BF89000CF1020CCB0F04BF490098
:101180000CF1010CCCF12003A0EB0C0022FA03F3CC
:1011900002FA0CF241EA030100F10100704720F06D
:1011A0007F4C80EA030023F07F47ACEB070303F595
:1011B0007C5300F0004003F1FF032DE980494FEA22
:1011C000154B09B44FEA144325EA0B4E24EA0348B1
:1011D0000FF2042606EB132749083E785FEA320235
:1011E00003FB0667C7F5000707FB06F64FEA54370F
:1011F0004FEAD64606F1020607FB066CCCF1005C0E
:101200004FEA1C472CEA074C07FB06F40CFB06F5DB
:1012100004EB15464FEA961634BF00204FF000400D
:101220004FEAD13706FB07FC4FEA1C4C0CFB0BF7CF
:10123000D21B03FB0CF761EB07010CFB0EF7B0EBC5
:10124000074072EB17420CFB08F734BFA2EB0742D2
:10125000B2EB074261EB17414FEA0C444FEA9107AA
:1012600006FB07FC4FEA1C4C0CFB0BF7B0EBC7402E
:1012700072EB573203FB0CF734BFA2EBC742B2EB61
:10128000C74261EB57310CFB0EF7B0EBC70072EBB6
:1012900057720CFB08F734BFA2EBC702B2EBC702D0
:1012A00061EB5771039F4FEA816141EA921104EBB0
:1012B000CC044FEAD1374FEA826206FB07FC42EAD0
:1012C00090124FEA80604FEA1C4C0CFB0BF7D21BCC
:1012D00003FB0CF761EB07010CFB0EF7B0EB0740CB
:1012E00072EB17420CFB08F734BFA2EB0742B2EBDC
:1012F000074261EB17414FEA8C554FEA910704EB27
:101300009C2406FB07FC4FEA1C4C0CFB0BF7B0EBD4
:10131000C74072EB573203FB0CF734BFA2EBC74256
:10132000B2EBC74261EB57310CFB0EF7B0EBC700D5
:1013300072EB57720CFB08F734BFA2EBC702B2EB9B
:10134000C70261EB577115EB4C254FEA816141EA09
:1013500092114FEA82624FEAD13742EA901206FBBD
:1013600007FC44F100044FEA80604FEA1C4C0CFB80
:101370000BF7D21B03FB0CF761EB07010CFB0EF71D
:10138000B0EB074072EB17420CFB08F734BFA2EB3F
:101390000742B2EB074261EB174115EB1C154FEA10
:1013A000813141EA92414FEA823242EA90424FEA69
:1013B00080304FEA0C7644F1000448EA03434EEAD9
:1013C0000B484FF0000EB2EB080C71EB030724BF83
:1013D000624639464EEB0E0E4FF0000B001852419C
:1013E00049414BEB0B0BB2EB080C71EB03077BF1A4
:1013F000000B24BF624639464EEB0E0E4FF0000B39
:101400000018524149414BEB0B0BB2EB080C71EB4E
:1014100003077BF1000B24BF624639464EEB0E0EEC
:1014200051EA020718BF46F0010616EB0E7655F199
:10143000000254F1000103D5BDE88901BDE8008830
:10144000BDE88901BDE80048B619524141EB0101F0
:10145000A3F10103704780807F7E7D7C7B7A797861
:10146000777676757473727171706F6E6E6D6C6C69
:101470006B6A6A696868676666656464636362610B
:101480006160605F5F5E5E5D5D5C5C5B5B5A5A598C
:1014900059585857575656555555545453535252F8
:1014A0005251515050504F4F4F4E4E4D4D4D4C4C50
:1014B0004C4B4B4B4A4A4A49494948484847474799
:1014C00047464646454545444444444343434342D6
:1014D000424242414141002B9C4630D477002BD000
:1014E0001CB54FEA370703B44FF010004FF010015E
:1014F000BAF1000F06D0BCF1000FDCBF40F00800CD
:1015000040F008014FF000000FBCBDE810400BF1A7
:10151000010BBBF1010F08BF5FEA170722BF12F1F1
:10152000010211F101014FF0004143F1000300F00D
:10153000004043EA00007047F9D35708D0E746EA75
:10154000064613F1400F4FEA16461FDD13F1200F38
:10155000DFBF16430A46002120335B42BED0C3F1F1
:10156000200746EA064602FA07F74FEA164646EA19
:101570000706C3F1200722FA03F201FA07F721FA5E
:1015800003F14FF0000342EA0702A7E746EA02062A
:1015900046EA06464FEA164646EA0106BCBF46EA58
:1015A0000646360C4FF000034FF000024FF00001EA
:1015B00094E72DE9804C9A46934670B491E8380040
:1015C00007C831EA400C48BF34EA430C03D5FFF7A3
:1015D000E6FDFFF780FFF0BCBDE8008C2DE9804CF4
:1015E0009A46934670B491E8380007C810F0804FCF
:1015F00008BF13F0804F03D100F005F8FFF76BFF31
:10160000F0BCBDE8008C20F07F4780EA030023F0A7
:101610007F4C07EB0C03A3F57C5300F00040A3F1D3
:10162000FE0392F0000F00F0B38095F0000F00F081
:1016300077802DE901494FEA11404FEA144621EA2B
:10164000004800FB06FC24EA064708FB06F607FBF9
:1016500008F800FB07F718EB06484CEB164C4FEA6E
:10166000124B18EB07484FEA15464CEB174022EA9D
:101670000B4E0BFB06FC25EA06470EFB06F607FBA6
:101680000EFE0BFB07F71EEB064E4CEB164C4FF015
:1016900000061EEB074E4CEB174B18EB0B0840F106
:1016A000000018EB0E0B58EB000840F100008F1AF9
:1016B0004FF000013CBFC943661B14BFB5EB040CDF
:1016C00000213CBFC943F61B4FEA17444EEA8E0E79
:1016D00027EA04454FEA1C4704FB07622CEA074C43
:1016E00005FB07F70CFB05F604FB0CFC16EB0746A5
:1016F00042EB174216EB0C4642EB1C421BEB060674
:1017000058EB0202414146EA9E0601D5BDE8018937
:10171000B619524141EB0101A3F10103BDE8018972
:101720004FEA14454FEA114724EA054621EA074CDF
:1017300005FB07F406FB07F70CFB06F105FB0CFCA9
:1017400011EB074144EB17444FEA124711EB0C41F0
:1017500044EB1C4422EA074C05FB07F206FB07F7A3
:101760000CFB06F605FB0CFC16EB074642EB17429A
:1017700016EB0C4642EB1C456A1854F1000148BFB9
:101780007047B619524141EB0101A3F101037047C3
:1017900095F0000F37D04FEA11424FEA144721EA83
:1017A000024624EA074C02FB07F106FB07F70CFB95
:1017B00006F402FB0CFC14EB074441EB17414FEA23
:1017C000154714EB0C4441EB1C4125EA074C02FB86
:1017D00007F506FB07F70CFB06F602FB0CFC16EB05
:1017E000074645EB174516EB0C4645EB1C42121914
:1017F00051F1000148BF7047B619524141EB010158
:10180000A3F1010370474FEA14454FEA114724EA58
:10181000054621EA074C05FB07F106FB07F70CFB21
:1018200006F24FF0000605FB0CFC12EB074241EB01
:10183000174112EB0C4251EB1C4148BF7047921804
:1018400041EB0101A3F101037047000070B50026D0
:1018500013A11648FEF71EFD054600201449086036
:10186000002403E0002013490855641C1E2CF9DBFA
:1018700029460E4801F010FA642001F0D1FC0C4812
:101880000068401C0C49086008460168094801F0DE
:10189000ABF90848C07A312800D10126304670BD26
:1018A00041542B43455245473F0D0A00E8050020AF
:1018B00080000020DC0700208400002070B5054671
:1018C00019A11C48FEF7E6FC064600201A490860EC
:1018D000002403E0002019490855641C1E2CF9DB84
:1018E0003146144801F0D8F9642001F099FC1248FF
:1018F0000068401C12490860084601680F4801F062
:1019000073F90E48C07E4F280DD10C48007F4B283C
:1019100009D1002405E004F108000849085C2855B5
:10192000641C0F2CF7DB70BD41542B4347534E3DD5
:10193000310D0A00E805002080000020DC070020AF
:101940008400002070B5002621A12448FEF7A2FCE7
:101950000546002022490860002403E000202149B8
:101960000855641C1E2CF9DB29461C4801F094F92B
:10197000642001F055FC1A480068401C1A490860B0
:1019800008460168174801F02FF917480068401F02
:101990001449085C4F2818D113480068001F085CE0
:1019A0004B2812D10846007A2C2804D10846C07969
:1019B000A0F1300609E00B48007A30380949C979AE
:1019C000303901EB810100EB4106304670BD00006B
:1019D00041542B4353510D0A00000000E80500203C
:1019E00080000020DC0700208400002000BFFEE70C
:1019F0002DE9F04107460D4690460024002601F0EF
:101A0000E3FA002849D03CE02549E01D085CA52800
:101A100004D104F10800085C5A280DD0204904F1D3
:101A20000B00085CA52804D104F10C00085C5A28BE
:101A300002D0601CC4B224E01948005D11380728A8
:101A40001CDA1748005D1138002817D41448005DCF
:101A5000152801D1092600E00D2601211048005D5E
:101A60001138104A11540E48005D1138C2B229468F
:101A70000B4801F031FBA019C4B201E0601CC4B2F4
:101A800000BF09480068092804DB074800680938D6
:101A9000A042B9DA002004490860BDE8F0810000E6
:101AA0009C090020A80000208C0000207047F0B5A1
:101AB0000A4600210023002400BF3DE0012505FA6D
:101AC00001F3156805EA03049C4234D105684F0010
:101AD0000326BE40B543056015794E00B540066843
:101AE000354305601579012D02D01579022D16D1E7
:101AF00085684F000326BE40B543856055794E008A
:101B0000B540866835438560456801268E40B543FB
:101B10004560456896798E40B6B235434560C568E4
:101B20004F000326BE40B543C560D5794E00B54091
:101B3000C6683543C560491C1029BFD3F0BDF0B558
:101B4000002300244D07ED0E02FA05F3CE1000F13C
:101B5000200555F826504E07F70E0F26BE40B54318
:101B6000CF1000F1200646F82750CE1000F12005D6
:101B700055F8265045EA0304CE1000F1200545F83B
:101B80002640F0BD41837047018370472DE9FF5F18
:101B900005460F4690469946DDF838A000240026F9
:101BA000288800F47F40288000BF09E0062096FBCB
:101BB000F0F100FB11607F4901220A54701CC6B28B
:101BC000122EF3DB0024C6E0062094FBF0F100FBAC
:101BD00011407849085C002856D0062C54DA0620BB
:101BE00094FBF0F100FB114000F0FF0B584601F0B0
:101BF00003FB0020704908707049087000BF6F48EF
:101C000000780228FBDB062094FBF0F100FB11407A
:101C10006849085C401C062194FBF1F201FB12416B
:101C2000644A5054062094FBF0F100FB1140114629
:101C3000085C032811DD062094FBF0F100FB114144
:101C400002208840298808432880062094FBF0F170
:101C500000FB1140114600220A540020564908702A
:101C60005649087000BF554800780128FBDB062064
:101C700094FBF0F100FB114000F0FF0B5A46504975
:101C80006846FFF7B5FE64E0062C5DDD062094FB98
:101C9000F0F100FB11404749085C012854DD0620A3
:101CA00094FBF0F100FB114000F0FF0B584601F0EF
:101CB000A3FA0020404908704049087000BF3F481F
:101CC00000780228FBDB062094FBF0F100FB1140BA
:101CD0003849085C401C062194FBF1F201FB1241DB
:101CE000344A5054062094FBF0F100FB1140114699
:101CF000085C032811DD062094FBF0F100FB114184
:101D000002208840298808432880062094FBF0F1AF
:101D100000FB1140114600220A5400202649087099
:101D20002649087000BF254800780128FBDB062003
:101D300094FBF0F100FB114000F0FF0B5A462049E4
:101D40006846FFF755FE04E028880221A1400843B9
:101D50002880601CC4B21E2CFFF636AF184890EDE8
:101D6000000A119880ED000A154890ED010A1298BA
:101D700080ED000A124890ED020A0F9880ED000AEB
:101D80000F4890ED030A109880ED000A0C4890ED82
:101D9000040A89ED000A90ED050A88ED000A90ED2D
:101DA000060A8AED000A90ED070A87ED000ABDE8F1
:101DB000FF9F0000A8000020A4000020A500002034
:101DC0003412002000BFFEE71CB501210F2000F0F7
:101DD00083FC48F2C030009001208DF80400002000
:101DE0008DF806008DF8050001208DF80700694682
:101DF0003148FFF75CFE4FF40140009001208DF860
:101E0000040000208DF806008DF8050001208DF8F3
:101E1000070069462948FFF74AFE4FF480500090BA
:101E200001208DF8040000208DF806008DF80500D3
:101E300001208DF8070069462148FFF738FE4FF46E
:101E4000A040009000208DF804008DF805000120CE
:101E50008DF8070069461848FFF729FE4FF4C05077
:101E6000009000208DF804008DF8050001208DF809
:101E7000070069461148FFF71AFE04200090002071
:101E80008DF804008DF8050001208DF807006946E3
:101E90000C48FFF70CFE4FF4E0710748FFF774FEA3
:101EA0004FF400410448FFF76FFE4FF40041034830
:101EB000FFF76AFE1CBD000000080240000002405F
:101EC00000040240000C024000B587B00121084622
:101ED00000F002FC0121102000F01EFC0722092165
:101EE0007B48FFF72CFE07220A217948FFF727FEDF
:101EF0004FF4C060009002208DF804008DF80500BA
:101F000000208DF8060001208DF807006946704812
:101F1000FFF7CDFD4FF4E13002900020ADF80C004A
:101F2000ADF80E00ADF81000ADF814000C20ADF8BF
:101F3000120002A9674800F0A9FF0121654800F0DE
:101F40004AFF4021634800F03DFF012240F2255145
:101F5000604800F076FF25208DF8180003208DF8EA
:101F6000190000208DF81A0001208DF81B0006A82A
:101F700000F060FB0121084600F0AEFB012148049F
:101F800000F0BAFB072202215148FFF7D8FD0722D3
:101F900003214F48FFF7D3FD0C20009002208DF85D
:101FA00004008DF8050000208DF8060001208DF852
:101FB000070069464648FFF77AFD4FF41650029035
:101FC0000020ADF80C00ADF80E00ADF81000ADF833
:101FD00014000C20ADF8120002A93F4800F056FF93
:101FE00001213D4800F0F7FE40213B4800F0EAFEA9
:101FF000012240F22551384800F023FF26208DF8B9
:10200000180003208DF819008DF81A0001208DF8B2
:102010001B0006A800F00EFB0121022000F05CFB73
:102020000121880400F068FB07220A212B48FFF7F2
:1020300086FD07220B212948FFF781FD4FF4406000
:10204000009002208DF804008DF8050000208DF826
:10205000060001208DF8070069462048FFF727FD9C
:102060004FF4E13002900020ADF80C00ADF80E0006
:10207000ADF81000ADF814000C20ADF8120002A964
:10208000174800F003FF0121154800F0A4FE4FF4AB
:1020900080511248FFF776FD4021114800F092FE72
:1020A000012240F225510E4800F0CBFE27208DF88A
:1020B000180000208DF8190002208DF81A00012068
:1020C0008DF81B0006A800F0B5FA07B000BD0000AF
:1020D00000000240001001400044004000040240A3
:1020E0000048004030B50246002300BF0846CD1727
:1020F00001EB5565ED11A1EBC515ECB2CD1701EB68
:102100005565E911002901DD44F0800418465B1C87
:1021100014540029EADC184630BD0000401C802819
:1021200001DA401C0AE0B0F5804F01DA801C05E0BE
:102130000349884201DAC01C00E0001D704700001E
:10214000FFFF1F002DE9FE4305460E46144602958B
:1021500000200190009000274FF0FF38204600F04B
:10216000A5F807468146FFF7D9FFB04202DD6FF0C0
:1021700001088FE000208DF80400019820F0F000A5
:10218000103001909DF8041002A801F077FC394648
:102190000298FFF7A7FF029908440290207A0428CA
:1021A00008D13EA102A801F055FC042102A801F0CB
:1021B00065FC07E03BA102A801F04CFC032102A84A
:1021C00001F05CFC00208DF80000A17E009861F316
:1021D00041000090E07E08B1012100E0002100985C
:1021E00061F3820000900098C0F3800058B194F829
:1021F0003D10009861F3C400009094F83C100098E2
:1022000061F345100090206C08B9A06C20B10098D3
:1022100020F0800080300090E06C08B9606D20B143
:10222000009820F04000403000909DF8001002A877
:1022300001F024FC218B02A801F026FC02A8D4E9BD
:102240000423E16801F038FCE07E58B102A8D4E92B
:102250000A23616A01F030FC02A8D4E90D23216B46
:1022600001F02AFC0098C0F3C01028B102A8D4E9FC
:102270001123216C01F020FC0098C0F3801028B1DC
:1022800002A8D4E91423E16C01F016FC0298A0EB3B
:10229000050800BF4046BDE8FE8300004D51545480
:1022A000000000004D5149736470000070B5044691
:1022B0000025207A032801D10C2503E0207A042888
:1022C00000D10A25D4E90412E06800F0C2F8801CAD
:1022D0000544E07E68B1D4E90A12606A00F0B9F8FA
:1022E000861CD4E90D12206B00F0B3F83044801C3A
:1022F0000544206C08B9A06C30B1D4E91112206CEF
:1023000000F0A7F8801C0544E06C08B9606D30B19E
:10231000D4E91412E06C00F09CF8801C05442846B7
:1023200070BD70B504460D460E222946204600F0C9
:102330006AF870BD2DE9F04F87B005460F4690460C
:102340001C46DDE915B6DDE9109A069500200590DA
:10235000049003900096204612A90EC900F042F89E
:1023600004900290FFF7DAFEB84203DD6FF001003F
:10237000039033E0059820F0F00030300590059888
:1023800068F3C3000590059864F342000590059832
:1023900069F3000005909DF8141006A801F06EFB8B
:1023A00004990698FFF79EFE06990844069006A831
:1023B00012A90EC901F080FB002C03DD514606A8CE
:1023C00001F062FB324659460698FEF7ECF8069893
:1023D000304406900698401B039000BF039807B056
:1023E000BDE8F08F7FB50546089E002401A807C808
:1023F00000F02FF8801C30440444002D00DDA41CA4
:10240000204604B070BD2DE9FC4104460D46164639
:1024100000200190471E0094022D01DA871E15E06E
:1024200000208DF80400019866F3071001909DF8D4
:102430000410684601F022FB00210098FFF752FECD
:102440000099084400900098071B00BF3846BDE87B
:10245000FC8137B50024009820B10098FEF784F87D
:10246000044600E0019C20463EBD00BFFEE70000A0
:1024700070B505462A4612A11548FDF70BFF144812
:10248000FEF772F80646002012490860002403E0B7
:10249000002011490855641C1E2CF9DB31460C48FC
:1024A00000F0FAFB642000F0BBFE0A480068401C04
:1024B0000A49086008460168074800F095FB70BDAE
:1024C00041542B4E534F434C3D25640D0A000000F0
:1024D000E805002080000020DC07002084000020A8
:1024E0002DE9F0410646002500271AA11D48FDF7F9
:1024F000D1FE054600201C490860002403E00020AE
:102500001A490855641C1E2CF9DB2946154800F0B1
:10251000C3FB642000F084FE15A1144800F0BEFE49
:10252000051E13DD00240EE0281D00EB44000F49BA
:10253000095C3039E81C00EB44000C4A105C01EBEC
:1025400000103055641C042CEEDB04273846BDE82F
:10255000F081000041542B4E534F52463D312C34F4
:102560000D0A0000E805002080000020DC070020A4
:1025700033392E3130342E36382E3139392C36312C
:10258000363133002DE9F84307460E4690460024C5
:1025900008E03A5D1A49022303FB041019A1FDF774
:1025A00079FE641CB442F4DB0020154A02F81400E2
:1025B00010463346424615A100901948FDF76AFEC1
:1025C0000446002017490860002503E00020164952
:1025D00048556D1C1E2DF9DB2146114800F05CFBAF
:1025E00041F2883000F01CFE0E480068401C0F4984
:1025F0000860084601680C4800F0F6FABDE8F88368
:10260000840D0020253032582000000041542B4E0C
:10261000534F53443D25642C25642C25730D0A002B
:10262000E805002080000020DC0700208400002056
:102630007047000070B5002100230F22C4781CB33E
:10264000174C246804F4E064C4F5E064C4F3072183
:10265000C1F10404E3B20A4144789C40E1B28478B9
:10266000144021430C07210E0E4C05786155047867
:1026700004F01F050124AC4005786D11AD0005F193
:10268000E025C5F8004109E0047804F01F050124A5
:10269000AC40054D0678761145F8264070BD000027
:1026A0000CED00E000E400E080E100E010B500285F
:1026B00007DA0A07140E054A00F00F031B1FD45453
:1026C00003E00A07130E024A135410BD18ED00E090
:1026D00000E400E07047000029B1064A1268024396
:1026E000044B1A6004E0034A12688243014B1A60EB
:1026F000704700003038024029B1064A1268024390
:10270000044B1A6004E0034A12688243014B1A60CA
:10271000704700004038024029B1064A126802435F
:10272000044B1A6004E0034A12688243014B1A60AA
:102730007047000044380240F0B500210022002418
:10274000022500260223324F3F6807F00C0121B119
:10275000042905D0082937D105E02E4F076036E05F
:102760002D4F076033E02A4F3F1F3F68C7F3805665
:10277000274F3F1F3F6807F03F036EB1264FB7FB5F
:10278000F3F7DFF88CC0ACF1040CDCF800C0CCF33C
:10279000881C07FB0CF40CE01E4FB7FBF3F7DFF8C7
:1027A00070C0ACF1040CDCF800C0CCF3881C07FB53
:1027B0000CF4174F3F1F3F68C7F301477F1C7D0094
:1027C000B4FBF5F7076002E0124F076000BF00BFDF
:1027D0000F4F3F6807F0F0010909104F7A5C076856
:1027E000D74047600A4F3F6807F4E051890A0B4F12
:1027F0007A5C4768D7408760054F3F6807F46041BF
:10280000490B064F7A5C4768D740C760F0BD0000AF
:10281000083802400024F40000127A00AE000020C4
:10282000704700000CB5002001900090344800680B
:1028300040F480303249086000BF3148006800F43D
:10284000003000900198401C0190009810B9019848
:102850000028F2D12A48006800F4003010B10120AD
:10286000009001E0002000900098012846D1244803
:102870004030006840F080502149403108602148D4
:10288000006840F440401F4908601D480830006857
:102890001B49083108600846006840F400400860A1
:1028A0000846006840F4A05008601748091F0860F7
:1028B000081F006840F08070091F086000BF1048C2
:1028C000006800F000700028F9D040F205700F4950
:1028D00008600B480830006820F003000849083100
:1028E00008600846006840F00200086000BF044825
:1028F0000830006800F00C000828F8D10CBD00007A
:10290000003802400070004008544007003C02407C
:1029100010B523480068401C21490860084600683B
:102920006421B0FBF1F201FB120028BB00201C491E
:1029300008601C480088401C1A4908800846008826
:102940003C2819DB18480088401C174908800020E3
:1029500014490880144800883C280DDB134800887F
:10296000401C1249088008460088182801DB002016
:10297000088001200E490880094800686421B0FBE6
:10298000F1F201FB12000F2804D840210948FFF79B
:10299000F9F803E040210748FFF7F6F810BD000002
:1029A000000000204C0000204E00002050000020BD
:1029B000520000200008024010B51548006840F49D
:1029C0007000134908601348006840F00100114985
:1029D000086000200F49083108600E4800680E4961
:1029E00008400C4908600D48091D0860081F006870
:1029F00020F48020091F0860002006490C3108607F
:102A0000FFF710FF4FF0006001498039086010BDEA
:102A100088ED00E000380240FFFFF6FE1030002491
:102A200010B50121164800F042F820B300F0BAFAC0
:102A300014480078322804DA12480078401C114902
:102A400008701048007832280BDB0F480078022805
:102A500004DA0D480078401C0B4908700020094931
:102A600008700A480088B0F57A7F04DA07480088C1
:102A7000401C064908800121014800F009F810BDFA
:102A800000040040A4000020A5000020A6000020B3
:102A9000CA430282704721B1028842F001020280DB
:102AA00004E002884FF6FE731A400280704730B58A
:102AB0000246002000230024158A05EA01039589B7
:102AC00005EA010413B10CB1012000E0002030BD83
:102AD0001AB183890B43838102E083898B4383810D
:102AE0007047000000220288184B98420ED0184B05
:102AF00098420BD0B0F1804F08D0164B984205D0C9
:102B0000154B984202D0154B984204D14FF68F7363
:102B10001A404B881A43124B984207D0114B9842E7
:102B200004D04FF6FF431A400B891A4302804B68CA
:102B3000C3620B880385054B984202D0044B984230
:102B400001D18B7A03860123838270470000014004
:102B5000000401400004004000080040000C004058
:102B600000100040001400401448008800F02000CD
:102B700018B31248001D00881149124A126888547F
:102B8000084610490968405C0A280BD101200E490B
:102B900008700C480068401C0C4908600020094976
:102BA00008600AE007480068401C064908600846BB
:102BB0000068BE2801DB002008607047004C004020
:102BC000F40B002098000020A00000209C000020B2
:102BD00000BF0449098801F040010029F9D00149EA
:102BE000888070470010014010B503460C46002253
:102BF00000BF985CFFF7ECFF521CA242F9D300BF64
:102C00000348008800F040000028F9D010BD000003
:102C1000001001401448008800F0200010B3124852
:102C200080881249124A1268885408461049096877
:102C3000405C0A280BD101200E4908700C4800782E
:102C4000401C0D4908700020094908600AE0084846
:102C50000068401C0649086008460068BE2801D389
:102C60000020086070470000001001405804002058
:102C7000780000207D0000207C00002000BF054976
:102C8000098801F040010029F9D00249091D088096
:102C9000704700000044004010B503460C46002277
:102CA00000BF985CFFF7EAFF521CA242F9D300BFB5
:102CB0000348008800F040000028F9D010BD000053
:102CC000004400400C48008800F0200090B10A4801
:102CD000001D0088C1B2094802680068401C074B0B
:102CE000186007488154184600682F2802DB00202E
:102CF0001946086070470000004400408000002032
:102D0000DC07002000BF0549098801F040010029C7
:102D1000F9D00249091D08807047000000480040B2
:102D200070B505460E4600244FF480510B48FEF75F
:102D30002BFF00BF285DFFF7E5FF641CB442F9D309
:102D400000BF0748008800F040000028F9D04FF489
:102D500080510248FEF716FF70BD000000040240DB
:102D60000048004010B540F22551124800F03FF8ED
:102D7000012817D110480068401C0F4908600D4811
:102D8000001D0088C4B208460068C82801DD002084
:102D9000086009480068401E08490C540020084992
:102DA000087005E0002240F22551024800F049F881
:102DB00010BD0000004800408C0000209C0900204D
:102DC000A100002001F40072B2F5007F00D100BF25
:102DD000CA430280704721B1828942F40052828145
:102DE00004E082894DF6FF731A408281704770B506
:102DF0000246002400230025002040F66A16B14256
:102E000000D100BFC1F3421501F01F03012606FAED
:102E100003F3012D02D19689334006E0022D02D141
:102E2000168A334001E0968A33400C12012606FAD6
:102E300004F41688344013B10CB1012000E00020E6
:102E400070BDF0B50346002400260025002040F6A2
:102E50006A17B94200D100BF1846C1F3421401F00D
:102E60001F06012707FA06F5012C01D10C3004E0FA
:102E7000022C01D1103000E014301AB107682F4342
:102E8000076002E00768AF430760F0BD2DE9FF4728
:102E900005460E460024A14600BFA046B08900B1F9
:102EA00000BF2C8A24F44054F08804432C82AC895F
:102EB00041F20C608443B08831890843718908432A
:102EC0000443AC81AC8A24F44074B0890443AC82DE
:102ED0006846FFF731FC2048854202D01F488542F2
:102EE00002D1DDF80C9001E0DDF80890A88900F42B
:102EF000004040B109EBC90000EB091031684900FE
:102F0000B0FBF1F707E009EBC90000EB09103168ED
:102F10008900B0FBF1F76420B7FBF0F00401200951
:102F2000642101FB1078A88900F4004040B13220F0
:102F300000EBC800B0FBF1F000F00700044308E02C
:102F4000322000EB08106421B0FBF1F000F00F001C
:102F500004432C81BDE8FF870010014000140140AC
:102F600000BFFEE703B401984100009850EAC12079
:102F700018BF04204A0D18BF40F0010040F2FF7254
:102F8000B2EB515F08BF40F00200012808BF0520E6
:102F900002B0704730380A2801D201207047002063
:102FA0007047000006480078022807DA04480078D5
:102FB000401C034908700120024908707047000056
:102FC000A1000020A200002008480078022801DAB1
:102FD0000020704706480078012804D100200449E9
:102FE00008700120F5E70020F3E70000A1000020B1
:102FF000A200002070B54FF0FF341FA12548FDF757
:1030000049F90646002024490860002503E0002015
:10301000224948556D1C1E2DF9DB31461D48FFF72E
:103020003BFE642000F0FCF81B480068401C1C4973
:103030000860084601681948FFF7D6FD17488078F0
:10304000A0F13004062C0CDA002C0ADB224615A174
:103050001A48FDF71FF9064631461848FFF7C4FD28
:1030600008E017A11548FDF715F906463146134843
:10307000FFF7BAFD204670BD41542B4E534F4352CB
:103080003D2053545245414D2C362C302C310D0AE5
:1030900000000000E805002080000020DC07002080
:1030A000840000206275696C64696E6720736F63C9
:1030B0006B65743D25640D0A00000000900300203C
:1030C0006275696C64696E6720736F636B657420E9
:1030D0006572726F720D0A0018B50346062A75D222
:1030E000DFE802F003234152637500240094684630
:1030F000DC7804701C7944705C7984709C79C470AD
:10310000009C00EE104A81ED000A00240094DC7956
:1031100004701C7A44705C7A84709C7AC470009C41
:1031200000EE104A81ED010A63E000240094684635
:10313000DC7804701C7944705C7984709C79C4706C
:10314000009C00EE104A81ED020ADC7904701C7AC2
:1031500044705C7A84709C7AC470009C00EE104AC3
:1031600081ED030A45E0002400946846DC78047091
:103170001C7944705C7984709C79C470009C00EE6A
:10318000104A81ED040A34E0002400946846DC789B
:1031900004701C7944705C7984709C79C470009CC4
:1031A00000EE104A81ED050A23E0002400946846F1
:1031B000DC7804701C7944705C7984709C79C470EC
:1031C000009C00EE104A81ED060A12E010E0002497
:1031D00000946846DC7804701C7944705C798470D3
:1031E0009C79C470009C00EE104A81ED070A00BF74
:1031F00000BF00BF18BD00001CB5044606A103C9EE
:10320000CDE9000104F11100C0B28DF800000821E1
:103210006846FFF785FD1CBD1103000200045AA596
:10322000002107E048F2D04100BF0A1EA1F10103CE
:1032300099B2FAD1021EA0F1010398B2F2D17047FF
:103240007FB505460C4601210220FFF755FA1D20E7
:103250008DF80C0003208DF80D0001208DF80E0074
:103260008DF80F0003A8FFF7E5F90195ADF80040D0
:103270000020ADF80800ADF8020069460648FFF7E7
:1032800031FC012211460448FFF722FC01210248CB
:10329000FFF701FC7FBD0000000400402DE9F04174
:1032A00007460E46002400254FF0FF3810E0385D39
:1032B000715D884202D1641C6D1C02E0601B441CDD
:1032C00000253046FDF750F9A84201D1A04609E09B
:1032D0003846FDF749F9A04204D93046FDF744F9D4
:1032E000A842E4D800BF4046BDE8F0812DED108B28
:1032F000B8B05822FB4921A8FDF79AF900201E908A
:103300001F9020900FF2E0394846FDF72DF9FFF7A6
:1033100053FB4FF4407101F00702F64B18684FF66B
:10332000FF031840F44B034343EA0220F14B1860BB
:1033300000BF0021481EFFF7B9F9F048006864217A
:10334000B0FBF1F5681EB0F1807F00D30FE0681E7E
:103350004FF0E02148610F214FF0FF30FFF7A6F951
:1033600000204FF0E02188610720086100BF41F68E
:103370001F413120FFF764FFFEF726FDFEF7A4FD95
:103380008021DF48FEF700FC42F22830FFF748FFBB
:10339000FEF7D8FA0A20FFF743FF1AA8FEF78EFAC5
:1033A000002409E00A20A6FB00101AA8005D3038AE
:1033B0000E1804F10100C4B20F2CF3DB1AA82490FC
:1033C0003220ADF89C0001208DF89E00CDA03190F8
:1033D000CCA0349004208DF88C000120CA490880CC
:1033E0009BE2C9480088F8B9C8480088B0F57A7FE0
:1033F0001ADBC7480088B8B90120C6490880C4490B
:1034000008800020C1490880C34800880090C34854
:103410000388C3480288C3A1C848FCF73BFFC4B275
:103420002146C648FFF7E0FBB748008801287DD158
:103430000020B5490880C2A1C448FCF72BFFC4B2E4
:103440000020C3490860002404E00020C149085559
:10345000601CC4B21E2CF8DB2146BC48FFF71CFCE4
:103460004FF49660FFF7DCFEB9480068401CBA498B
:103470000860B84890F820004F287DD1B54890F8F2
:1034800021004B287CD1B34880782B2878D1B148D3
:10349000407A3038AF49097A303901EB810100EBCD
:1034A0004100AE490880AB48007B3038A949C97A51
:1034B000303901EB810100EB41000C2190FBF1F26E
:1034C00001FB1200A6490880A248C07B3038A14900
:1034D000897B303901EB810100EB4100A149088073
:1034E0009C48807C30389B49497C303901EB810114
:1034F00000EB4100182190FBF1F201FB120088491A
:1035000008809448407D30389249097D303901EB7C
:10351000810100EB4100814908808E48007E3038EF
:103520008C49C97D303901EB810100E02BE000EBD3
:103530004100794908800846008800907748038850
:103540007748028877A17D48FCF7A4FEC4B2724890
:10355000008872490988CDE90010714803888148C4
:1035600002887F4801887D48008800F055FA7E492E
:1035700008602146714800E002E0FFF735FB02E0F9
:1035800001206149088079480088012860D1784885
:10359000006800F0CDFA41EC180B7648006800F0A6
:1035A000C7FA41EC190B7448006800F0C1FA41EC0D
:1035B0001A0B7248006800F0BBFA41EC1B0B704814
:1035C000006800F0B5FA41EC1C0B6E48006800F092
:1035D000AFFA41EC1D0B6C48006800F0A9FACDE988
:1035E00018016A48006800F0A3FA41EC1E0B684815
:1035F000006800F09DFA41EC1F0B8DED168B8DEDF0
:10360000149B8DED12AB8DED10BB8DED0ECB8DEDC2
:103610000CDB9DED180B8DED0A0B8DED08EB524880
:1036200000685C49CDE906108DED04FB5A485B4902
:103630005B4ACDE9002102905A4803881AAA5A49E8
:103640005A48FCF727FE5A4908600120594908806A
:1036500058480088012842D10020564908802C494A
:103660000880554908800CE1FEF7F0F8012837D1B1
:10367000FFF7C0FC51490860F0E05048016850A0D5
:1036800000F082F901282CD121AAFA215148FEF735
:1036900059FD80464948414602684E48FEF772FF90
:1036A0004D48FEF71DFF8046B8F1040F0DD14A4882
:1036B0000078202809D148484078022805D146489A
:1036C000807810B94448C07840B10120434908804F
:1036D00039480088323038490880BCE080E0D6E0C4
:1036E000C3E0ABE0203C00086D797061796C6F61DC
:1036F000640000000CED00E00000FA05C0000020AE
:10370000000802400000000052000020A600002037
:10371000400000203C0000204C0000204E00002013
:103720005000002074696D65203D202532643A25E3
:1037300032643A2532640D0A000000009003002034
:1037400041542B43434C4B3F0D0A0000E805002039
:1037500080000020DC0700208400002046000020BC
:10376000480000204A000020240000203E000020E5
:10377000200000201C000020180000201400002061
:10378000100000200C000020080000200400002091
:1037900030000020340000202A0000200D0200200C
:1037A0000202002028000020543D0008840200206E
:1037B0005C0000203A00002044000020600000204F
:1037C00033392E3130342E36382E3139392C3631CA
:1037D00036313300D4000020CE010020420000200A
:1037E0004EA01E90514800685149CDE905101EA811
:1037F00007C802AB07C30020009003460246FA2127
:1038000001904C48FEF796FD80464B4841460268C1
:103810004848FEF7B7FEFA214648FEF782FD80468B
:103820004548414602684348FEF7ACFE42480068FE
:10383000FEF71EFE00204149088014E03E48006863
:10384000FEF716FE4620FFF7EBFC3D4800883230BD
:103850003B49088000BF012038490880384800886B
:10386000C828FFF60AAF00BF10E04FF47A70FFF7E8
:10387000D7FC01203149088031480088401C30497C
:1038800008802F4800889628FFF6EEAE00BF2D482E
:103890002D492E4A2E4BCDE90132CDE903102D489A
:1038A0002D4B2E4A2E4900902E48FEF76FF92E48D8
:1038B0000088012805D100202B49088001202B49D0
:1038C00008801E480088012827D100201B49088055
:1038D00027A12A48FCF7DEFCC4B221462748FFF79F
:1038E000DBF921462548FFF77FF94FF400412448D2
:1038F000FEF748F94FF400412248FEF743F941F240
:103900008830FFF78DFC4FF400411D48FEF73CF96D
:103910004FF400411B48FEF737F962E541514D3243
:103920002E302F4A696158696E6700005C000020E4
:1039300084020020D400002060000020420000200B
:1039400044000020200000201C000020180000205F
:1039500014000020100000200C00002008000020AF
:1039600004000020280000203C0000203E00002031
:1039700041542B4E52420D0A00000000E805002081
:1039800000080240000002402DE9F04105460E46C5
:103990004FF000082B46324616A11B48FCF77AFC74
:1039A0000746002019490860002403E00020184958
:1039B0000855641C1E2CF9DB39461348FFF76CF9D7
:1039C0006420FFF72DFC11480068401C1149086075
:1039D000084601680E48FFF707F90D4880784F2820
:1039E00005D10B48C0784B2801D14FF00108404663
:1039F000BDE8F08141542B4E534F434F3D25642C7D
:103A000025730D0A00000000E8050020800000205A
:103A1000DC070020840000202DE9F0438BB0044631
:103A20000D4616461F46DDE912892C216846FCF733
:103A300031FE04F164000590681E0490039602971D
:103A4000CDF80480CDF800906846FCF76AFE0BB014
:103A5000BDE8F08370B504460E463046FCF784FDA1
:103A600005462946204600F00FF82A4631462068D0
:103A7000FCF799FD20682844206070BD0268117031
:103A80000268521C0260704710B50A46CB1701EB62
:103A900013631B0A046823700268521C02600A4602
:103AA000CB1701EB13631B12A1EB032304682370F4
:103AB0000268521C026010BD1FB50446029800281F
:103AC0000DDD20460299FFF7DFFFDDE902212068C6
:103AD000FCF769FD20680299084420600AE001981B
:103AE00020B120460199FFF7B5FF03E000212046F1
:103AF000FFF7CAFF1FBD000010B500290AD00878E3
:103B0000002807D005487844FDF790FA002801D036
:103B1000002010BD0248784410BD000022030000C0
:103B20001A0300000808A0F500114FEA31017047A0
:103B300043004FEAD30C4FEA3C0C43401FBF400701
:103B40000CF1605113F0FE4F70471CF0006F03D171
:103B500000200CF0004170470CF0004343EA507025
:103B600010B540EACC0000F00EF800BF0000009253
:103B70004FEA0001FFF7D6BF4FF000414FF00000C1
:103B8000A1F5002170470EF1020E2EF0030E5EF833
:103B9000044B244204D44FEA4102B2F17F4F11D8C2
:103BA0004FEA4003B3F17F4F0CD80ED14FEAD07CDF
:103BB000B2F17F4F0CEB4C0C0CF1020C08BF4CEB3C
:103BC000D17C04E04FF0080C01E04FEAD17C0CEB13
:103BD0004C0324FA03F404F00704B4F1040C06D2F5
:103BE0000EEB840CBDE810404CF0010C6047DFE8A0
:103BF0000CF0070802024FF00040A0F5800010BD55
:103C00000846420018BFD2F1807288BF00F0004021
:103C100010BD4FF04070E1EE100A7047FCF76DBF29
:103C20004D5154430000000004000000000000005B
:103C300000000000000000003C0001004D515457FE
:103C40000000000000000000000000000000000074
:103C50000000000000000000000000000000000064
:103C60000000000000000000000000000000000054
:103C700000000000000000003031323334353637A8
:103C800038394142434445464030580030313233A0
:103C900034353637383961626364656640307800A0
:103CA0000400000800000000000000020001000005
:103CB000101F1D1F1E1F1E1F1F1E1F1E1F00000086
:103CC00002400000000000A00000000005400000CD
:103CD000000000C8000000000C4000000000409CF4
:103CE00000000000194000000020BCBE00000000E1
:103CF00034400000BFC91B8E00000004B540000026
:103D0000504BCFD06607E2CF010000006C410000AD
:103D10003E8251AADFEEA73401000000D942000024
:103D2000DCB5A0E23A301F97FFFFFFFFB44500006B
:103D3000FD25A0C8E9A3C14FFFFFFFFFFF3F000023
:103D40000000008000000000FF3F00000000008035
:103D5000000000007B22534E223A222573222C229F
:103D60004657223A22332E30222C224543223A252E
:103D7000642C224C4F223A222573222C224C4122C1
:103D80003A222573222C224454223A222573222CD3
:103D9000224256223A252E31662C22525353492272
:103DA0003A222573222C2254494D45223A25642C6F
:103DB00022534F32223A252E32662C224E4F322287
:103DC0003A252E32662C22434F223A252E32662C7B
:103DD000224F33223A252E32662C22504D3130228A
:103DE0003A252E32662C22504D322E35223A252E7F
:103DF00032662C224154223A252E31662C2241482B
:103E0000223A252E31667D00443E00080000002045
:103E1000D4000000C4010008183F0008D4000020AE
:103E2000E4290000E00100081C000000430000003D
:103E3000F8FFFFFF0C0000000E0000000F00000064
:103E40002E00000000000000000000000000000044
:103E50000000000000000000000000000000000062
:103E60000000000000000000000000000000000052
:103E70000000000000000000000000000000000042
:103E80000000000000000000000000000000000032
:103E90000000010000000000000000000000000021
:103EA0000000000000000000000000000000000012
:103EB0000000000000000000000000000000000002
:103EC00000000000000000000000000000000000F2
:103ED00000000000000000000000000000000000E2
:103EE00000000000000001000000000000000000D1
:103EF00000000000000001020304010203040607A1
:103F000008090000007A030A000000000000000019
:083F1000010203040607080981
:040000050800018965
:00000001FF
